{
  "contractName": "OLOG_ERC20",
  "abi": [
    {
      "inputs": [],
      "stateMutability": "nonpayable",
      "type": "constructor"
    },
    {
      "anonymous": false,
      "inputs": [
        {
          "indexed": true,
          "internalType": "address",
          "name": "owner",
          "type": "address"
        },
        {
          "indexed": true,
          "internalType": "address",
          "name": "spender",
          "type": "address"
        },
        {
          "indexed": false,
          "internalType": "uint256",
          "name": "value",
          "type": "uint256"
        }
      ],
      "name": "Approval",
      "type": "event"
    },
    {
      "anonymous": false,
      "inputs": [
        {
          "indexed": true,
          "internalType": "address",
          "name": "previousOwner",
          "type": "address"
        },
        {
          "indexed": true,
          "internalType": "address",
          "name": "newOwner",
          "type": "address"
        }
      ],
      "name": "OwnershipTransferred",
      "type": "event"
    },
    {
      "anonymous": false,
      "inputs": [
        {
          "indexed": true,
          "internalType": "address",
          "name": "from",
          "type": "address"
        },
        {
          "indexed": true,
          "internalType": "address",
          "name": "to",
          "type": "address"
        },
        {
          "indexed": false,
          "internalType": "uint256",
          "name": "value",
          "type": "uint256"
        }
      ],
      "name": "Transfer",
      "type": "event"
    },
    {
      "inputs": [
        {
          "internalType": "address",
          "name": "owner",
          "type": "address"
        },
        {
          "internalType": "address",
          "name": "spender",
          "type": "address"
        }
      ],
      "name": "allowance",
      "outputs": [
        {
          "internalType": "uint256",
          "name": "",
          "type": "uint256"
        }
      ],
      "stateMutability": "view",
      "type": "function",
      "constant": true
    },
    {
      "inputs": [
        {
          "internalType": "address",
          "name": "spender",
          "type": "address"
        },
        {
          "internalType": "uint256",
          "name": "amount",
          "type": "uint256"
        }
      ],
      "name": "approve",
      "outputs": [
        {
          "internalType": "bool",
          "name": "",
          "type": "bool"
        }
      ],
      "stateMutability": "nonpayable",
      "type": "function"
    },
    {
      "inputs": [
        {
          "internalType": "address",
          "name": "account",
          "type": "address"
        }
      ],
      "name": "balanceOf",
      "outputs": [
        {
          "internalType": "uint256",
          "name": "",
          "type": "uint256"
        }
      ],
      "stateMutability": "view",
      "type": "function",
      "constant": true
    },
    {
      "inputs": [],
      "name": "decimals",
      "outputs": [
        {
          "internalType": "uint8",
          "name": "",
          "type": "uint8"
        }
      ],
      "stateMutability": "view",
      "type": "function",
      "constant": true
    },
    {
      "inputs": [
        {
          "internalType": "address",
          "name": "spender",
          "type": "address"
        },
        {
          "internalType": "uint256",
          "name": "subtractedValue",
          "type": "uint256"
        }
      ],
      "name": "decreaseAllowance",
      "outputs": [
        {
          "internalType": "bool",
          "name": "",
          "type": "bool"
        }
      ],
      "stateMutability": "nonpayable",
      "type": "function"
    },
    {
      "inputs": [
        {
          "internalType": "address",
          "name": "spender",
          "type": "address"
        },
        {
          "internalType": "uint256",
          "name": "addedValue",
          "type": "uint256"
        }
      ],
      "name": "increaseAllowance",
      "outputs": [
        {
          "internalType": "bool",
          "name": "",
          "type": "bool"
        }
      ],
      "stateMutability": "nonpayable",
      "type": "function"
    },
    {
      "inputs": [],
      "name": "name",
      "outputs": [
        {
          "internalType": "string",
          "name": "",
          "type": "string"
        }
      ],
      "stateMutability": "view",
      "type": "function",
      "constant": true
    },
    {
      "inputs": [],
      "name": "owner",
      "outputs": [
        {
          "internalType": "address",
          "name": "",
          "type": "address"
        }
      ],
      "stateMutability": "view",
      "type": "function",
      "constant": true
    },
    {
      "inputs": [],
      "name": "renounceOwnership",
      "outputs": [],
      "stateMutability": "nonpayable",
      "type": "function"
    },
    {
      "inputs": [],
      "name": "symbol",
      "outputs": [
        {
          "internalType": "string",
          "name": "",
          "type": "string"
        }
      ],
      "stateMutability": "view",
      "type": "function",
      "constant": true
    },
    {
      "inputs": [],
      "name": "totalSupply",
      "outputs": [
        {
          "internalType": "uint256",
          "name": "",
          "type": "uint256"
        }
      ],
      "stateMutability": "view",
      "type": "function",
      "constant": true
    },
    {
      "inputs": [
        {
          "internalType": "address",
          "name": "to",
          "type": "address"
        },
        {
          "internalType": "uint256",
          "name": "amount",
          "type": "uint256"
        }
      ],
      "name": "transfer",
      "outputs": [
        {
          "internalType": "bool",
          "name": "",
          "type": "bool"
        }
      ],
      "stateMutability": "nonpayable",
      "type": "function"
    },
    {
      "inputs": [
        {
          "internalType": "address",
          "name": "from",
          "type": "address"
        },
        {
          "internalType": "address",
          "name": "to",
          "type": "address"
        },
        {
          "internalType": "uint256",
          "name": "amount",
          "type": "uint256"
        }
      ],
      "name": "transferFrom",
      "outputs": [
        {
          "internalType": "bool",
          "name": "",
          "type": "bool"
        }
      ],
      "stateMutability": "nonpayable",
      "type": "function"
    },
    {
      "inputs": [
        {
          "internalType": "address",
          "name": "newOwner",
          "type": "address"
        }
      ],
      "name": "transferOwnership",
      "outputs": [],
      "stateMutability": "nonpayable",
      "type": "function"
    },
    {
      "inputs": [
        {
          "internalType": "address",
          "name": "to",
          "type": "address"
        },
        {
          "internalType": "uint256",
          "name": "amount",
          "type": "uint256"
        }
      ],
      "name": "mintToken",
      "outputs": [
        {
          "internalType": "bool",
          "name": "",
          "type": "bool"
        }
      ],
      "stateMutability": "nonpayable",
      "type": "function"
    },
    {
      "inputs": [
        {
          "internalType": "address[]",
          "name": "toArr",
          "type": "address[]"
        },
        {
          "internalType": "uint256[]",
          "name": "amountArr",
          "type": "uint256[]"
        }
      ],
      "name": "multiMintToken",
      "outputs": [
        {
          "internalType": "bool",
          "name": "",
          "type": "bool"
        }
      ],
      "stateMutability": "nonpayable",
      "type": "function"
    },
    {
      "inputs": [
        {
          "internalType": "address",
          "name": "NFTAddress",
          "type": "address"
        }
      ],
      "name": "setERC721Address",
      "outputs": [
        {
          "internalType": "address",
          "name": "",
          "type": "address"
        }
      ],
      "stateMutability": "nonpayable",
      "type": "function"
    }
  ],
  "bytecode": "0x60806040523480156200001157600080fd5b506040518060400160405280600f81526020017f4f6c6f67526577617264546f6b656e00000000000000000000000000000000008152506040518060400160405280600481526020017f4f4c4f4700000000000000000000000000000000000000000000000000000000815250816003908051906020019062000096929190620001e8565b508060049080519060200190620000af929190620001e8565b505050620000d2620000c66200011a60201b60201c565b6200012260201b60201c565b6000600660006101000a81548173ffffffffffffffffffffffffffffffffffffffff021916908373ffffffffffffffffffffffffffffffffffffffff160217905550620002fc565b600033905090565b6000600560009054906101000a900473ffffffffffffffffffffffffffffffffffffffff16905081600560006101000a81548173ffffffffffffffffffffffffffffffffffffffff021916908373ffffffffffffffffffffffffffffffffffffffff1602179055508173ffffffffffffffffffffffffffffffffffffffff168173ffffffffffffffffffffffffffffffffffffffff167f8be0079c531659141344cd1fd0a4f28419497f9722a3daafe3b4186f6b6457e060405160405180910390a35050565b828054620001f690620002c7565b90600052602060002090601f0160209004810192826200021a576000855562000266565b82601f106200023557805160ff191683800117855562000266565b8280016001018555821562000266579182015b828111156200026557825182559160200191906001019062000248565b5b50905062000275919062000279565b5090565b5b80821115620002945760008160009055506001016200027a565b5090565b7f4e487b7100000000000000000000000000000000000000000000000000000000600052602260045260246000fd5b60006002820490506001821680620002e057607f821691505b602082108103620002f657620002f562000298565b5b50919050565b612188806200030c6000396000f3fe608060405234801561001057600080fd5b506004361061010b5760003560e01c8063715018a6116100a25780639a03d9a3116100715780639a03d9a3146102d0578063a457c2d714610300578063a9059cbb14610330578063dd62ed3e14610360578063f2fde38b146103905761010b565b8063715018a61461025a57806379c65068146102645780638da5cb5b1461029457806395d89b41146102b25761010b565b8063313ce567116100de578063313ce567146101ac57806339509351146101ca578063498eaaae146101fa57806370a082311461022a5761010b565b806306fdde0314610110578063095ea7b31461012e57806318160ddd1461015e57806323b872dd1461017c575b600080fd5b6101186103ac565b6040516101259190611665565b60405180910390f35b61014860048036038101906101439190611725565b61043e565b6040516101559190611780565b60405180910390f35b610166610461565b60405161017391906117aa565b60405180910390f35b610196600480360381019061019191906117c5565b61046b565b6040516101a39190611780565b60405180910390f35b6101b461049a565b6040516101c19190611834565b60405180910390f35b6101e460048036038101906101df9190611725565b6104a3565b6040516101f19190611780565b60405180910390f35b610214600480360381019061020f919061190a565b6104da565b6040516102219190611780565b60405180910390f35b610244600480360381019061023f919061198b565b610849565b60405161025191906117aa565b60405180910390f35b610262610891565b005b61027e60048036038101906102799190611725565b610919565b60405161028b9190611780565b60405180910390f35b61029c610b04565b6040516102a991906119c7565b60405180910390f35b6102ba610b2e565b6040516102c79190611665565b60405180910390f35b6102ea60048036038101906102e5919061198b565b610bc0565b6040516102f791906119c7565b60405180910390f35b61031a60048036038101906103159190611725565b610ca9565b6040516103279190611780565b60405180910390f35b61034a60048036038101906103459190611725565b610d20565b6040516103579190611780565b60405180910390f35b61037a600480360381019061037591906119e2565b610d43565b60405161038791906117aa565b60405180910390f35b6103aa60048036038101906103a5919061198b565b610dca565b005b6060600380546103bb90611a51565b80601f01602080910402602001604051908101604052809291908181526020018280546103e790611a51565b80156104345780601f1061040957610100808354040283529160200191610434565b820191906000526020600020905b81548152906001019060200180831161041757829003601f168201915b5050505050905090565b600080610449610ec1565b9050610456818585610ec9565b600191505092915050565b6000600254905090565b600080610476610ec1565b9050610483858285611092565b61048e85858561111e565b60019150509392505050565b60006012905090565b6000806104ae610ec1565b90506104cf8185856104c08589610d43565b6104ca9190611ab1565b610ec9565b600191505092915050565b60006104e4610ec1565b73ffffffffffffffffffffffffffffffffffffffff16610502610b04565b73ffffffffffffffffffffffffffffffffffffffff1614610558576040517f08c379a000000000000000000000000000000000000000000000000000000000815260040161054f90611b53565b60405180910390fd5b82829050858590501461056a57600080fd5b60005b8585905081101561083c57600073ffffffffffffffffffffffffffffffffffffffff16600660009054906101000a900473ffffffffffffffffffffffffffffffffffffffff1673ffffffffffffffffffffffffffffffffffffffff1603610609576040517f08c379a000000000000000000000000000000000000000000000000000000000815260040161060090611be5565b60405180910390fd5b600073ffffffffffffffffffffffffffffffffffffffff1686868381811061063457610633611c05565b5b9050602002016020810190610649919061198b565b73ffffffffffffffffffffffffffffffffffffffff160361066957600080fd5b600084848381811061067e5761067d611c05565b5b905060200201351161068f57600080fd5b6106d98686838181106106a5576106a4611c05565b5b90506020020160208101906106ba919061198b565b8585848181106106cd576106cc611c05565b5b9050602002013561139d565b61075f8686838181106106ef576106ee611c05565b5b9050602002016020810190610704919061198b565b3386868581811061071857610717611c05565b5b905060200201356107508a8a8781811061073557610734611c05565b5b905060200201602081019061074a919061198b565b33610d43565b61075a9190611ab1565b610ec9565b61082986868381811061077557610774611c05565b5b905060200201602081019061078a919061198b565b600660009054906101000a900473ffffffffffffffffffffffffffffffffffffffff168686858181106107c0576107bf611c05565b5b9050602002013561081a8a8a878181106107dd576107dc611c05565b5b90506020020160208101906107f2919061198b565b600660009054906101000a900473ffffffffffffffffffffffffffffffffffffffff16610d43565b6108249190611ab1565b610ec9565b808061083490611c34565b91505061056d565b5060019050949350505050565b60008060008373ffffffffffffffffffffffffffffffffffffffff1673ffffffffffffffffffffffffffffffffffffffff168152602001908152602001600020549050919050565b610899610ec1565b73ffffffffffffffffffffffffffffffffffffffff166108b7610b04565b73ffffffffffffffffffffffffffffffffffffffff161461090d576040517f08c379a000000000000000000000000000000000000000000000000000000000815260040161090490611b53565b60405180910390fd5b61091760006114fc565b565b6000610923610ec1565b73ffffffffffffffffffffffffffffffffffffffff16610941610b04565b73ffffffffffffffffffffffffffffffffffffffff1614610997576040517f08c379a000000000000000000000000000000000000000000000000000000000815260040161098e90611b53565b60405180910390fd5b600073ffffffffffffffffffffffffffffffffffffffff16600660009054906101000a900473ffffffffffffffffffffffffffffffffffffffff1673ffffffffffffffffffffffffffffffffffffffff1603610a28576040517f08c379a0000000000000000000000000000000000000000000000000000000008152600401610a1f90611be5565b60405180910390fd5b600073ffffffffffffffffffffffffffffffffffffffff168373ffffffffffffffffffffffffffffffffffffffff1603610a6157600080fd5b60008211610a6e57600080fd5b610a78838361139d565b610a97833384610a888733610d43565b610a929190611ab1565b610ec9565b610afa83600660009054906101000a900473ffffffffffffffffffffffffffffffffffffffff1684610aeb87600660009054906101000a900473ffffffffffffffffffffffffffffffffffffffff16610d43565b610af59190611ab1565b610ec9565b6001905092915050565b6000600560009054906101000a900473ffffffffffffffffffffffffffffffffffffffff16905090565b606060048054610b3d90611a51565b80601f0160208091040260200160405190810160405280929190818152602001828054610b6990611a51565b8015610bb65780601f10610b8b57610100808354040283529160200191610bb6565b820191906000526020600020905b815481529060010190602001808311610b9957829003601f168201915b5050505050905090565b6000610bca610ec1565b73ffffffffffffffffffffffffffffffffffffffff16610be8610b04565b73ffffffffffffffffffffffffffffffffffffffff1614610c3e576040517f08c379a0000000000000000000000000000000000000000000000000000000008152600401610c3590611b53565b60405180910390fd5b81600660006101000a81548173ffffffffffffffffffffffffffffffffffffffff021916908373ffffffffffffffffffffffffffffffffffffffff160217905550600660009054906101000a900473ffffffffffffffffffffffffffffffffffffffff169050919050565b600080610cb4610ec1565b90506000610cc28286610d43565b905083811015610d07576040517f08c379a0000000000000000000000000000000000000000000000000000000008152600401610cfe90611cee565b60405180910390fd5b610d148286868403610ec9565b60019250505092915050565b600080610d2b610ec1565b9050610d3881858561111e565b600191505092915050565b6000600160008473ffffffffffffffffffffffffffffffffffffffff1673ffffffffffffffffffffffffffffffffffffffff16815260200190815260200160002060008373ffffffffffffffffffffffffffffffffffffffff1673ffffffffffffffffffffffffffffffffffffffff16815260200190815260200160002054905092915050565b610dd2610ec1565b73ffffffffffffffffffffffffffffffffffffffff16610df0610b04565b73ffffffffffffffffffffffffffffffffffffffff1614610e46576040517f08c379a0000000000000000000000000000000000000000000000000000000008152600401610e3d90611b53565b60405180910390fd5b600073ffffffffffffffffffffffffffffffffffffffff168173ffffffffffffffffffffffffffffffffffffffff1603610eb5576040517f08c379a0000000000000000000000000000000000000000000000000000000008152600401610eac90611d80565b60405180910390fd5b610ebe816114fc565b50565b600033905090565b600073ffffffffffffffffffffffffffffffffffffffff168373ffffffffffffffffffffffffffffffffffffffff1603610f38576040517f08c379a0000000000000000000000000000000000000000000000000000000008152600401610f2f90611e12565b60405180910390fd5b600073ffffffffffffffffffffffffffffffffffffffff168273ffffffffffffffffffffffffffffffffffffffff1603610fa7576040517f08c379a0000000000000000000000000000000000000000000000000000000008152600401610f9e90611ea4565b60405180910390fd5b80600160008573ffffffffffffffffffffffffffffffffffffffff1673ffffffffffffffffffffffffffffffffffffffff16815260200190815260200160002060008473ffffffffffffffffffffffffffffffffffffffff1673ffffffffffffffffffffffffffffffffffffffff168152602001908152602001600020819055508173ffffffffffffffffffffffffffffffffffffffff168373ffffffffffffffffffffffffffffffffffffffff167f8c5be1e5ebec7d5bd14f71427d1e84f3dd0314c0f7b2291e5b200ac8c7c3b9258360405161108591906117aa565b60405180910390a3505050565b600061109e8484610d43565b90507fffffffffffffffffffffffffffffffffffffffffffffffffffffffffffffffff8114611118578181101561110a576040517f08c379a000000000000000000000000000000000000000000000000000000000815260040161110190611f10565b60405180910390fd5b6111178484848403610ec9565b5b50505050565b600073ffffffffffffffffffffffffffffffffffffffff168373ffffffffffffffffffffffffffffffffffffffff160361118d576040517f08c379a000000000000000000000000000000000000000000000000000000000815260040161118490611fa2565b60405180910390fd5b600073ffffffffffffffffffffffffffffffffffffffff168273ffffffffffffffffffffffffffffffffffffffff16036111fc576040517f08c379a00000000000000000000000000000000000000000000000000000000081526004016111f390612034565b60405180910390fd5b6112078383836115c2565b60008060008573ffffffffffffffffffffffffffffffffffffffff1673ffffffffffffffffffffffffffffffffffffffff1681526020019081526020016000205490508181101561128d576040517f08c379a0000000000000000000000000000000000000000000000000000000008152600401611284906120c6565b60405180910390fd5b8181036000808673ffffffffffffffffffffffffffffffffffffffff1673ffffffffffffffffffffffffffffffffffffffff16815260200190815260200160002081905550816000808573ffffffffffffffffffffffffffffffffffffffff1673ffffffffffffffffffffffffffffffffffffffff16815260200190815260200160002060008282546113209190611ab1565b925050819055508273ffffffffffffffffffffffffffffffffffffffff168473ffffffffffffffffffffffffffffffffffffffff167fddf252ad1be2c89b69c2b068fc378daa952ba7f163c4a11628f55a4df523b3ef8460405161138491906117aa565b60405180910390a36113978484846115c7565b50505050565b600073ffffffffffffffffffffffffffffffffffffffff168273ffffffffffffffffffffffffffffffffffffffff160361140c576040517f08c379a000000000000000000000000000000000000000000000000000000000815260040161140390612132565b60405180910390fd5b611418600083836115c2565b806002600082825461142a9190611ab1565b92505081905550806000808473ffffffffffffffffffffffffffffffffffffffff1673ffffffffffffffffffffffffffffffffffffffff168152602001908152602001600020600082825461147f9190611ab1565b925050819055508173ffffffffffffffffffffffffffffffffffffffff16600073ffffffffffffffffffffffffffffffffffffffff167fddf252ad1be2c89b69c2b068fc378daa952ba7f163c4a11628f55a4df523b3ef836040516114e491906117aa565b60405180910390a36114f8600083836115c7565b5050565b6000600560009054906101000a900473ffffffffffffffffffffffffffffffffffffffff16905081600560006101000a81548173ffffffffffffffffffffffffffffffffffffffff021916908373ffffffffffffffffffffffffffffffffffffffff1602179055508173ffffffffffffffffffffffffffffffffffffffff168173ffffffffffffffffffffffffffffffffffffffff167f8be0079c531659141344cd1fd0a4f28419497f9722a3daafe3b4186f6b6457e060405160405180910390a35050565b505050565b505050565b600081519050919050565b600082825260208201905092915050565b60005b838110156116065780820151818401526020810190506115eb565b83811115611615576000848401525b50505050565b6000601f19601f8301169050919050565b6000611637826115cc565b61164181856115d7565b93506116518185602086016115e8565b61165a8161161b565b840191505092915050565b6000602082019050818103600083015261167f818461162c565b905092915050565b600080fd5b600080fd5b600073ffffffffffffffffffffffffffffffffffffffff82169050919050565b60006116bc82611691565b9050919050565b6116cc816116b1565b81146116d757600080fd5b50565b6000813590506116e9816116c3565b92915050565b6000819050919050565b611702816116ef565b811461170d57600080fd5b50565b60008135905061171f816116f9565b92915050565b6000806040838503121561173c5761173b611687565b5b600061174a858286016116da565b925050602061175b85828601611710565b9150509250929050565b60008115159050919050565b61177a81611765565b82525050565b60006020820190506117956000830184611771565b92915050565b6117a4816116ef565b82525050565b60006020820190506117bf600083018461179b565b92915050565b6000806000606084860312156117de576117dd611687565b5b60006117ec868287016116da565b93505060206117fd868287016116da565b925050604061180e86828701611710565b9150509250925092565b600060ff82169050919050565b61182e81611818565b82525050565b60006020820190506118496000830184611825565b92915050565b600080fd5b600080fd5b600080fd5b60008083601f8401126118745761187361184f565b5b8235905067ffffffffffffffff81111561189157611890611854565b5b6020830191508360208202830111156118ad576118ac611859565b5b9250929050565b60008083601f8401126118ca576118c961184f565b5b8235905067ffffffffffffffff8111156118e7576118e6611854565b5b60208301915083602082028301111561190357611902611859565b5b9250929050565b6000806000806040858703121561192457611923611687565b5b600085013567ffffffffffffffff8111156119425761194161168c565b5b61194e8782880161185e565b9450945050602085013567ffffffffffffffff8111156119715761197061168c565b5b61197d878288016118b4565b925092505092959194509250565b6000602082840312156119a1576119a0611687565b5b60006119af848285016116da565b91505092915050565b6119c1816116b1565b82525050565b60006020820190506119dc60008301846119b8565b92915050565b600080604083850312156119f9576119f8611687565b5b6000611a07858286016116da565b9250506020611a18858286016116da565b9150509250929050565b7f4e487b7100000000000000000000000000000000000000000000000000000000600052602260045260246000fd5b60006002820490506001821680611a6957607f821691505b602082108103611a7c57611a7b611a22565b5b50919050565b7f4e487b7100000000000000000000000000000000000000000000000000000000600052601160045260246000fd5b6000611abc826116ef565b9150611ac7836116ef565b9250827fffffffffffffffffffffffffffffffffffffffffffffffffffffffffffffffff03821115611afc57611afb611a82565b5b828201905092915050565b7f4f776e61626c653a2063616c6c6572206973206e6f7420746865206f776e6572600082015250565b6000611b3d6020836115d7565b9150611b4882611b07565b602082019050919050565b60006020820190508181036000830152611b6c81611b30565b9050919050565b7f506c6561736520736574204e465420436f6e747261637420416464726573732060008201527f4669727374000000000000000000000000000000000000000000000000000000602082015250565b6000611bcf6025836115d7565b9150611bda82611b73565b604082019050919050565b60006020820190508181036000830152611bfe81611bc2565b9050919050565b7f4e487b7100000000000000000000000000000000000000000000000000000000600052603260045260246000fd5b6000611c3f826116ef565b91507fffffffffffffffffffffffffffffffffffffffffffffffffffffffffffffffff8203611c7157611c70611a82565b5b600182019050919050565b7f45524332303a2064656372656173656420616c6c6f77616e63652062656c6f7760008201527f207a65726f000000000000000000000000000000000000000000000000000000602082015250565b6000611cd86025836115d7565b9150611ce382611c7c565b604082019050919050565b60006020820190508181036000830152611d0781611ccb565b9050919050565b7f4f776e61626c653a206e6577206f776e657220697320746865207a65726f206160008201527f6464726573730000000000000000000000000000000000000000000000000000602082015250565b6000611d6a6026836115d7565b9150611d7582611d0e565b604082019050919050565b60006020820190508181036000830152611d9981611d5d565b9050919050565b7f45524332303a20617070726f76652066726f6d20746865207a65726f2061646460008201527f7265737300000000000000000000000000000000000000000000000000000000602082015250565b6000611dfc6024836115d7565b9150611e0782611da0565b604082019050919050565b60006020820190508181036000830152611e2b81611def565b9050919050565b7f45524332303a20617070726f766520746f20746865207a65726f20616464726560008201527f7373000000000000000000000000000000000000000000000000000000000000602082015250565b6000611e8e6022836115d7565b9150611e9982611e32565b604082019050919050565b60006020820190508181036000830152611ebd81611e81565b9050919050565b7f45524332303a20696e73756666696369656e7420616c6c6f77616e6365000000600082015250565b6000611efa601d836115d7565b9150611f0582611ec4565b602082019050919050565b60006020820190508181036000830152611f2981611eed565b9050919050565b7f45524332303a207472616e736665722066726f6d20746865207a65726f20616460008201527f6472657373000000000000000000000000000000000000000000000000000000602082015250565b6000611f8c6025836115d7565b9150611f9782611f30565b604082019050919050565b60006020820190508181036000830152611fbb81611f7f565b9050919050565b7f45524332303a207472616e7366657220746f20746865207a65726f206164647260008201527f6573730000000000000000000000000000000000000000000000000000000000602082015250565b600061201e6023836115d7565b915061202982611fc2565b604082019050919050565b6000602082019050818103600083015261204d81612011565b9050919050565b7f45524332303a207472616e7366657220616d6f756e742065786365656473206260008201527f616c616e63650000000000000000000000000000000000000000000000000000602082015250565b60006120b06026836115d7565b91506120bb82612054565b604082019050919050565b600060208201905081810360008301526120df816120a3565b9050919050565b7f45524332303a206d696e7420746f20746865207a65726f206164647265737300600082015250565b600061211c601f836115d7565b9150612127826120e6565b602082019050919050565b6000602082019050818103600083015261214b8161210f565b905091905056fea264697066735822122093734610aec43dc2791826080127b155fce7629372892bc9a0909f00b68817f964736f6c634300080e0033",
  "immutableReferences": {},
  "source": "// SPDX-License-Identifier: GPL-3.0\npragma solidity ^0.8.10;\n\nimport \"openzeppelin-solidity/contracts/token/ERC20/ERC20.sol\";\nimport \"openzeppelin-solidity/contracts/access/Ownable.sol\";\nimport \"openzeppelin-solidity/contracts/token/ERC721/extensions/IERC721Metadata.sol\";\n\ncontract OLOG_ERC20 is ERC20, Ownable {\n    address NFTContract;\n\n    constructor() ERC20(\"OlogRewardToken\", \"OLOG\") {\n        NFTContract = address(0x0);\n    }\n\n    function mintToken(address to, uint256 amount) public onlyOwner returns (bool){\n        require(NFTContract != address(0x0), \"Please set NFT Contract Address First\");\n        require(to != address(0x0));\n        require(amount > 0);\n        _mint(to, amount);\n        _approve(to, msg.sender, allowance(to, msg.sender) + amount);\n        _approve(to, NFTContract, allowance(to, NFTContract) + amount);\n\n        return true;\n    }\n\n    function multiMintToken(address[] calldata toArr, uint256[] calldata amountArr) public onlyOwner returns (bool){\n\trequire(toArr.length == amountArr.length);\n\tfor(uint256 i = 0; i < toArr.length; i++) {\n        require(NFTContract != address(0x0), \"Please set NFT Contract Address First\");\n\t    require(toArr[i] != address(0x0));\n\t    require(amountArr[i] > 0);\n\t    _mint(toArr[i], amountArr[i]);\n\t    _approve(toArr[i], msg.sender, allowance(toArr[i], msg.sender) + amountArr[i]);\n        _approve(toArr[i], NFTContract, allowance(toArr[i], NFTContract) + amountArr[i]);\n\n\t}\n\treturn true;\n}\n    function setERC721Address(address NFTAddress) public onlyOwner returns (address) {\n        NFTContract = NFTAddress;\n        return NFTContract;\n    }\n\n}",
  "sourcePath": "/Users/yooseungjun/Desktop/blockchain/beb-04-O_log/OLOG_SERVER/truffle/contracts/ERC20Project.sol",
  "compiler": {
    "name": "solc",
    "version": "0.8.14+commit.80d49f37.Emscripten.clang"
  },
  "schemaVersion": "3.4.7",
  "updatedAt": "2022-06-30T06:25:49.903Z",
  "networkType": "ethereum",
  "devdoc": {
    "kind": "dev",
    "methods": {
      "allowance(address,address)": {
        "details": "See {IERC20-allowance}."
      },
      "approve(address,uint256)": {
        "details": "See {IERC20-approve}. NOTE: If `amount` is the maximum `uint256`, the allowance is not updated on `transferFrom`. This is semantically equivalent to an infinite approval. Requirements: - `spender` cannot be the zero address."
      },
      "balanceOf(address)": {
        "details": "See {IERC20-balanceOf}."
      },
      "decimals()": {
        "details": "Returns the number of decimals used to get its user representation. For example, if `decimals` equals `2`, a balance of `505` tokens should be displayed to a user as `5.05` (`505 / 10 ** 2`). Tokens usually opt for a value of 18, imitating the relationship between Ether and Wei. This is the value {ERC20} uses, unless this function is overridden; NOTE: This information is only used for _display_ purposes: it in no way affects any of the arithmetic of the contract, including {IERC20-balanceOf} and {IERC20-transfer}."
      },
      "decreaseAllowance(address,uint256)": {
        "details": "Atomically decreases the allowance granted to `spender` by the caller. This is an alternative to {approve} that can be used as a mitigation for problems described in {IERC20-approve}. Emits an {Approval} event indicating the updated allowance. Requirements: - `spender` cannot be the zero address. - `spender` must have allowance for the caller of at least `subtractedValue`."
      },
      "increaseAllowance(address,uint256)": {
        "details": "Atomically increases the allowance granted to `spender` by the caller. This is an alternative to {approve} that can be used as a mitigation for problems described in {IERC20-approve}. Emits an {Approval} event indicating the updated allowance. Requirements: - `spender` cannot be the zero address."
      },
      "name()": {
        "details": "Returns the name of the token."
      },
      "owner()": {
        "details": "Returns the address of the current owner."
      },
      "renounceOwnership()": {
        "details": "Leaves the contract without owner. It will not be possible to call `onlyOwner` functions anymore. Can only be called by the current owner. NOTE: Renouncing ownership will leave the contract without an owner, thereby removing any functionality that is only available to the owner."
      },
      "symbol()": {
        "details": "Returns the symbol of the token, usually a shorter version of the name."
      },
      "totalSupply()": {
        "details": "See {IERC20-totalSupply}."
      },
      "transfer(address,uint256)": {
        "details": "See {IERC20-transfer}. Requirements: - `to` cannot be the zero address. - the caller must have a balance of at least `amount`."
      },
      "transferFrom(address,address,uint256)": {
        "details": "See {IERC20-transferFrom}. Emits an {Approval} event indicating the updated allowance. This is not required by the EIP. See the note at the beginning of {ERC20}. NOTE: Does not update the allowance if the current allowance is the maximum `uint256`. Requirements: - `from` and `to` cannot be the zero address. - `from` must have a balance of at least `amount`. - the caller must have allowance for ``from``'s tokens of at least `amount`."
      },
      "transferOwnership(address)": {
        "details": "Transfers ownership of the contract to a new account (`newOwner`). Can only be called by the current owner."
      }
    },
    "version": 1
  },
  "userdoc": {
    "kind": "user",
    "methods": {},
    "version": 1
  }
}