{
  "contractName": "OLOG_ERC20",
  "abi": [
    {
      "inputs": [],
      "stateMutability": "nonpayable",
      "type": "constructor"
    },
    {
      "anonymous": false,
      "inputs": [
        {
          "indexed": true,
          "internalType": "address",
          "name": "owner",
          "type": "address"
        },
        {
          "indexed": true,
          "internalType": "address",
          "name": "spender",
          "type": "address"
        },
        {
          "indexed": false,
          "internalType": "uint256",
          "name": "value",
          "type": "uint256"
        }
      ],
      "name": "Approval",
      "type": "event"
    },
    {
      "anonymous": false,
      "inputs": [
        {
          "indexed": true,
          "internalType": "address",
          "name": "previousOwner",
          "type": "address"
        },
        {
          "indexed": true,
          "internalType": "address",
          "name": "newOwner",
          "type": "address"
        }
      ],
      "name": "OwnershipTransferred",
      "type": "event"
    },
    {
      "anonymous": false,
      "inputs": [
        {
          "indexed": true,
          "internalType": "address",
          "name": "from",
          "type": "address"
        },
        {
          "indexed": true,
          "internalType": "address",
          "name": "to",
          "type": "address"
        },
        {
          "indexed": false,
          "internalType": "uint256",
          "name": "value",
          "type": "uint256"
        }
      ],
      "name": "Transfer",
      "type": "event"
    },
    {
      "inputs": [
        {
          "internalType": "address",
          "name": "owner",
          "type": "address"
        },
        {
          "internalType": "address",
          "name": "spender",
          "type": "address"
        }
      ],
      "name": "allowance",
      "outputs": [
        {
          "internalType": "uint256",
          "name": "",
          "type": "uint256"
        }
      ],
      "stateMutability": "view",
      "type": "function",
      "constant": true
    },
    {
      "inputs": [
        {
          "internalType": "address",
          "name": "spender",
          "type": "address"
        },
        {
          "internalType": "uint256",
          "name": "amount",
          "type": "uint256"
        }
      ],
      "name": "approve",
      "outputs": [
        {
          "internalType": "bool",
          "name": "",
          "type": "bool"
        }
      ],
      "stateMutability": "nonpayable",
      "type": "function"
    },
    {
      "inputs": [
        {
          "internalType": "address",
          "name": "account",
          "type": "address"
        }
      ],
      "name": "balanceOf",
      "outputs": [
        {
          "internalType": "uint256",
          "name": "",
          "type": "uint256"
        }
      ],
      "stateMutability": "view",
      "type": "function",
      "constant": true
    },
    {
      "inputs": [],
      "name": "decimals",
      "outputs": [
        {
          "internalType": "uint8",
          "name": "",
          "type": "uint8"
        }
      ],
      "stateMutability": "view",
      "type": "function",
      "constant": true
    },
    {
      "inputs": [
        {
          "internalType": "address",
          "name": "spender",
          "type": "address"
        },
        {
          "internalType": "uint256",
          "name": "subtractedValue",
          "type": "uint256"
        }
      ],
      "name": "decreaseAllowance",
      "outputs": [
        {
          "internalType": "bool",
          "name": "",
          "type": "bool"
        }
      ],
      "stateMutability": "nonpayable",
      "type": "function"
    },
    {
      "inputs": [
        {
          "internalType": "address",
          "name": "spender",
          "type": "address"
        },
        {
          "internalType": "uint256",
          "name": "addedValue",
          "type": "uint256"
        }
      ],
      "name": "increaseAllowance",
      "outputs": [
        {
          "internalType": "bool",
          "name": "",
          "type": "bool"
        }
      ],
      "stateMutability": "nonpayable",
      "type": "function"
    },
    {
      "inputs": [],
      "name": "name",
      "outputs": [
        {
          "internalType": "string",
          "name": "",
          "type": "string"
        }
      ],
      "stateMutability": "view",
      "type": "function",
      "constant": true
    },
    {
      "inputs": [],
      "name": "owner",
      "outputs": [
        {
          "internalType": "address",
          "name": "",
          "type": "address"
        }
      ],
      "stateMutability": "view",
      "type": "function",
      "constant": true
    },
    {
      "inputs": [],
      "name": "renounceOwnership",
      "outputs": [],
      "stateMutability": "nonpayable",
      "type": "function"
    },
    {
      "inputs": [],
      "name": "symbol",
      "outputs": [
        {
          "internalType": "string",
          "name": "",
          "type": "string"
        }
      ],
      "stateMutability": "view",
      "type": "function",
      "constant": true
    },
    {
      "inputs": [],
      "name": "totalSupply",
      "outputs": [
        {
          "internalType": "uint256",
          "name": "",
          "type": "uint256"
        }
      ],
      "stateMutability": "view",
      "type": "function",
      "constant": true
    },
    {
      "inputs": [
        {
          "internalType": "address",
          "name": "to",
          "type": "address"
        },
        {
          "internalType": "uint256",
          "name": "amount",
          "type": "uint256"
        }
      ],
      "name": "transfer",
      "outputs": [
        {
          "internalType": "bool",
          "name": "",
          "type": "bool"
        }
      ],
      "stateMutability": "nonpayable",
      "type": "function"
    },
    {
      "inputs": [
        {
          "internalType": "address",
          "name": "from",
          "type": "address"
        },
        {
          "internalType": "address",
          "name": "to",
          "type": "address"
        },
        {
          "internalType": "uint256",
          "name": "amount",
          "type": "uint256"
        }
      ],
      "name": "transferFrom",
      "outputs": [
        {
          "internalType": "bool",
          "name": "",
          "type": "bool"
        }
      ],
      "stateMutability": "nonpayable",
      "type": "function"
    },
    {
      "inputs": [
        {
          "internalType": "address",
          "name": "newOwner",
          "type": "address"
        }
      ],
      "name": "transferOwnership",
      "outputs": [],
      "stateMutability": "nonpayable",
      "type": "function"
    },
    {
      "inputs": [
        {
          "internalType": "address",
          "name": "to",
          "type": "address"
        },
        {
          "internalType": "uint256",
          "name": "amount",
          "type": "uint256"
        }
      ],
      "name": "mintToken",
      "outputs": [
        {
          "internalType": "bool",
          "name": "",
          "type": "bool"
        }
      ],
      "stateMutability": "nonpayable",
      "type": "function"
    },
    {
      "inputs": [
        {
          "internalType": "address[]",
          "name": "toArr",
          "type": "address[]"
        },
        {
          "internalType": "uint256[]",
          "name": "amountArr",
          "type": "uint256[]"
        }
      ],
      "name": "multiMintToken",
      "outputs": [
        {
          "internalType": "bool",
          "name": "",
          "type": "bool"
        }
      ],
      "stateMutability": "nonpayable",
      "type": "function"
    },
    {
      "inputs": [
        {
          "internalType": "address",
          "name": "NFTAddress",
          "type": "address"
        }
      ],
      "name": "setERC721Address",
      "outputs": [
        {
          "internalType": "address",
          "name": "",
          "type": "address"
        }
      ],
      "stateMutability": "nonpayable",
      "type": "function"
    }
  ],
  "bytecode": "0x60806040523480156200001157600080fd5b506040518060400160405280600f81526020017f4f6c6f67526577617264546f6b656e00000000000000000000000000000000008152506040518060400160405280600481526020017f4f4c4f4700000000000000000000000000000000000000000000000000000000815250816003908051906020019062000096929190620001e8565b508060049080519060200190620000af929190620001e8565b505050620000d2620000c66200011a60201b60201c565b6200012260201b60201c565b6000600660006101000a81548173ffffffffffffffffffffffffffffffffffffffff021916908373ffffffffffffffffffffffffffffffffffffffff160217905550620002fd565b600033905090565b6000600560009054906101000a900473ffffffffffffffffffffffffffffffffffffffff16905081600560006101000a81548173ffffffffffffffffffffffffffffffffffffffff021916908373ffffffffffffffffffffffffffffffffffffffff1602179055508173ffffffffffffffffffffffffffffffffffffffff168173ffffffffffffffffffffffffffffffffffffffff167f8be0079c531659141344cd1fd0a4f28419497f9722a3daafe3b4186f6b6457e060405160405180910390a35050565b828054620001f69062000298565b90600052602060002090601f0160209004810192826200021a576000855562000266565b82601f106200023557805160ff191683800117855562000266565b8280016001018555821562000266579182015b828111156200026557825182559160200191906001019062000248565b5b50905062000275919062000279565b5090565b5b80821115620002945760008160009055506001016200027a565b5090565b60006002820490506001821680620002b157607f821691505b60208210811415620002c857620002c7620002ce565b5b50919050565b7f4e487b7100000000000000000000000000000000000000000000000000000000600052602260045260246000fd5b612210806200030d6000396000f3fe608060405234801561001057600080fd5b506004361061010b5760003560e01c8063715018a6116100a25780639a03d9a3116100715780639a03d9a3146102d0578063a457c2d714610300578063a9059cbb14610330578063dd62ed3e14610360578063f2fde38b146103905761010b565b8063715018a61461025a57806379c65068146102645780638da5cb5b1461029457806395d89b41146102b25761010b565b8063313ce567116100de578063313ce567146101ac57806339509351146101ca578063498eaaae146101fa57806370a082311461022a5761010b565b806306fdde0314610110578063095ea7b31461012e57806318160ddd1461015e57806323b872dd1461017c575b600080fd5b6101186103ac565b6040516101259190611e10565b60405180910390f35b610148600480360381019061014391906118c4565b61043e565b6040516101559190611df5565b60405180910390f35b610166610461565b6040516101739190611f92565b60405180910390f35b61019660048036038101906101919190611875565b61046b565b6040516101a39190611df5565b60405180910390f35b6101b461049a565b6040516101c19190611fad565b60405180910390f35b6101e460048036038101906101df91906118c4565b6104a3565b6040516101f19190611df5565b60405180910390f35b610214600480360381019061020f9190611900565b6104da565b6040516102219190611df5565b60405180910390f35b610244600480360381019061023f9190611810565b6109c7565b6040516102519190611f92565b60405180910390f35b610262610a0f565b005b61027e600480360381019061027991906118c4565b610a97565b60405161028b9190611df5565b60405180910390f35b61029c610c84565b6040516102a99190611dda565b60405180910390f35b6102ba610cae565b6040516102c79190611e10565b60405180910390f35b6102ea60048036038101906102e59190611810565b610d40565b6040516102f79190611dda565b60405180910390f35b61031a600480360381019061031591906118c4565b610e29565b6040516103279190611df5565b60405180910390f35b61034a600480360381019061034591906118c4565b610ea0565b6040516103579190611df5565b60405180910390f35b61037a60048036038101906103759190611839565b610ec3565b6040516103879190611f92565b60405180910390f35b6103aa60048036038101906103a59190611810565b610f4a565b005b6060600380546103bb906120c2565b80601f01602080910402602001604051908101604052809291908181526020018280546103e7906120c2565b80156104345780601f1061040957610100808354040283529160200191610434565b820191906000526020600020905b81548152906001019060200180831161041757829003601f168201915b5050505050905090565b600080610449611042565b905061045681858561104a565b600191505092915050565b6000600254905090565b600080610476611042565b9050610483858285611215565b61048e8585856112a1565b60019150509392505050565b60006012905090565b6000806104ae611042565b90506104cf8185856104c08589610ec3565b6104ca9190611fe4565b61104a565b600191505092915050565b60006104e4611042565b73ffffffffffffffffffffffffffffffffffffffff16610502610c84565b73ffffffffffffffffffffffffffffffffffffffff1614610558576040517f08c379a000000000000000000000000000000000000000000000000000000000815260040161054f90611ef2565b60405180910390fd5b82829050858590501461056a57600080fd5b60005b858590508110156109ba57600073ffffffffffffffffffffffffffffffffffffffff16600660009054906101000a900473ffffffffffffffffffffffffffffffffffffffff1673ffffffffffffffffffffffffffffffffffffffff16141561060a576040517f08c379a000000000000000000000000000000000000000000000000000000000815260040161060190611e92565b60405180910390fd5b600073ffffffffffffffffffffffffffffffffffffffff1686868381811061065b577f4e487b7100000000000000000000000000000000000000000000000000000000600052603260045260246000fd5b90506020020160208101906106709190611810565b73ffffffffffffffffffffffffffffffffffffffff16141561069157600080fd5b60008484838181106106cc577f4e487b7100000000000000000000000000000000000000000000000000000000600052603260045260246000fd5b90506020020135116106dd57600080fd5b610773868683818110610719577f4e487b7100000000000000000000000000000000000000000000000000000000600052603260045260246000fd5b905060200201602081019061072e9190611810565b858584818110610767577f4e487b7100000000000000000000000000000000000000000000000000000000600052603260045260246000fd5b90506020020135611522565b61086b8686838181106107af577f4e487b7100000000000000000000000000000000000000000000000000000000600052603260045260246000fd5b90506020020160208101906107c49190611810565b338686858181106107fe577f4e487b7100000000000000000000000000000000000000000000000000000000600052603260045260246000fd5b9050602002013561085c8a8a87818110610841577f4e487b7100000000000000000000000000000000000000000000000000000000600052603260045260246000fd5b90506020020160208101906108569190611810565b33610ec3565b6108669190611fe4565b61104a565b6109a78686838181106108a7577f4e487b7100000000000000000000000000000000000000000000000000000000600052603260045260246000fd5b90506020020160208101906108bc9190611810565b600660009054906101000a900473ffffffffffffffffffffffffffffffffffffffff16868685818110610918577f4e487b7100000000000000000000000000000000000000000000000000000000600052603260045260246000fd5b905060200201356109988a8a8781811061095b577f4e487b7100000000000000000000000000000000000000000000000000000000600052603260045260246000fd5b90506020020160208101906109709190611810565b600660009054906101000a900473ffffffffffffffffffffffffffffffffffffffff16610ec3565b6109a29190611fe4565b61104a565b80806109b2906120f4565b91505061056d565b5060019050949350505050565b60008060008373ffffffffffffffffffffffffffffffffffffffff1673ffffffffffffffffffffffffffffffffffffffff168152602001908152602001600020549050919050565b610a17611042565b73ffffffffffffffffffffffffffffffffffffffff16610a35610c84565b73ffffffffffffffffffffffffffffffffffffffff1614610a8b576040517f08c379a0000000000000000000000000000000000000000000000000000000008152600401610a8290611ef2565b60405180910390fd5b610a956000611682565b565b6000610aa1611042565b73ffffffffffffffffffffffffffffffffffffffff16610abf610c84565b73ffffffffffffffffffffffffffffffffffffffff1614610b15576040517f08c379a0000000000000000000000000000000000000000000000000000000008152600401610b0c90611ef2565b60405180910390fd5b600073ffffffffffffffffffffffffffffffffffffffff16600660009054906101000a900473ffffffffffffffffffffffffffffffffffffffff1673ffffffffffffffffffffffffffffffffffffffff161415610ba7576040517f08c379a0000000000000000000000000000000000000000000000000000000008152600401610b9e90611e92565b60405180910390fd5b600073ffffffffffffffffffffffffffffffffffffffff168373ffffffffffffffffffffffffffffffffffffffff161415610be157600080fd5b60008211610bee57600080fd5b610bf88383611522565b610c17833384610c088733610ec3565b610c129190611fe4565b61104a565b610c7a83600660009054906101000a900473ffffffffffffffffffffffffffffffffffffffff1684610c6b87600660009054906101000a900473ffffffffffffffffffffffffffffffffffffffff16610ec3565b610c759190611fe4565b61104a565b6001905092915050565b6000600560009054906101000a900473ffffffffffffffffffffffffffffffffffffffff16905090565b606060048054610cbd906120c2565b80601f0160208091040260200160405190810160405280929190818152602001828054610ce9906120c2565b8015610d365780601f10610d0b57610100808354040283529160200191610d36565b820191906000526020600020905b815481529060010190602001808311610d1957829003601f168201915b5050505050905090565b6000610d4a611042565b73ffffffffffffffffffffffffffffffffffffffff16610d68610c84565b73ffffffffffffffffffffffffffffffffffffffff1614610dbe576040517f08c379a0000000000000000000000000000000000000000000000000000000008152600401610db590611ef2565b60405180910390fd5b81600660006101000a81548173ffffffffffffffffffffffffffffffffffffffff021916908373ffffffffffffffffffffffffffffffffffffffff160217905550600660009054906101000a900473ffffffffffffffffffffffffffffffffffffffff169050919050565b600080610e34611042565b90506000610e428286610ec3565b905083811015610e87576040517f08c379a0000000000000000000000000000000000000000000000000000000008152600401610e7e90611f52565b60405180910390fd5b610e94828686840361104a565b60019250505092915050565b600080610eab611042565b9050610eb88185856112a1565b600191505092915050565b6000600160008473ffffffffffffffffffffffffffffffffffffffff1673ffffffffffffffffffffffffffffffffffffffff16815260200190815260200160002060008373ffffffffffffffffffffffffffffffffffffffff1673ffffffffffffffffffffffffffffffffffffffff16815260200190815260200160002054905092915050565b610f52611042565b73ffffffffffffffffffffffffffffffffffffffff16610f70610c84565b73ffffffffffffffffffffffffffffffffffffffff1614610fc6576040517f08c379a0000000000000000000000000000000000000000000000000000000008152600401610fbd90611ef2565b60405180910390fd5b600073ffffffffffffffffffffffffffffffffffffffff168173ffffffffffffffffffffffffffffffffffffffff161415611036576040517f08c379a000000000000000000000000000000000000000000000000000000000815260040161102d90611e52565b60405180910390fd5b61103f81611682565b50565b600033905090565b600073ffffffffffffffffffffffffffffffffffffffff168373ffffffffffffffffffffffffffffffffffffffff1614156110ba576040517f08c379a00000000000000000000000000000000000000000000000000000000081526004016110b190611f32565b60405180910390fd5b600073ffffffffffffffffffffffffffffffffffffffff168273ffffffffffffffffffffffffffffffffffffffff16141561112a576040517f08c379a000000000000000000000000000000000000000000000000000000000815260040161112190611e72565b60405180910390fd5b80600160008573ffffffffffffffffffffffffffffffffffffffff1673ffffffffffffffffffffffffffffffffffffffff16815260200190815260200160002060008473ffffffffffffffffffffffffffffffffffffffff1673ffffffffffffffffffffffffffffffffffffffff168152602001908152602001600020819055508173ffffffffffffffffffffffffffffffffffffffff168373ffffffffffffffffffffffffffffffffffffffff167f8c5be1e5ebec7d5bd14f71427d1e84f3dd0314c0f7b2291e5b200ac8c7c3b925836040516112089190611f92565b60405180910390a3505050565b60006112218484610ec3565b90507fffffffffffffffffffffffffffffffffffffffffffffffffffffffffffffffff811461129b578181101561128d576040517f08c379a000000000000000000000000000000000000000000000000000000000815260040161128490611eb2565b60405180910390fd5b61129a848484840361104a565b5b50505050565b600073ffffffffffffffffffffffffffffffffffffffff168373ffffffffffffffffffffffffffffffffffffffff161415611311576040517f08c379a000000000000000000000000000000000000000000000000000000000815260040161130890611f12565b60405180910390fd5b600073ffffffffffffffffffffffffffffffffffffffff168273ffffffffffffffffffffffffffffffffffffffff161415611381576040517f08c379a000000000000000000000000000000000000000000000000000000000815260040161137890611e32565b60405180910390fd5b61138c838383611748565b60008060008573ffffffffffffffffffffffffffffffffffffffff1673ffffffffffffffffffffffffffffffffffffffff16815260200190815260200160002054905081811015611412576040517f08c379a000000000000000000000000000000000000000000000000000000000815260040161140990611ed2565b60405180910390fd5b8181036000808673ffffffffffffffffffffffffffffffffffffffff1673ffffffffffffffffffffffffffffffffffffffff16815260200190815260200160002081905550816000808573ffffffffffffffffffffffffffffffffffffffff1673ffffffffffffffffffffffffffffffffffffffff16815260200190815260200160002060008282546114a59190611fe4565b925050819055508273ffffffffffffffffffffffffffffffffffffffff168473ffffffffffffffffffffffffffffffffffffffff167fddf252ad1be2c89b69c2b068fc378daa952ba7f163c4a11628f55a4df523b3ef846040516115099190611f92565b60405180910390a361151c84848461174d565b50505050565b600073ffffffffffffffffffffffffffffffffffffffff168273ffffffffffffffffffffffffffffffffffffffff161415611592576040517f08c379a000000000000000000000000000000000000000000000000000000000815260040161158990611f72565b60405180910390fd5b61159e60008383611748565b80600260008282546115b09190611fe4565b92505081905550806000808473ffffffffffffffffffffffffffffffffffffffff1673ffffffffffffffffffffffffffffffffffffffff16815260200190815260200160002060008282546116059190611fe4565b925050819055508173ffffffffffffffffffffffffffffffffffffffff16600073ffffffffffffffffffffffffffffffffffffffff167fddf252ad1be2c89b69c2b068fc378daa952ba7f163c4a11628f55a4df523b3ef8360405161166a9190611f92565b60405180910390a361167e6000838361174d565b5050565b6000600560009054906101000a900473ffffffffffffffffffffffffffffffffffffffff16905081600560006101000a81548173ffffffffffffffffffffffffffffffffffffffff021916908373ffffffffffffffffffffffffffffffffffffffff1602179055508173ffffffffffffffffffffffffffffffffffffffff168173ffffffffffffffffffffffffffffffffffffffff167f8be0079c531659141344cd1fd0a4f28419497f9722a3daafe3b4186f6b6457e060405160405180910390a35050565b505050565b505050565b600081359050611761816121ac565b92915050565b60008083601f84011261177957600080fd5b8235905067ffffffffffffffff81111561179257600080fd5b6020830191508360208202830111156117aa57600080fd5b9250929050565b60008083601f8401126117c357600080fd5b8235905067ffffffffffffffff8111156117dc57600080fd5b6020830191508360208202830111156117f457600080fd5b9250929050565b60008135905061180a816121c3565b92915050565b60006020828403121561182257600080fd5b600061183084828501611752565b91505092915050565b6000806040838503121561184c57600080fd5b600061185a85828601611752565b925050602061186b85828601611752565b9150509250929050565b60008060006060848603121561188a57600080fd5b600061189886828701611752565b93505060206118a986828701611752565b92505060406118ba868287016117fb565b9150509250925092565b600080604083850312156118d757600080fd5b60006118e585828601611752565b92505060206118f6858286016117fb565b9150509250929050565b6000806000806040858703121561191657600080fd5b600085013567ffffffffffffffff81111561193057600080fd5b61193c87828801611767565b9450945050602085013567ffffffffffffffff81111561195b57600080fd5b611967878288016117b1565b925092505092959194509250565b61197e8161203a565b82525050565b61198d8161204c565b82525050565b600061199e82611fc8565b6119a88185611fd3565b93506119b881856020860161208f565b6119c18161219b565b840191505092915050565b60006119d9602383611fd3565b91507f45524332303a207472616e7366657220746f20746865207a65726f206164647260008301527f65737300000000000000000000000000000000000000000000000000000000006020830152604082019050919050565b6000611a3f602683611fd3565b91507f4f776e61626c653a206e6577206f776e657220697320746865207a65726f206160008301527f64647265737300000000000000000000000000000000000000000000000000006020830152604082019050919050565b6000611aa5602283611fd3565b91507f45524332303a20617070726f766520746f20746865207a65726f20616464726560008301527f73730000000000000000000000000000000000000000000000000000000000006020830152604082019050919050565b6000611b0b602583611fd3565b91507f506c6561736520736574204e465420436f6e747261637420416464726573732060008301527f46697273740000000000000000000000000000000000000000000000000000006020830152604082019050919050565b6000611b71601d83611fd3565b91507f45524332303a20696e73756666696369656e7420616c6c6f77616e63650000006000830152602082019050919050565b6000611bb1602683611fd3565b91507f45524332303a207472616e7366657220616d6f756e742065786365656473206260008301527f616c616e636500000000000000000000000000000000000000000000000000006020830152604082019050919050565b6000611c17602083611fd3565b91507f4f776e61626c653a2063616c6c6572206973206e6f7420746865206f776e65726000830152602082019050919050565b6000611c57602583611fd3565b91507f45524332303a207472616e736665722066726f6d20746865207a65726f20616460008301527f64726573730000000000000000000000000000000000000000000000000000006020830152604082019050919050565b6000611cbd602483611fd3565b91507f45524332303a20617070726f76652066726f6d20746865207a65726f2061646460008301527f72657373000000000000000000000000000000000000000000000000000000006020830152604082019050919050565b6000611d23602583611fd3565b91507f45524332303a2064656372656173656420616c6c6f77616e63652062656c6f7760008301527f207a65726f0000000000000000000000000000000000000000000000000000006020830152604082019050919050565b6000611d89601f83611fd3565b91507f45524332303a206d696e7420746f20746865207a65726f2061646472657373006000830152602082019050919050565b611dc581612078565b82525050565b611dd481612082565b82525050565b6000602082019050611def6000830184611975565b92915050565b6000602082019050611e0a6000830184611984565b92915050565b60006020820190508181036000830152611e2a8184611993565b905092915050565b60006020820190508181036000830152611e4b816119cc565b9050919050565b60006020820190508181036000830152611e6b81611a32565b9050919050565b60006020820190508181036000830152611e8b81611a98565b9050919050565b60006020820190508181036000830152611eab81611afe565b9050919050565b60006020820190508181036000830152611ecb81611b64565b9050919050565b60006020820190508181036000830152611eeb81611ba4565b9050919050565b60006020820190508181036000830152611f0b81611c0a565b9050919050565b60006020820190508181036000830152611f2b81611c4a565b9050919050565b60006020820190508181036000830152611f4b81611cb0565b9050919050565b60006020820190508181036000830152611f6b81611d16565b9050919050565b60006020820190508181036000830152611f8b81611d7c565b9050919050565b6000602082019050611fa76000830184611dbc565b92915050565b6000602082019050611fc26000830184611dcb565b92915050565b600081519050919050565b600082825260208201905092915050565b6000611fef82612078565b9150611ffa83612078565b9250827fffffffffffffffffffffffffffffffffffffffffffffffffffffffffffffffff0382111561202f5761202e61213d565b5b828201905092915050565b600061204582612058565b9050919050565b60008115159050919050565b600073ffffffffffffffffffffffffffffffffffffffff82169050919050565b6000819050919050565b600060ff82169050919050565b60005b838110156120ad578082015181840152602081019050612092565b838111156120bc576000848401525b50505050565b600060028204905060018216806120da57607f821691505b602082108114156120ee576120ed61216c565b5b50919050565b60006120ff82612078565b91507fffffffffffffffffffffffffffffffffffffffffffffffffffffffffffffffff8214156121325761213161213d565b5b600182019050919050565b7f4e487b7100000000000000000000000000000000000000000000000000000000600052601160045260246000fd5b7f4e487b7100000000000000000000000000000000000000000000000000000000600052602260045260246000fd5b6000601f19601f8301169050919050565b6121b58161203a565b81146121c057600080fd5b50565b6121cc81612078565b81146121d757600080fd5b5056fea26469706673582212204a94a11d61e326481004d2f3f263ec24dd484db135dde6ad8756945cd5f6119b64736f6c63430008000033",
  "immutableReferences": {},
  "source": "// SPDX-License-Identifier: GPL-3.0\npragma solidity >=0.4.22 <0.9.0;\n\nimport \"openzeppelin-solidity/contracts/token/ERC20/ERC20.sol\";\nimport \"openzeppelin-solidity/contracts/access/Ownable.sol\";\nimport \"openzeppelin-solidity/contracts/token/ERC721/extensions/IERC721Metadata.sol\";\n\ncontract OLOG_ERC20 is ERC20, Ownable {\n    address NFTContract;\n\n    constructor() ERC20(\"OlogRewardToken\", \"OLOG\") {\n        NFTContract = address(0x0);\n    }\n\n    function mintToken(address to, uint256 amount) public onlyOwner returns (bool){\n        require(NFTContract != address(0x0), \"Please set NFT Contract Address First\");\n        require(to != address(0x0));\n        require(amount > 0);\n        _mint(to, amount);\n        _approve(to, msg.sender, allowance(to, msg.sender) + amount);\n        _approve(to, NFTContract, allowance(to, NFTContract) + amount);\n\n        return true;\n    }\n\n    function multiMintToken(address[] calldata toArr, uint256[] calldata amountArr) public onlyOwner returns (bool){\n\trequire(toArr.length == amountArr.length);\n\tfor(uint256 i = 0; i < toArr.length; i++) {\n        require(NFTContract != address(0x0), \"Please set NFT Contract Address First\");\n\t    require(toArr[i] != address(0x0));\n\t    require(amountArr[i] > 0);\n\t    _mint(toArr[i], amountArr[i]);\n\t    _approve(toArr[i], msg.sender, allowance(toArr[i], msg.sender) + amountArr[i]);\n        _approve(toArr[i], NFTContract, allowance(toArr[i], NFTContract) + amountArr[i]);\n\n\t}\n\treturn true;\n}\n    function setERC721Address(address NFTAddress) public onlyOwner returns (address) {\n        NFTContract = NFTAddress;\n        return NFTContract;\n    }\n\n}",
  "sourcePath": "/home/matt7003/codestates/2_proj/beb-04-O_log/OLOG_SERVER/truffle/contracts/ERC20Project.sol",
  "compiler": {
    "name": "solc",
    "version": "0.8.0+commit.c7dfd78e.Emscripten.clang"
  },
  "schemaVersion": "3.4.7",
  "updatedAt": "2022-06-29T00:28:07.170Z",
  "networkType": "ethereum",
  "devdoc": {
    "kind": "dev",
    "methods": {
      "allowance(address,address)": {
        "details": "See {IERC20-allowance}."
      },
      "approve(address,uint256)": {
        "details": "See {IERC20-approve}. NOTE: If `amount` is the maximum `uint256`, the allowance is not updated on `transferFrom`. This is semantically equivalent to an infinite approval. Requirements: - `spender` cannot be the zero address."
      },
      "balanceOf(address)": {
        "details": "See {IERC20-balanceOf}."
      },
      "decimals()": {
        "details": "Returns the number of decimals used to get its user representation. For example, if `decimals` equals `2`, a balance of `505` tokens should be displayed to a user as `5.05` (`505 / 10 ** 2`). Tokens usually opt for a value of 18, imitating the relationship between Ether and Wei. This is the value {ERC20} uses, unless this function is overridden; NOTE: This information is only used for _display_ purposes: it in no way affects any of the arithmetic of the contract, including {IERC20-balanceOf} and {IERC20-transfer}."
      },
      "decreaseAllowance(address,uint256)": {
        "details": "Atomically decreases the allowance granted to `spender` by the caller. This is an alternative to {approve} that can be used as a mitigation for problems described in {IERC20-approve}. Emits an {Approval} event indicating the updated allowance. Requirements: - `spender` cannot be the zero address. - `spender` must have allowance for the caller of at least `subtractedValue`."
      },
      "increaseAllowance(address,uint256)": {
        "details": "Atomically increases the allowance granted to `spender` by the caller. This is an alternative to {approve} that can be used as a mitigation for problems described in {IERC20-approve}. Emits an {Approval} event indicating the updated allowance. Requirements: - `spender` cannot be the zero address."
      },
      "name()": {
        "details": "Returns the name of the token."
      },
      "owner()": {
        "details": "Returns the address of the current owner."
      },
      "renounceOwnership()": {
        "details": "Leaves the contract without owner. It will not be possible to call `onlyOwner` functions anymore. Can only be called by the current owner. NOTE: Renouncing ownership will leave the contract without an owner, thereby removing any functionality that is only available to the owner."
      },
      "symbol()": {
        "details": "Returns the symbol of the token, usually a shorter version of the name."
      },
      "totalSupply()": {
        "details": "See {IERC20-totalSupply}."
      },
      "transfer(address,uint256)": {
        "details": "See {IERC20-transfer}. Requirements: - `to` cannot be the zero address. - the caller must have a balance of at least `amount`."
      },
      "transferFrom(address,address,uint256)": {
        "details": "See {IERC20-transferFrom}. Emits an {Approval} event indicating the updated allowance. This is not required by the EIP. See the note at the beginning of {ERC20}. NOTE: Does not update the allowance if the current allowance is the maximum `uint256`. Requirements: - `from` and `to` cannot be the zero address. - `from` must have a balance of at least `amount`. - the caller must have allowance for ``from``'s tokens of at least `amount`."
      },
      "transferOwnership(address)": {
        "details": "Transfers ownership of the contract to a new account (`newOwner`). Can only be called by the current owner."
      }
    },
    "version": 1
  },
  "userdoc": {
    "kind": "user",
    "methods": {},
    "version": 1
  }
}