{
  "contractName": "OLOG_ERC721",
  "abi": [
    {
      "inputs": [],
      "stateMutability": "nonpayable",
      "type": "constructor"
    },
    {
      "anonymous": false,
      "inputs": [
        {
          "indexed": true,
          "internalType": "address",
          "name": "owner",
          "type": "address"
        },
        {
          "indexed": true,
          "internalType": "address",
          "name": "approved",
          "type": "address"
        },
        {
          "indexed": true,
          "internalType": "uint256",
          "name": "tokenId",
          "type": "uint256"
        }
      ],
      "name": "Approval",
      "type": "event"
    },
    {
      "anonymous": false,
      "inputs": [
        {
          "indexed": true,
          "internalType": "address",
          "name": "owner",
          "type": "address"
        },
        {
          "indexed": true,
          "internalType": "address",
          "name": "operator",
          "type": "address"
        },
        {
          "indexed": false,
          "internalType": "bool",
          "name": "approved",
          "type": "bool"
        }
      ],
      "name": "ApprovalForAll",
      "type": "event"
    },
    {
      "anonymous": false,
      "inputs": [
        {
          "indexed": true,
          "internalType": "address",
          "name": "previousOwner",
          "type": "address"
        },
        {
          "indexed": true,
          "internalType": "address",
          "name": "newOwner",
          "type": "address"
        }
      ],
      "name": "OwnershipTransferred",
      "type": "event"
    },
    {
      "anonymous": false,
      "inputs": [
        {
          "indexed": false,
          "internalType": "address",
          "name": "buyer",
          "type": "address"
        },
        {
          "indexed": false,
          "internalType": "address",
          "name": "seller",
          "type": "address"
        },
        {
          "indexed": false,
          "internalType": "uint256",
          "name": "price",
          "type": "uint256"
        }
      ],
      "name": "Sold",
      "type": "event"
    },
    {
      "anonymous": false,
      "inputs": [
        {
          "indexed": true,
          "internalType": "address",
          "name": "from",
          "type": "address"
        },
        {
          "indexed": true,
          "internalType": "address",
          "name": "to",
          "type": "address"
        },
        {
          "indexed": true,
          "internalType": "uint256",
          "name": "tokenId",
          "type": "uint256"
        }
      ],
      "name": "Transfer",
      "type": "event"
    },
    {
      "anonymous": false,
      "inputs": [
        {
          "indexed": false,
          "internalType": "uint256",
          "name": "tokenId",
          "type": "uint256"
        },
        {
          "indexed": false,
          "internalType": "uint256",
          "name": "reward_factor",
          "type": "uint256"
        },
        {
          "indexed": false,
          "internalType": "bool",
          "name": "success",
          "type": "bool"
        }
      ],
      "name": "Upgrade",
      "type": "event"
    },
    {
      "inputs": [
        {
          "internalType": "address",
          "name": "to",
          "type": "address"
        },
        {
          "internalType": "uint256",
          "name": "tokenId",
          "type": "uint256"
        }
      ],
      "name": "approve",
      "outputs": [],
      "stateMutability": "nonpayable",
      "type": "function"
    },
    {
      "inputs": [
        {
          "internalType": "address",
          "name": "owner",
          "type": "address"
        }
      ],
      "name": "balanceOf",
      "outputs": [
        {
          "internalType": "uint256",
          "name": "",
          "type": "uint256"
        }
      ],
      "stateMutability": "view",
      "type": "function",
      "constant": true
    },
    {
      "inputs": [
        {
          "internalType": "uint256",
          "name": "tokenId",
          "type": "uint256"
        }
      ],
      "name": "getApproved",
      "outputs": [
        {
          "internalType": "address",
          "name": "",
          "type": "address"
        }
      ],
      "stateMutability": "view",
      "type": "function",
      "constant": true
    },
    {
      "inputs": [
        {
          "internalType": "address",
          "name": "owner",
          "type": "address"
        },
        {
          "internalType": "address",
          "name": "operator",
          "type": "address"
        }
      ],
      "name": "isApprovedForAll",
      "outputs": [
        {
          "internalType": "bool",
          "name": "",
          "type": "bool"
        }
      ],
      "stateMutability": "view",
      "type": "function",
      "constant": true
    },
    {
      "inputs": [],
      "name": "name",
      "outputs": [
        {
          "internalType": "string",
          "name": "",
          "type": "string"
        }
      ],
      "stateMutability": "view",
      "type": "function",
      "constant": true
    },
    {
      "inputs": [],
      "name": "owner",
      "outputs": [
        {
          "internalType": "address",
          "name": "",
          "type": "address"
        }
      ],
      "stateMutability": "view",
      "type": "function",
      "constant": true
    },
    {
      "inputs": [
        {
          "internalType": "uint256",
          "name": "tokenId",
          "type": "uint256"
        }
      ],
      "name": "ownerOf",
      "outputs": [
        {
          "internalType": "address",
          "name": "",
          "type": "address"
        }
      ],
      "stateMutability": "view",
      "type": "function",
      "constant": true
    },
    {
      "inputs": [],
      "name": "renounceOwnership",
      "outputs": [],
      "stateMutability": "nonpayable",
      "type": "function"
    },
    {
      "inputs": [
        {
          "internalType": "uint256",
          "name": "",
          "type": "uint256"
        }
      ],
      "name": "reward_factor",
      "outputs": [
        {
          "internalType": "uint256",
          "name": "",
          "type": "uint256"
        }
      ],
      "stateMutability": "view",
      "type": "function",
      "constant": true
    },
    {
      "inputs": [
        {
          "internalType": "address",
          "name": "from",
          "type": "address"
        },
        {
          "internalType": "address",
          "name": "to",
          "type": "address"
        },
        {
          "internalType": "uint256",
          "name": "tokenId",
          "type": "uint256"
        }
      ],
      "name": "safeTransferFrom",
      "outputs": [],
      "stateMutability": "nonpayable",
      "type": "function"
    },
    {
      "inputs": [
        {
          "internalType": "address",
          "name": "from",
          "type": "address"
        },
        {
          "internalType": "address",
          "name": "to",
          "type": "address"
        },
        {
          "internalType": "uint256",
          "name": "tokenId",
          "type": "uint256"
        },
        {
          "internalType": "bytes",
          "name": "_data",
          "type": "bytes"
        }
      ],
      "name": "safeTransferFrom",
      "outputs": [],
      "stateMutability": "nonpayable",
      "type": "function"
    },
    {
      "inputs": [
        {
          "internalType": "address",
          "name": "operator",
          "type": "address"
        },
        {
          "internalType": "bool",
          "name": "approved",
          "type": "bool"
        }
      ],
      "name": "setApprovalForAll",
      "outputs": [],
      "stateMutability": "nonpayable",
      "type": "function"
    },
    {
      "inputs": [
        {
          "internalType": "bytes4",
          "name": "interfaceId",
          "type": "bytes4"
        }
      ],
      "name": "supportsInterface",
      "outputs": [
        {
          "internalType": "bool",
          "name": "",
          "type": "bool"
        }
      ],
      "stateMutability": "view",
      "type": "function",
      "constant": true
    },
    {
      "inputs": [],
      "name": "symbol",
      "outputs": [
        {
          "internalType": "string",
          "name": "",
          "type": "string"
        }
      ],
      "stateMutability": "view",
      "type": "function",
      "constant": true
    },
    {
      "inputs": [
        {
          "internalType": "uint256",
          "name": "tokenId",
          "type": "uint256"
        }
      ],
      "name": "tokenURI",
      "outputs": [
        {
          "internalType": "string",
          "name": "",
          "type": "string"
        }
      ],
      "stateMutability": "view",
      "type": "function",
      "constant": true
    },
    {
      "inputs": [
        {
          "internalType": "address",
          "name": "from",
          "type": "address"
        },
        {
          "internalType": "address",
          "name": "to",
          "type": "address"
        },
        {
          "internalType": "uint256",
          "name": "tokenId",
          "type": "uint256"
        }
      ],
      "name": "transferFrom",
      "outputs": [],
      "stateMutability": "nonpayable",
      "type": "function"
    },
    {
      "inputs": [
        {
          "internalType": "address",
          "name": "newOwner",
          "type": "address"
        }
      ],
      "name": "transferOwnership",
      "outputs": [],
      "stateMutability": "nonpayable",
      "type": "function"
    },
    {
      "inputs": [
        {
          "internalType": "address",
          "name": "recipient",
          "type": "address"
        },
        {
          "internalType": "string",
          "name": "tokenURI",
          "type": "string"
        }
      ],
      "name": "mintNFT",
      "outputs": [
        {
          "internalType": "uint256",
          "name": "",
          "type": "uint256"
        }
      ],
      "stateMutability": "nonpayable",
      "type": "function"
    },
    {
      "inputs": [
        {
          "internalType": "address",
          "name": "tokenAddress",
          "type": "address"
        }
      ],
      "name": "setERC20Address",
      "outputs": [
        {
          "internalType": "bool",
          "name": "",
          "type": "bool"
        }
      ],
      "stateMutability": "nonpayable",
      "type": "function"
    },
    {
      "inputs": [
        {
          "internalType": "address",
          "name": "buyer",
          "type": "address"
        },
        {
          "internalType": "address",
          "name": "seller",
          "type": "address"
        },
        {
          "internalType": "uint256",
          "name": "tokenId",
          "type": "uint256"
        },
        {
          "internalType": "uint256",
          "name": "tokenPaid",
          "type": "uint256"
        }
      ],
      "name": "UserNFTSold",
      "outputs": [
        {
          "internalType": "bool",
          "name": "",
          "type": "bool"
        }
      ],
      "stateMutability": "nonpayable",
      "type": "function"
    },
    {
      "inputs": [],
      "name": "totalSupply",
      "outputs": [
        {
          "internalType": "uint256",
          "name": "",
          "type": "uint256"
        }
      ],
      "stateMutability": "view",
      "type": "function",
      "constant": true
    },
    {
      "inputs": [
        {
          "internalType": "address",
          "name": "owner",
          "type": "address"
        },
        {
          "internalType": "uint256",
          "name": "tokenId",
          "type": "uint256"
        }
      ],
      "name": "upgradeNFT",
      "outputs": [
        {
          "internalType": "uint256",
          "name": "",
          "type": "uint256"
        }
      ],
      "stateMutability": "nonpayable",
      "type": "function"
    },
    {
      "inputs": [
        {
          "internalType": "uint256",
          "name": "tokenId",
          "type": "uint256"
        }
      ],
      "name": "rewardFactorOf",
      "outputs": [
        {
          "internalType": "uint256",
          "name": "",
          "type": "uint256"
        }
      ],
      "stateMutability": "view",
      "type": "function",
      "constant": true
    }
  ],
  "bytecode": "0x60806040523480156200001157600080fd5b506040518060400160405280600881526020017f4f6c6f674e4654730000000000000000000000000000000000000000000000008152506040518060400160405280600481526020017f4f4c4f4700000000000000000000000000000000000000000000000000000000815250816000908051906020019062000096929190620001b6565b508060019080519060200190620000af929190620001b6565b505050620000d2620000c6620000e860201b60201c565b620000f060201b60201c565b6064600a819055506001600b81905550620002ca565b600033905090565b6000600760009054906101000a900473ffffffffffffffffffffffffffffffffffffffff16905081600760006101000a81548173ffffffffffffffffffffffffffffffffffffffff021916908373ffffffffffffffffffffffffffffffffffffffff1602179055508173ffffffffffffffffffffffffffffffffffffffff168173ffffffffffffffffffffffffffffffffffffffff167f8be0079c531659141344cd1fd0a4f28419497f9722a3daafe3b4186f6b6457e060405160405180910390a35050565b828054620001c49062000295565b90600052602060002090601f016020900481019282620001e8576000855562000234565b82601f106200020357805160ff191683800117855562000234565b8280016001018555821562000234579182015b828111156200023357825182559160200191906001019062000216565b5b50905062000243919062000247565b5090565b5b808211156200026257600081600090555060010162000248565b5090565b7f4e487b7100000000000000000000000000000000000000000000000000000000600052602260045260246000fd5b60006002820490506001821680620002ae57607f821691505b602082108103620002c457620002c362000266565b5b50919050565b61448480620002da6000396000f3fe608060405234801561001057600080fd5b506004361061014d5760003560e01c806376a89298116100c3578063b88d4fde1161007c578063b88d4fde146103c4578063c87b56dd146103e0578063d3b3b7f914610410578063e985e9c514610440578063eacabe1414610470578063f2fde38b146104a05761014d565b806376a89298146102dc57806383f262051461030c5780638da5cb5b1461033c57806395d89b411461035a57806397c0ae5314610378578063a22cb465146103a85761014d565b806323b872dd1161011557806323b872dd1461020a57806341bec0d21461022657806342842e0e146102565780636352211e1461027257806370a08231146102a2578063715018a6146102d25761014d565b806301ffc9a71461015257806306fdde0314610182578063081812fc146101a0578063095ea7b3146101d057806318160ddd146101ec575b600080fd5b61016c60048036038101906101679190612b05565b6104bc565b6040516101799190612b4d565b60405180910390f35b61018a61059e565b6040516101979190612c01565b60405180910390f35b6101ba60048036038101906101b59190612c59565b610630565b6040516101c79190612cc7565b60405180910390f35b6101ea60048036038101906101e59190612d0e565b6106b5565b005b6101f46107cc565b6040516102019190612d5d565b60405180910390f35b610224600480360381019061021f9190612d78565b6107dd565b005b610240600480360381019061023b9190612dcb565b61083d565b60405161024d9190612b4d565b60405180910390f35b610270600480360381019061026b9190612d78565b61093e565b005b61028c60048036038101906102879190612c59565b61095e565b6040516102999190612cc7565b60405180910390f35b6102bc60048036038101906102b79190612dcb565b610a0f565b6040516102c99190612d5d565b60405180910390f35b6102da610ac6565b005b6102f660048036038101906102f19190612c59565b610b4e565b6040516103039190612d5d565b60405180910390f35b61032660048036038101906103219190612df8565b610b6b565b6040516103339190612b4d565b60405180910390f35b610344610e32565b6040516103519190612cc7565b60405180910390f35b610362610e5c565b60405161036f9190612c01565b60405180910390f35b610392600480360381019061038d9190612c59565b610eee565b60405161039f9190612d5d565b60405180910390f35b6103c260048036038101906103bd9190612e8b565b610f06565b005b6103de60048036038101906103d99190613000565b610f1c565b005b6103fa60048036038101906103f59190612c59565b610f7e565b6040516104079190612c01565b60405180910390f35b61042a60048036038101906104259190612d0e565b6110cf565b6040516104379190612d5d565b60405180910390f35b61045a60048036038101906104559190613083565b6116d8565b6040516104679190612b4d565b60405180910390f35b61048a60048036038101906104859190613164565b61176c565b6040516104979190612d5d565b60405180910390f35b6104ba60048036038101906104b59190612dcb565b611ae4565b005b60007f80ac58cd000000000000000000000000000000000000000000000000000000007bffffffffffffffffffffffffffffffffffffffffffffffffffffffff1916827bffffffffffffffffffffffffffffffffffffffffffffffffffffffff1916148061058757507f5b5e139f000000000000000000000000000000000000000000000000000000007bffffffffffffffffffffffffffffffffffffffffffffffffffffffff1916827bffffffffffffffffffffffffffffffffffffffffffffffffffffffff1916145b80610597575061059682611bdb565b5b9050919050565b6060600080546105ad906131ef565b80601f01602080910402602001604051908101604052809291908181526020018280546105d9906131ef565b80156106265780601f106105fb57610100808354040283529160200191610626565b820191906000526020600020905b81548152906001019060200180831161060957829003601f168201915b5050505050905090565b600061063b82611c45565b61067a576040517f08c379a000000000000000000000000000000000000000000000000000000000815260040161067190613292565b60405180910390fd5b6004600083815260200190815260200160002060009054906101000a900473ffffffffffffffffffffffffffffffffffffffff169050919050565b60006106c08261095e565b90508073ffffffffffffffffffffffffffffffffffffffff168373ffffffffffffffffffffffffffffffffffffffff1603610730576040517f08c379a000000000000000000000000000000000000000000000000000000000815260040161072790613324565b60405180910390fd5b8073ffffffffffffffffffffffffffffffffffffffff1661074f611cb1565b73ffffffffffffffffffffffffffffffffffffffff16148061077e575061077d81610778611cb1565b6116d8565b5b6107bd576040517f08c379a00000000000000000000000000000000000000000000000000000000081526004016107b4906133b6565b60405180910390fd5b6107c78383611cb9565b505050565b60006107d86008611d72565b905090565b6107ee6107e8611cb1565b82611d80565b61082d576040517f08c379a000000000000000000000000000000000000000000000000000000000815260040161082490613448565b60405180910390fd5b610838838383611e5e565b505050565b6000610847611cb1565b73ffffffffffffffffffffffffffffffffffffffff16610865610e32565b73ffffffffffffffffffffffffffffffffffffffff16146108bb576040517f08c379a00000000000000000000000000000000000000000000000000000000081526004016108b2906134b4565b60405180910390fd5b600073ffffffffffffffffffffffffffffffffffffffff168273ffffffffffffffffffffffffffffffffffffffff16036108f457600080fd5b81600960006101000a81548173ffffffffffffffffffffffffffffffffffffffff021916908373ffffffffffffffffffffffffffffffffffffffff16021790555060019050919050565b61095983838360405180602001604052806000815250610f1c565b505050565b6000806002600084815260200190815260200160002060009054906101000a900473ffffffffffffffffffffffffffffffffffffffff169050600073ffffffffffffffffffffffffffffffffffffffff168173ffffffffffffffffffffffffffffffffffffffff1603610a06576040517f08c379a00000000000000000000000000000000000000000000000000000000081526004016109fd90613546565b60405180910390fd5b80915050919050565b60008073ffffffffffffffffffffffffffffffffffffffff168273ffffffffffffffffffffffffffffffffffffffff1603610a7f576040517f08c379a0000000000000000000000000000000000000000000000000000000008152600401610a76906135d8565b60405180910390fd5b600360008373ffffffffffffffffffffffffffffffffffffffff1673ffffffffffffffffffffffffffffffffffffffff168152602001908152602001600020549050919050565b610ace611cb1565b73ffffffffffffffffffffffffffffffffffffffff16610aec610e32565b73ffffffffffffffffffffffffffffffffffffffff1614610b42576040517f08c379a0000000000000000000000000000000000000000000000000000000008152600401610b39906134b4565b60405180910390fd5b610b4c60006120c4565b565b6000600c6000838152602001908152602001600020549050919050565b6000610b75611cb1565b73ffffffffffffffffffffffffffffffffffffffff16610b93610e32565b73ffffffffffffffffffffffffffffffffffffffff1614610be9576040517f08c379a0000000000000000000000000000000000000000000000000000000008152600401610be0906134b4565b60405180910390fd5b610bf28361095e565b73ffffffffffffffffffffffffffffffffffffffff168473ffffffffffffffffffffffffffffffffffffffff1614610c5f576040517f08c379a0000000000000000000000000000000000000000000000000000000008152600401610c5690613644565b60405180910390fd5b81600960009054906101000a900473ffffffffffffffffffffffffffffffffffffffff1673ffffffffffffffffffffffffffffffffffffffff166370a08231876040518263ffffffff1660e01b8152600401610cbb9190612cc7565b602060405180830381865afa158015610cd8573d6000803e3d6000fd5b505050506040513d601f19601f82011682018060405250810190610cfc9190613679565b1015610d3d576040517f08c379a0000000000000000000000000000000000000000000000000000000008152600401610d34906136f2565b60405180910390fd5b600960009054906101000a900473ffffffffffffffffffffffffffffffffffffffff1673ffffffffffffffffffffffffffffffffffffffff166323b872dd8686856040518463ffffffff1660e01b8152600401610d9c93929190613712565b6020604051808303816000875af1158015610dbb573d6000803e3d6000fd5b505050506040513d601f19601f82011682018060405250810190610ddf919061375e565b50610deb8486856107dd565b7ff3ecb4dab83f41da3035ff9cb3a2ef0c3027ebb89ae4e4b822d7c109e869a2fc858584604051610e1e93929190613712565b60405180910390a160019050949350505050565b6000600760009054906101000a900473ffffffffffffffffffffffffffffffffffffffff16905090565b606060018054610e6b906131ef565b80601f0160208091040260200160405190810160405280929190818152602001828054610e97906131ef565b8015610ee45780601f10610eb957610100808354040283529160200191610ee4565b820191906000526020600020905b815481529060010190602001808311610ec757829003601f168201915b5050505050905090565b600c6020528060005260406000206000915090505481565b610f18610f11611cb1565b838361218a565b5050565b610f2d610f27611cb1565b83611d80565b610f6c576040517f08c379a0000000000000000000000000000000000000000000000000000000008152600401610f6390613448565b60405180910390fd5b610f78848484846122f6565b50505050565b6060610f8982611c45565b610fc8576040517f08c379a0000000000000000000000000000000000000000000000000000000008152600401610fbf906137fd565b60405180910390fd5b6000600660008481526020019081526020016000208054610fe8906131ef565b80601f0160208091040260200160405190810160405280929190818152602001828054611014906131ef565b80156110615780601f1061103657610100808354040283529160200191611061565b820191906000526020600020905b81548152906001019060200180831161104457829003601f168201915b505050505090506000611072612352565b905060008151036110875781925050506110ca565b6000825111156110bc5780826040516020016110a4929190613859565b604051602081830303815290604052925050506110ca565b6110c584612369565b925050505b919050565b60006110da8261095e565b73ffffffffffffffffffffffffffffffffffffffff168373ffffffffffffffffffffffffffffffffffffffff1614611147576040517f08c379a000000000000000000000000000000000000000000000000000000000815260040161113e906138c9565b60405180910390fd5b6001600c600084815260200190815260200160002054036113f4576064600960009054906101000a900473ffffffffffffffffffffffffffffffffffffffff1673ffffffffffffffffffffffffffffffffffffffff166370a08231856040518263ffffffff1660e01b81526004016111bf9190612cc7565b602060405180830381865afa1580156111dc573d6000803e3d6000fd5b505050506040513d601f19601f820116820180604052508101906112009190613679565b1015611241576040517f08c379a000000000000000000000000000000000000000000000000000000000815260040161123890613935565b60405180910390fd5b600960009054906101000a900473ffffffffffffffffffffffffffffffffffffffff1673ffffffffffffffffffffffffffffffffffffffff166323b872dd843360646040518463ffffffff1660e01b81526004016112a19392919061399a565b6020604051808303816000875af11580156112c0573d6000803e3d6000fd5b505050506040513d601f19601f820116820180604052508101906112e4919061375e565b5060006112ef612410565b905060018114806113005750600281145b15611389576002600c6000858152602001908152602001600020819055507fd93f581963686f2d2464a8264cb60bce3aaf5796675ec58a33877b451340ff1983600c6000868152602001908152602001600020546001604051611365939291906139d1565b60405180910390a1600c6000848152602001908152602001600020549150506116d2565b7fd93f581963686f2d2464a8264cb60bce3aaf5796675ec58a33877b451340ff1983600c60008681526020019081526020016000205460006040516113d0939291906139d1565b60405180910390a1600c6000848152602001908152602001600020549150506116d2565b6002600c60008481526020019081526020016000205403611697576103e8600960009054906101000a900473ffffffffffffffffffffffffffffffffffffffff1673ffffffffffffffffffffffffffffffffffffffff166370a08231856040518263ffffffff1660e01b815260040161146d9190612cc7565b602060405180830381865afa15801561148a573d6000803e3d6000fd5b505050506040513d601f19601f820116820180604052508101906114ae9190613679565b10156114ef576040517f08c379a00000000000000000000000000000000000000000000000000000000081526004016114e690613935565b60405180910390fd5b600960009054906101000a900473ffffffffffffffffffffffffffffffffffffffff1673ffffffffffffffffffffffffffffffffffffffff166323b872dd84336103e86040518463ffffffff1660e01b815260040161155093929190613a43565b6020604051808303816000875af115801561156f573d6000803e3d6000fd5b505050506040513d601f19601f82011682018060405250810190611593919061375e565b50600061159e612410565b90506003810361162c576003600c6000858152602001908152602001600020819055507fd93f581963686f2d2464a8264cb60bce3aaf5796675ec58a33877b451340ff1983600c6000868152602001908152602001600020546001604051611608939291906139d1565b60405180910390a1600c6000848152602001908152602001600020549150506116d2565b7fd93f581963686f2d2464a8264cb60bce3aaf5796675ec58a33877b451340ff1983600c6000868152602001908152602001600020546000604051611673939291906139d1565b60405180910390a1600c6000848152602001908152602001600020549150506116d2565b6040517f08c379a00000000000000000000000000000000000000000000000000000000081526004016116c990613aec565b60405180910390fd5b92915050565b6000600560008473ffffffffffffffffffffffffffffffffffffffff1673ffffffffffffffffffffffffffffffffffffffff16815260200190815260200160002060008373ffffffffffffffffffffffffffffffffffffffff1673ffffffffffffffffffffffffffffffffffffffff16815260200190815260200160002060009054906101000a900460ff16905092915050565b6000611776611cb1565b73ffffffffffffffffffffffffffffffffffffffff16611794610e32565b73ffffffffffffffffffffffffffffffffffffffff16146117ea576040517f08c379a00000000000000000000000000000000000000000000000000000000081526004016117e1906134b4565b60405180910390fd5b6000600960009054906101000a900473ffffffffffffffffffffffffffffffffffffffff1673ffffffffffffffffffffffffffffffffffffffff166370a08231856040518263ffffffff1660e01b81526004016118479190612cc7565b602060405180830381865afa158015611864573d6000803e3d6000fd5b505050506040513d601f19601f820116820180604052508101906118889190613679565b10156118c9576040517f08c379a00000000000000000000000000000000000000000000000000000000081526004016118c090613b7e565b60405180910390fd5b600a54600960009054906101000a900473ffffffffffffffffffffffffffffffffffffffff1673ffffffffffffffffffffffffffffffffffffffff166370a08231856040518263ffffffff1660e01b81526004016119279190612cc7565b602060405180830381865afa158015611944573d6000803e3d6000fd5b505050506040513d601f19601f820116820180604052508101906119689190613679565b10156119a9576040517f08c379a00000000000000000000000000000000000000000000000000000000081526004016119a090613bea565b60405180910390fd5b600960009054906101000a900473ffffffffffffffffffffffffffffffffffffffff1673ffffffffffffffffffffffffffffffffffffffff166323b872dd8433600a546040518463ffffffff1660e01b8152600401611a0a93929190613712565b6020604051808303816000875af1158015611a29573d6000803e3d6000fd5b505050506040513d601f19601f82011682018060405250810190611a4d919061375e565b50611a58600861247f565b6000611a646008611d72565b90506001600c600083815260200190815260200160002081905550611a898482612495565b611a93818461266e565b611a9d3382611cb9565b7ff3ecb4dab83f41da3035ff9cb3a2ef0c3027ebb89ae4e4b822d7c109e869a2fc8433600a54604051611ad293929190613712565b60405180910390a18091505092915050565b611aec611cb1565b73ffffffffffffffffffffffffffffffffffffffff16611b0a610e32565b73ffffffffffffffffffffffffffffffffffffffff1614611b60576040517f08c379a0000000000000000000000000000000000000000000000000000000008152600401611b57906134b4565b60405180910390fd5b600073ffffffffffffffffffffffffffffffffffffffff168173ffffffffffffffffffffffffffffffffffffffff1603611bcf576040517f08c379a0000000000000000000000000000000000000000000000000000000008152600401611bc690613c7c565b60405180910390fd5b611bd8816120c4565b50565b60007f01ffc9a7000000000000000000000000000000000000000000000000000000007bffffffffffffffffffffffffffffffffffffffffffffffffffffffff1916827bffffffffffffffffffffffffffffffffffffffffffffffffffffffff1916149050919050565b60008073ffffffffffffffffffffffffffffffffffffffff166002600084815260200190815260200160002060009054906101000a900473ffffffffffffffffffffffffffffffffffffffff1673ffffffffffffffffffffffffffffffffffffffff1614159050919050565b600033905090565b816004600083815260200190815260200160002060006101000a81548173ffffffffffffffffffffffffffffffffffffffff021916908373ffffffffffffffffffffffffffffffffffffffff160217905550808273ffffffffffffffffffffffffffffffffffffffff16611d2c8361095e565b73ffffffffffffffffffffffffffffffffffffffff167f8c5be1e5ebec7d5bd14f71427d1e84f3dd0314c0f7b2291e5b200ac8c7c3b92560405160405180910390a45050565b600081600001549050919050565b6000611d8b82611c45565b611dca576040517f08c379a0000000000000000000000000000000000000000000000000000000008152600401611dc190613d0e565b60405180910390fd5b6000611dd58361095e565b90508073ffffffffffffffffffffffffffffffffffffffff168473ffffffffffffffffffffffffffffffffffffffff161480611e175750611e1681856116d8565b5b80611e5557508373ffffffffffffffffffffffffffffffffffffffff16611e3d84610630565b73ffffffffffffffffffffffffffffffffffffffff16145b91505092915050565b8273ffffffffffffffffffffffffffffffffffffffff16611e7e8261095e565b73ffffffffffffffffffffffffffffffffffffffff1614611ed4576040517f08c379a0000000000000000000000000000000000000000000000000000000008152600401611ecb90613da0565b60405180910390fd5b600073ffffffffffffffffffffffffffffffffffffffff168273ffffffffffffffffffffffffffffffffffffffff1603611f43576040517f08c379a0000000000000000000000000000000000000000000000000000000008152600401611f3a90613e32565b60405180910390fd5b611f4e8383836126e2565b611f59600082611cb9565b6001600360008573ffffffffffffffffffffffffffffffffffffffff1673ffffffffffffffffffffffffffffffffffffffff1681526020019081526020016000206000828254611fa99190613e81565b925050819055506001600360008473ffffffffffffffffffffffffffffffffffffffff1673ffffffffffffffffffffffffffffffffffffffff16815260200190815260200160002060008282546120009190613eb5565b92505081905550816002600083815260200190815260200160002060006101000a81548173ffffffffffffffffffffffffffffffffffffffff021916908373ffffffffffffffffffffffffffffffffffffffff160217905550808273ffffffffffffffffffffffffffffffffffffffff168473ffffffffffffffffffffffffffffffffffffffff167fddf252ad1be2c89b69c2b068fc378daa952ba7f163c4a11628f55a4df523b3ef60405160405180910390a46120bf8383836126e7565b505050565b6000600760009054906101000a900473ffffffffffffffffffffffffffffffffffffffff16905081600760006101000a81548173ffffffffffffffffffffffffffffffffffffffff021916908373ffffffffffffffffffffffffffffffffffffffff1602179055508173ffffffffffffffffffffffffffffffffffffffff168173ffffffffffffffffffffffffffffffffffffffff167f8be0079c531659141344cd1fd0a4f28419497f9722a3daafe3b4186f6b6457e060405160405180910390a35050565b8173ffffffffffffffffffffffffffffffffffffffff168373ffffffffffffffffffffffffffffffffffffffff16036121f8576040517f08c379a00000000000000000000000000000000000000000000000000000000081526004016121ef90613f57565b60405180910390fd5b80600560008573ffffffffffffffffffffffffffffffffffffffff1673ffffffffffffffffffffffffffffffffffffffff16815260200190815260200160002060008473ffffffffffffffffffffffffffffffffffffffff1673ffffffffffffffffffffffffffffffffffffffff16815260200190815260200160002060006101000a81548160ff0219169083151502179055508173ffffffffffffffffffffffffffffffffffffffff168373ffffffffffffffffffffffffffffffffffffffff167f17307eab39ab6107e8899845ad3d59bd9653f200f220920489ca2b5937696c31836040516122e99190612b4d565b60405180910390a3505050565b612301848484611e5e565b61230d848484846126ec565b61234c576040517f08c379a000000000000000000000000000000000000000000000000000000000815260040161234390613fe9565b60405180910390fd5b50505050565b606060405180602001604052806000815250905090565b606061237482611c45565b6123b3576040517f08c379a00000000000000000000000000000000000000000000000000000000081526004016123aa9061407b565b60405180910390fd5b60006123bd612352565b905060008151116123dd5760405180602001604052806000815250612408565b806123e784612873565b6040516020016123f8929190613859565b6040516020818303038152906040525b915050919050565b60008060064244600b5460405160200161242c939291906140bc565b6040516020818303038152906040528051906020012060001c61244f9190614128565b905060018161245e9190613eb5565b9050600b600081548092919061247390614159565b91905055508091505090565b6001816000016000828254019250508190555050565b600073ffffffffffffffffffffffffffffffffffffffff168273ffffffffffffffffffffffffffffffffffffffff1603612504576040517f08c379a00000000000000000000000000000000000000000000000000000000081526004016124fb906141ed565b60405180910390fd5b61250d81611c45565b1561254d576040517f08c379a000000000000000000000000000000000000000000000000000000000815260040161254490614259565b60405180910390fd5b612559600083836126e2565b6001600360008473ffffffffffffffffffffffffffffffffffffffff1673ffffffffffffffffffffffffffffffffffffffff16815260200190815260200160002060008282546125a99190613eb5565b92505081905550816002600083815260200190815260200160002060006101000a81548173ffffffffffffffffffffffffffffffffffffffff021916908373ffffffffffffffffffffffffffffffffffffffff160217905550808273ffffffffffffffffffffffffffffffffffffffff16600073ffffffffffffffffffffffffffffffffffffffff167fddf252ad1be2c89b69c2b068fc378daa952ba7f163c4a11628f55a4df523b3ef60405160405180910390a461266a600083836126e7565b5050565b61267782611c45565b6126b6576040517f08c379a00000000000000000000000000000000000000000000000000000000081526004016126ad906142eb565b60405180910390fd5b806006600084815260200190815260200160002090805190602001906126dd9291906129f6565b505050565b505050565b505050565b600061270d8473ffffffffffffffffffffffffffffffffffffffff166129d3565b15612866578373ffffffffffffffffffffffffffffffffffffffff1663150b7a02612736611cb1565b8786866040518563ffffffff1660e01b81526004016127589493929190614360565b6020604051808303816000875af192505050801561279457506040513d601f19601f8201168201806040525081019061279191906143c1565b60015b612816573d80600081146127c4576040519150601f19603f3d011682016040523d82523d6000602084013e6127c9565b606091505b50600081510361280e576040517f08c379a000000000000000000000000000000000000000000000000000000000815260040161280590613fe9565b60405180910390fd5b805181602001fd5b63150b7a0260e01b7bffffffffffffffffffffffffffffffffffffffffffffffffffffffff1916817bffffffffffffffffffffffffffffffffffffffffffffffffffffffff19161491505061286b565b600190505b949350505050565b6060600082036128ba576040518060400160405280600181526020017f300000000000000000000000000000000000000000000000000000000000000081525090506129ce565b600082905060005b600082146128ec5780806128d590614159565b915050600a826128e591906143ee565b91506128c2565b60008167ffffffffffffffff81111561290857612907612ed5565b5b6040519080825280601f01601f19166020018201604052801561293a5781602001600182028036833780820191505090505b5090505b600085146129c7576001826129539190613e81565b9150600a856129629190614128565b603061296e9190613eb5565b60f81b8183815181106129845761298361441f565b5b60200101907effffffffffffffffffffffffffffffffffffffffffffffffffffffffffffff1916908160001a905350600a856129c091906143ee565b945061293e565b8093505050505b919050565b6000808273ffffffffffffffffffffffffffffffffffffffff163b119050919050565b828054612a02906131ef565b90600052602060002090601f016020900481019282612a245760008555612a6b565b82601f10612a3d57805160ff1916838001178555612a6b565b82800160010185558215612a6b579182015b82811115612a6a578251825591602001919060010190612a4f565b5b509050612a789190612a7c565b5090565b5b80821115612a95576000816000905550600101612a7d565b5090565b6000604051905090565b600080fd5b600080fd5b60007fffffffff0000000000000000000000000000000000000000000000000000000082169050919050565b612ae281612aad565b8114612aed57600080fd5b50565b600081359050612aff81612ad9565b92915050565b600060208284031215612b1b57612b1a612aa3565b5b6000612b2984828501612af0565b91505092915050565b60008115159050919050565b612b4781612b32565b82525050565b6000602082019050612b626000830184612b3e565b92915050565b600081519050919050565b600082825260208201905092915050565b60005b83811015612ba2578082015181840152602081019050612b87565b83811115612bb1576000848401525b50505050565b6000601f19601f8301169050919050565b6000612bd382612b68565b612bdd8185612b73565b9350612bed818560208601612b84565b612bf681612bb7565b840191505092915050565b60006020820190508181036000830152612c1b8184612bc8565b905092915050565b6000819050919050565b612c3681612c23565b8114612c4157600080fd5b50565b600081359050612c5381612c2d565b92915050565b600060208284031215612c6f57612c6e612aa3565b5b6000612c7d84828501612c44565b91505092915050565b600073ffffffffffffffffffffffffffffffffffffffff82169050919050565b6000612cb182612c86565b9050919050565b612cc181612ca6565b82525050565b6000602082019050612cdc6000830184612cb8565b92915050565b612ceb81612ca6565b8114612cf657600080fd5b50565b600081359050612d0881612ce2565b92915050565b60008060408385031215612d2557612d24612aa3565b5b6000612d3385828601612cf9565b9250506020612d4485828601612c44565b9150509250929050565b612d5781612c23565b82525050565b6000602082019050612d726000830184612d4e565b92915050565b600080600060608486031215612d9157612d90612aa3565b5b6000612d9f86828701612cf9565b9350506020612db086828701612cf9565b9250506040612dc186828701612c44565b9150509250925092565b600060208284031215612de157612de0612aa3565b5b6000612def84828501612cf9565b91505092915050565b60008060008060808587031215612e1257612e11612aa3565b5b6000612e2087828801612cf9565b9450506020612e3187828801612cf9565b9350506040612e4287828801612c44565b9250506060612e5387828801612c44565b91505092959194509250565b612e6881612b32565b8114612e7357600080fd5b50565b600081359050612e8581612e5f565b92915050565b60008060408385031215612ea257612ea1612aa3565b5b6000612eb085828601612cf9565b9250506020612ec185828601612e76565b9150509250929050565b600080fd5b600080fd5b7f4e487b7100000000000000000000000000000000000000000000000000000000600052604160045260246000fd5b612f0d82612bb7565b810181811067ffffffffffffffff82111715612f2c57612f2b612ed5565b5b80604052505050565b6000612f3f612a99565b9050612f4b8282612f04565b919050565b600067ffffffffffffffff821115612f6b57612f6a612ed5565b5b612f7482612bb7565b9050602081019050919050565b82818337600083830152505050565b6000612fa3612f9e84612f50565b612f35565b905082815260208101848484011115612fbf57612fbe612ed0565b5b612fca848285612f81565b509392505050565b600082601f830112612fe757612fe6612ecb565b5b8135612ff7848260208601612f90565b91505092915050565b6000806000806080858703121561301a57613019612aa3565b5b600061302887828801612cf9565b945050602061303987828801612cf9565b935050604061304a87828801612c44565b925050606085013567ffffffffffffffff81111561306b5761306a612aa8565b5b61307787828801612fd2565b91505092959194509250565b6000806040838503121561309a57613099612aa3565b5b60006130a885828601612cf9565b92505060206130b985828601612cf9565b9150509250929050565b600067ffffffffffffffff8211156130de576130dd612ed5565b5b6130e782612bb7565b9050602081019050919050565b6000613107613102846130c3565b612f35565b90508281526020810184848401111561312357613122612ed0565b5b61312e848285612f81565b509392505050565b600082601f83011261314b5761314a612ecb565b5b813561315b8482602086016130f4565b91505092915050565b6000806040838503121561317b5761317a612aa3565b5b600061318985828601612cf9565b925050602083013567ffffffffffffffff8111156131aa576131a9612aa8565b5b6131b685828601613136565b9150509250929050565b7f4e487b7100000000000000000000000000000000000000000000000000000000600052602260045260246000fd5b6000600282049050600182168061320757607f821691505b60208210810361321a576132196131c0565b5b50919050565b7f4552433732313a20617070726f76656420717565727920666f72206e6f6e657860008201527f697374656e7420746f6b656e0000000000000000000000000000000000000000602082015250565b600061327c602c83612b73565b915061328782613220565b604082019050919050565b600060208201905081810360008301526132ab8161326f565b9050919050565b7f4552433732313a20617070726f76616c20746f2063757272656e74206f776e6560008201527f7200000000000000000000000000000000000000000000000000000000000000602082015250565b600061330e602183612b73565b9150613319826132b2565b604082019050919050565b6000602082019050818103600083015261333d81613301565b9050919050565b7f4552433732313a20617070726f76652063616c6c6572206973206e6f74206f7760008201527f6e6572206e6f7220617070726f76656420666f7220616c6c0000000000000000602082015250565b60006133a0603883612b73565b91506133ab82613344565b604082019050919050565b600060208201905081810360008301526133cf81613393565b9050919050565b7f4552433732313a207472616e736665722063616c6c6572206973206e6f74206f60008201527f776e6572206e6f7220617070726f766564000000000000000000000000000000602082015250565b6000613432603183612b73565b915061343d826133d6565b604082019050919050565b6000602082019050818103600083015261346181613425565b9050919050565b7f4f776e61626c653a2063616c6c6572206973206e6f7420746865206f776e6572600082015250565b600061349e602083612b73565b91506134a982613468565b602082019050919050565b600060208201905081810360008301526134cd81613491565b9050919050565b7f4552433732313a206f776e657220717565727920666f72206e6f6e657869737460008201527f656e7420746f6b656e0000000000000000000000000000000000000000000000602082015250565b6000613530602983612b73565b915061353b826134d4565b604082019050919050565b6000602082019050818103600083015261355f81613523565b9050919050565b7f4552433732313a2062616c616e636520717565727920666f7220746865207a6560008201527f726f206164647265737300000000000000000000000000000000000000000000602082015250565b60006135c2602a83612b73565b91506135cd82613566565b604082019050919050565b600060208201905081810360008301526135f1816135b5565b9050919050565b7f546f6b656e206f776e6572206973206e6f7420612073656c6c65720000000000600082015250565b600061362e601b83612b73565b9150613639826135f8565b602082019050919050565b6000602082019050818103600083015261365d81613621565b9050919050565b60008151905061367381612c2d565b92915050565b60006020828403121561368f5761368e612aa3565b5b600061369d84828501613664565b91505092915050565b7f427579657220686173206e6f7420656e6f7567682062616c616e636500000000600082015250565b60006136dc601c83612b73565b91506136e7826136a6565b602082019050919050565b6000602082019050818103600083015261370b816136cf565b9050919050565b60006060820190506137276000830186612cb8565b6137346020830185612cb8565b6137416040830184612d4e565b949350505050565b60008151905061375881612e5f565b92915050565b60006020828403121561377457613773612aa3565b5b600061378284828501613749565b91505092915050565b7f45524337323155524953746f726167653a2055524920717565727920666f722060008201527f6e6f6e6578697374656e7420746f6b656e000000000000000000000000000000602082015250565b60006137e7603183612b73565b91506137f28261378b565b604082019050919050565b60006020820190508181036000830152613816816137da565b9050919050565b600081905092915050565b600061383382612b68565b61383d818561381d565b935061384d818560208601612b84565b80840191505092915050565b60006138658285613828565b91506138718284613828565b91508190509392505050565b7f4e4654206f776e6572206973206e6f7420612063616c6c657200000000000000600082015250565b60006138b3601983612b73565b91506138be8261387d565b602082019050919050565b600060208201905081810360008301526138e2816138a6565b9050919050565b7f4e6f7420656e6f75676820746f6b656e2062616c616e63650000000000000000600082015250565b600061391f601883612b73565b915061392a826138e9565b602082019050919050565b6000602082019050818103600083015261394e81613912565b9050919050565b6000819050919050565b6000819050919050565b600061398461397f61397a84613955565b61395f565b612c23565b9050919050565b61399481613969565b82525050565b60006060820190506139af6000830186612cb8565b6139bc6020830185612cb8565b6139c9604083018461398b565b949350505050565b60006060820190506139e66000830186612d4e565b6139f36020830185612d4e565b613a006040830184612b3e565b949350505050565b6000819050919050565b6000613a2d613a28613a2384613a08565b61395f565b612c23565b9050919050565b613a3d81613a12565b82525050565b6000606082019050613a586000830186612cb8565b613a656020830185612cb8565b613a726040830184613a34565b949350505050565b7f596f7572204974656d206973206e6f742075706772616461626c6520616e792060008201527f6d6f726500000000000000000000000000000000000000000000000000000000602082015250565b6000613ad6602483612b73565b9150613ae182613a7a565b604082019050919050565b60006020820190508181036000830152613b0581613ac9565b9050919050565b7f436865636b207468617420796f7520736574207468652045524332302061646460008201527f7265737300000000000000000000000000000000000000000000000000000000602082015250565b6000613b68602483612b73565b9150613b7382613b0c565b604082019050919050565b60006020820190508181036000830152613b9781613b5b565b9050919050565b7f4e6f7420656e6f7567682062616c616e63650000000000000000000000000000600082015250565b6000613bd4601283612b73565b9150613bdf82613b9e565b602082019050919050565b60006020820190508181036000830152613c0381613bc7565b9050919050565b7f4f776e61626c653a206e6577206f776e657220697320746865207a65726f206160008201527f6464726573730000000000000000000000000000000000000000000000000000602082015250565b6000613c66602683612b73565b9150613c7182613c0a565b604082019050919050565b60006020820190508181036000830152613c9581613c59565b9050919050565b7f4552433732313a206f70657261746f7220717565727920666f72206e6f6e657860008201527f697374656e7420746f6b656e0000000000000000000000000000000000000000602082015250565b6000613cf8602c83612b73565b9150613d0382613c9c565b604082019050919050565b60006020820190508181036000830152613d2781613ceb565b9050919050565b7f4552433732313a207472616e736665722066726f6d20696e636f72726563742060008201527f6f776e6572000000000000000000000000000000000000000000000000000000602082015250565b6000613d8a602583612b73565b9150613d9582613d2e565b604082019050919050565b60006020820190508181036000830152613db981613d7d565b9050919050565b7f4552433732313a207472616e7366657220746f20746865207a65726f2061646460008201527f7265737300000000000000000000000000000000000000000000000000000000602082015250565b6000613e1c602483612b73565b9150613e2782613dc0565b604082019050919050565b60006020820190508181036000830152613e4b81613e0f565b9050919050565b7f4e487b7100000000000000000000000000000000000000000000000000000000600052601160045260246000fd5b6000613e8c82612c23565b9150613e9783612c23565b925082821015613eaa57613ea9613e52565b5b828203905092915050565b6000613ec082612c23565b9150613ecb83612c23565b9250827fffffffffffffffffffffffffffffffffffffffffffffffffffffffffffffffff03821115613f0057613eff613e52565b5b828201905092915050565b7f4552433732313a20617070726f766520746f2063616c6c657200000000000000600082015250565b6000613f41601983612b73565b9150613f4c82613f0b565b602082019050919050565b60006020820190508181036000830152613f7081613f34565b9050919050565b7f4552433732313a207472616e7366657220746f206e6f6e20455243373231526560008201527f63656976657220696d706c656d656e7465720000000000000000000000000000602082015250565b6000613fd3603283612b73565b9150613fde82613f77565b604082019050919050565b6000602082019050818103600083015261400281613fc6565b9050919050565b7f4552433732314d657461646174613a2055524920717565727920666f72206e6f60008201527f6e6578697374656e7420746f6b656e0000000000000000000000000000000000602082015250565b6000614065602f83612b73565b915061407082614009565b604082019050919050565b6000602082019050818103600083015261409481614058565b9050919050565b6000819050919050565b6140b66140b182612c23565b61409b565b82525050565b60006140c882866140a5565b6020820191506140d882856140a5565b6020820191506140e882846140a5565b602082019150819050949350505050565b7f4e487b7100000000000000000000000000000000000000000000000000000000600052601260045260246000fd5b600061413382612c23565b915061413e83612c23565b92508261414e5761414d6140f9565b5b828206905092915050565b600061416482612c23565b91507fffffffffffffffffffffffffffffffffffffffffffffffffffffffffffffffff820361419657614195613e52565b5b600182019050919050565b7f4552433732313a206d696e7420746f20746865207a65726f2061646472657373600082015250565b60006141d7602083612b73565b91506141e2826141a1565b602082019050919050565b60006020820190508181036000830152614206816141ca565b9050919050565b7f4552433732313a20746f6b656e20616c7265616479206d696e74656400000000600082015250565b6000614243601c83612b73565b915061424e8261420d565b602082019050919050565b6000602082019050818103600083015261427281614236565b9050919050565b7f45524337323155524953746f726167653a2055524920736574206f66206e6f6e60008201527f6578697374656e7420746f6b656e000000000000000000000000000000000000602082015250565b60006142d5602e83612b73565b91506142e082614279565b604082019050919050565b60006020820190508181036000830152614304816142c8565b9050919050565b600081519050919050565b600082825260208201905092915050565b60006143328261430b565b61433c8185614316565b935061434c818560208601612b84565b61435581612bb7565b840191505092915050565b60006080820190506143756000830187612cb8565b6143826020830186612cb8565b61438f6040830185612d4e565b81810360608301526143a18184614327565b905095945050505050565b6000815190506143bb81612ad9565b92915050565b6000602082840312156143d7576143d6612aa3565b5b60006143e5848285016143ac565b91505092915050565b60006143f982612c23565b915061440483612c23565b925082614414576144136140f9565b5b828204905092915050565b7f4e487b7100000000000000000000000000000000000000000000000000000000600052603260045260246000fdfea2646970667358221220bd526f5b399527d7160f26c7af9dcb732dba76a04857627c711deea42330b07f64736f6c634300080e0033",
  "immutableReferences": {},
  "source": "// SPDX-License-Identifier: MIT\npragma solidity ^0.8.10;\n\nimport \"openzeppelin-solidity/contracts/token/ERC721/ERC721.sol\";\nimport \"openzeppelin-solidity/contracts/utils/Counters.sol\";\nimport \"openzeppelin-solidity/contracts/access/Ownable.sol\";\nimport \"openzeppelin-solidity/contracts/token/ERC721/extensions/ERC721URIStorage.sol\";\nimport \"openzeppelin-solidity/contracts/token/ERC20/IERC20.sol\";\n\ncontract OLOG_ERC721 is ERC721URIStorage, Ownable {\n    using Counters for Counters.Counter;\n    Counters.Counter private _tokenIds;\n    IERC20 token;\n    uint256 nftPrice;\n    uint256 nonce;\n    event Upgrade(uint256 tokenId, uint256 reward_factor, bool success);\n    event Sold(address buyer, address seller, uint256 price);\n\n    constructor() ERC721(\"OlogNFTs\", \"OLOG\") {\n        nftPrice = 100;\n        nonce = 1;\n    }\n\n    mapping (uint256 => uint256) public reward_factor;\n    //reward_factor[tokenId] = NFT's reward_factor, begins with 1;\n\n    function mintNFT(address recipient, string memory tokenURI) public onlyOwner returns (uint256) {\n        require(token.balanceOf(recipient) >= 0, \"Check that you set the ERC20 address\" );\n        require(token.balanceOf(recipient) >= nftPrice,\"Not enough balance\");\n\n        token.transferFrom(recipient, msg.sender, nftPrice); //msg.sender is server address\n        //If we use transferFrom like this, caller becomes NFT's contract address, not msg.sender which is the server\n        //transferFrom check allowance of caller not allowance of to(msg.sender). However, amount is deducted from caller's allowance.\n        \n        _tokenIds.increment();\n        uint256 newItemId = _tokenIds.current();\n        reward_factor[newItemId] = 1;\n        _mint(recipient, newItemId);\n        _setTokenURI(newItemId, tokenURI);\n        _approve(msg.sender, newItemId);\n\n\n        emit Sold(recipient, msg.sender, nftPrice);\n\n        return newItemId;\n    }\n\n    function setERC20Address (address tokenAddress) public onlyOwner returns (bool) {\n        require(tokenAddress != address(0x0));\n        token = IERC20(tokenAddress);\n        return true;\n    }\n\n    function UserNFTSold(address buyer,address seller, uint256 tokenId, uint256 tokenPaid) public onlyOwner returns(bool) {\n        require(seller == ownerOf(tokenId), \"Token owner is not a seller\");\n        require(token.balanceOf(buyer) >= tokenPaid, \"Buyer has not enough balance\" );\n        token.transferFrom(buyer, seller ,tokenPaid); //ERC20 Token payment\n        transferFrom(seller, buyer, tokenId); //ERC721 Token payment\n        emit Sold(buyer, seller, tokenPaid);\n        \n        return true;\n    }\n\n    function _randomDice () internal returns (uint256) {\n        uint256 randomNumber = uint256(keccak256(abi.encodePacked(block.timestamp,block.difficulty,nonce))) % 6;\n        randomNumber = randomNumber + 1;\n        nonce++;\n\n        return randomNumber;\n    }\n\n    function totalSupply() public view returns(uint256){\n        return _tokenIds.current();\n    }\n\n    function upgradeNFT (address owner, uint256 tokenId) public returns(uint256) {\n        require(owner == ownerOf(tokenId), \"NFT owner is not a caller\");\n        if (reward_factor[tokenId] == 1){\n            //token price to upgrade is 100\n            require(token.balanceOf(owner) >= 100, \"Not enough token balance\");\n            token.transferFrom(owner, msg.sender, 100);\n            uint256 diceResult = _randomDice();\n            if(diceResult == 1 || diceResult == 2){\n                //upgrade success\n                reward_factor[tokenId] = 2;\n                emit Upgrade(tokenId, reward_factor[tokenId], true);\n                return reward_factor[tokenId];\n            }\n            else{\n                emit Upgrade(tokenId, reward_factor[tokenId], false);\n                return reward_factor[tokenId];\n            }\n        }\n        else if (reward_factor[tokenId] == 2){\n            //token price to upgrade is 1000\n            require(token.balanceOf(owner) >= 1000, \"Not enough token balance\");\n            token.transferFrom(owner, msg.sender, 1000);\n            uint256 diceResult = _randomDice();\n            if(diceResult == 3){\n                //upgrade success\n                reward_factor[tokenId] = 3;\n                emit Upgrade(tokenId, reward_factor[tokenId], true);\n                return reward_factor[tokenId];\n            }\n            else{\n                emit Upgrade(tokenId, reward_factor[tokenId], false);\n                return reward_factor[tokenId];\n            }\n        }\n        else{\n            revert(\"Your Item is not upgradable any more\");\n        }\n    }\n\n    function rewardFactorOf(uint256 tokenId) public view returns(uint256){\n        return reward_factor[tokenId];\n    }\n}",
  "sourcePath": "/Users/yooseungjun/Desktop/blockchain/beb-04-O_log/OLOG_SERVER/truffle/contracts/ERC721Project.sol",
  "compiler": {
    "name": "solc",
    "version": "0.8.14+commit.80d49f37.Emscripten.clang"
  },
  "schemaVersion": "3.4.7",
  "updatedAt": "2022-06-30T09:38:28.579Z",
  "networkType": "ethereum",
  "devdoc": {
    "kind": "dev",
    "methods": {
      "approve(address,uint256)": {
        "details": "See {IERC721-approve}."
      },
      "balanceOf(address)": {
        "details": "See {IERC721-balanceOf}."
      },
      "getApproved(uint256)": {
        "details": "See {IERC721-getApproved}."
      },
      "isApprovedForAll(address,address)": {
        "details": "See {IERC721-isApprovedForAll}."
      },
      "name()": {
        "details": "See {IERC721Metadata-name}."
      },
      "owner()": {
        "details": "Returns the address of the current owner."
      },
      "ownerOf(uint256)": {
        "details": "See {IERC721-ownerOf}."
      },
      "renounceOwnership()": {
        "details": "Leaves the contract without owner. It will not be possible to call `onlyOwner` functions anymore. Can only be called by the current owner. NOTE: Renouncing ownership will leave the contract without an owner, thereby removing any functionality that is only available to the owner."
      },
      "safeTransferFrom(address,address,uint256)": {
        "details": "See {IERC721-safeTransferFrom}."
      },
      "safeTransferFrom(address,address,uint256,bytes)": {
        "details": "See {IERC721-safeTransferFrom}."
      },
      "setApprovalForAll(address,bool)": {
        "details": "See {IERC721-setApprovalForAll}."
      },
      "supportsInterface(bytes4)": {
        "details": "See {IERC165-supportsInterface}."
      },
      "symbol()": {
        "details": "See {IERC721Metadata-symbol}."
      },
      "tokenURI(uint256)": {
        "details": "See {IERC721Metadata-tokenURI}."
      },
      "transferFrom(address,address,uint256)": {
        "details": "See {IERC721-transferFrom}."
      },
      "transferOwnership(address)": {
        "details": "Transfers ownership of the contract to a new account (`newOwner`). Can only be called by the current owner."
      }
    },
    "version": 1
  },
  "userdoc": {
    "kind": "user",
    "methods": {},
    "version": 1
  }
}