{
  "contractName": "OLOG_ERC721",
  "abi": [
    {
      "inputs": [],
      "stateMutability": "nonpayable",
      "type": "constructor"
    },
    {
      "anonymous": false,
      "inputs": [
        {
          "indexed": true,
          "internalType": "address",
          "name": "owner",
          "type": "address"
        },
        {
          "indexed": true,
          "internalType": "address",
          "name": "approved",
          "type": "address"
        },
        {
          "indexed": true,
          "internalType": "uint256",
          "name": "tokenId",
          "type": "uint256"
        }
      ],
      "name": "Approval",
      "type": "event"
    },
    {
      "anonymous": false,
      "inputs": [
        {
          "indexed": true,
          "internalType": "address",
          "name": "owner",
          "type": "address"
        },
        {
          "indexed": true,
          "internalType": "address",
          "name": "operator",
          "type": "address"
        },
        {
          "indexed": false,
          "internalType": "bool",
          "name": "approved",
          "type": "bool"
        }
      ],
      "name": "ApprovalForAll",
      "type": "event"
    },
    {
      "anonymous": false,
      "inputs": [
        {
          "indexed": true,
          "internalType": "address",
          "name": "previousOwner",
          "type": "address"
        },
        {
          "indexed": true,
          "internalType": "address",
          "name": "newOwner",
          "type": "address"
        }
      ],
      "name": "OwnershipTransferred",
      "type": "event"
    },
    {
      "anonymous": false,
      "inputs": [
        {
          "indexed": false,
          "internalType": "address",
          "name": "buyer",
          "type": "address"
        },
        {
          "indexed": false,
          "internalType": "address",
          "name": "seller",
          "type": "address"
        },
        {
          "indexed": false,
          "internalType": "uint256",
          "name": "price",
          "type": "uint256"
        }
      ],
      "name": "Sold",
      "type": "event"
    },
    {
      "anonymous": false,
      "inputs": [
        {
          "indexed": true,
          "internalType": "address",
          "name": "from",
          "type": "address"
        },
        {
          "indexed": true,
          "internalType": "address",
          "name": "to",
          "type": "address"
        },
        {
          "indexed": true,
          "internalType": "uint256",
          "name": "tokenId",
          "type": "uint256"
        }
      ],
      "name": "Transfer",
      "type": "event"
    },
    {
      "anonymous": false,
      "inputs": [
        {
          "indexed": false,
          "internalType": "uint256",
          "name": "tokenId",
          "type": "uint256"
        },
        {
          "indexed": false,
          "internalType": "uint256",
          "name": "reward_factor",
          "type": "uint256"
        },
        {
          "indexed": false,
          "internalType": "bool",
          "name": "success",
          "type": "bool"
        }
      ],
      "name": "Upgrade",
      "type": "event"
    },
    {
      "inputs": [
        {
          "internalType": "address",
          "name": "to",
          "type": "address"
        },
        {
          "internalType": "uint256",
          "name": "tokenId",
          "type": "uint256"
        }
      ],
      "name": "approve",
      "outputs": [],
      "stateMutability": "nonpayable",
      "type": "function"
    },
    {
      "inputs": [
        {
          "internalType": "address",
          "name": "owner",
          "type": "address"
        }
      ],
      "name": "balanceOf",
      "outputs": [
        {
          "internalType": "uint256",
          "name": "",
          "type": "uint256"
        }
      ],
      "stateMutability": "view",
      "type": "function",
      "constant": true
    },
    {
      "inputs": [
        {
          "internalType": "uint256",
          "name": "tokenId",
          "type": "uint256"
        }
      ],
      "name": "getApproved",
      "outputs": [
        {
          "internalType": "address",
          "name": "",
          "type": "address"
        }
      ],
      "stateMutability": "view",
      "type": "function",
      "constant": true
    },
    {
      "inputs": [
        {
          "internalType": "address",
          "name": "owner",
          "type": "address"
        },
        {
          "internalType": "address",
          "name": "operator",
          "type": "address"
        }
      ],
      "name": "isApprovedForAll",
      "outputs": [
        {
          "internalType": "bool",
          "name": "",
          "type": "bool"
        }
      ],
      "stateMutability": "view",
      "type": "function",
      "constant": true
    },
    {
      "inputs": [],
      "name": "name",
      "outputs": [
        {
          "internalType": "string",
          "name": "",
          "type": "string"
        }
      ],
      "stateMutability": "view",
      "type": "function",
      "constant": true
    },
    {
      "inputs": [],
      "name": "owner",
      "outputs": [
        {
          "internalType": "address",
          "name": "",
          "type": "address"
        }
      ],
      "stateMutability": "view",
      "type": "function",
      "constant": true
    },
    {
      "inputs": [
        {
          "internalType": "uint256",
          "name": "tokenId",
          "type": "uint256"
        }
      ],
      "name": "ownerOf",
      "outputs": [
        {
          "internalType": "address",
          "name": "",
          "type": "address"
        }
      ],
      "stateMutability": "view",
      "type": "function",
      "constant": true
    },
    {
      "inputs": [],
      "name": "renounceOwnership",
      "outputs": [],
      "stateMutability": "nonpayable",
      "type": "function"
    },
    {
      "inputs": [
        {
          "internalType": "uint256",
          "name": "",
          "type": "uint256"
        }
      ],
      "name": "reward_factor",
      "outputs": [
        {
          "internalType": "uint256",
          "name": "",
          "type": "uint256"
        }
      ],
      "stateMutability": "view",
      "type": "function",
      "constant": true
    },
    {
      "inputs": [
        {
          "internalType": "address",
          "name": "from",
          "type": "address"
        },
        {
          "internalType": "address",
          "name": "to",
          "type": "address"
        },
        {
          "internalType": "uint256",
          "name": "tokenId",
          "type": "uint256"
        }
      ],
      "name": "safeTransferFrom",
      "outputs": [],
      "stateMutability": "nonpayable",
      "type": "function"
    },
    {
      "inputs": [
        {
          "internalType": "address",
          "name": "from",
          "type": "address"
        },
        {
          "internalType": "address",
          "name": "to",
          "type": "address"
        },
        {
          "internalType": "uint256",
          "name": "tokenId",
          "type": "uint256"
        },
        {
          "internalType": "bytes",
          "name": "_data",
          "type": "bytes"
        }
      ],
      "name": "safeTransferFrom",
      "outputs": [],
      "stateMutability": "nonpayable",
      "type": "function"
    },
    {
      "inputs": [
        {
          "internalType": "address",
          "name": "operator",
          "type": "address"
        },
        {
          "internalType": "bool",
          "name": "approved",
          "type": "bool"
        }
      ],
      "name": "setApprovalForAll",
      "outputs": [],
      "stateMutability": "nonpayable",
      "type": "function"
    },
    {
      "inputs": [
        {
          "internalType": "bytes4",
          "name": "interfaceId",
          "type": "bytes4"
        }
      ],
      "name": "supportsInterface",
      "outputs": [
        {
          "internalType": "bool",
          "name": "",
          "type": "bool"
        }
      ],
      "stateMutability": "view",
      "type": "function",
      "constant": true
    },
    {
      "inputs": [],
      "name": "symbol",
      "outputs": [
        {
          "internalType": "string",
          "name": "",
          "type": "string"
        }
      ],
      "stateMutability": "view",
      "type": "function",
      "constant": true
    },
    {
      "inputs": [
        {
          "internalType": "uint256",
          "name": "tokenId",
          "type": "uint256"
        }
      ],
      "name": "tokenURI",
      "outputs": [
        {
          "internalType": "string",
          "name": "",
          "type": "string"
        }
      ],
      "stateMutability": "view",
      "type": "function",
      "constant": true
    },
    {
      "inputs": [
        {
          "internalType": "address",
          "name": "from",
          "type": "address"
        },
        {
          "internalType": "address",
          "name": "to",
          "type": "address"
        },
        {
          "internalType": "uint256",
          "name": "tokenId",
          "type": "uint256"
        }
      ],
      "name": "transferFrom",
      "outputs": [],
      "stateMutability": "nonpayable",
      "type": "function"
    },
    {
      "inputs": [
        {
          "internalType": "address",
          "name": "newOwner",
          "type": "address"
        }
      ],
      "name": "transferOwnership",
      "outputs": [],
      "stateMutability": "nonpayable",
      "type": "function"
    },
    {
      "inputs": [
        {
          "internalType": "address",
          "name": "recipient",
          "type": "address"
        },
        {
          "internalType": "string",
          "name": "tokenURI",
          "type": "string"
        }
      ],
      "name": "mintNFT",
      "outputs": [
        {
          "internalType": "uint256",
          "name": "",
          "type": "uint256"
        }
      ],
      "stateMutability": "nonpayable",
      "type": "function"
    },
    {
      "inputs": [
        {
          "internalType": "address",
          "name": "tokenAddress",
          "type": "address"
        }
      ],
      "name": "setERC20Address",
      "outputs": [
        {
          "internalType": "bool",
          "name": "",
          "type": "bool"
        }
      ],
      "stateMutability": "nonpayable",
      "type": "function"
    },
    {
      "inputs": [
        {
          "internalType": "address",
          "name": "buyer",
          "type": "address"
        },
        {
          "internalType": "address",
          "name": "seller",
          "type": "address"
        },
        {
          "internalType": "uint256",
          "name": "tokenId",
          "type": "uint256"
        },
        {
          "internalType": "uint256",
          "name": "tokenPaid",
          "type": "uint256"
        }
      ],
      "name": "UserNFTSold",
      "outputs": [
        {
          "internalType": "bool",
          "name": "",
          "type": "bool"
        }
      ],
      "stateMutability": "nonpayable",
      "type": "function"
    },
    {
      "inputs": [],
      "name": "totalSupply",
      "outputs": [
        {
          "internalType": "uint256",
          "name": "",
          "type": "uint256"
        }
      ],
      "stateMutability": "view",
      "type": "function",
      "constant": true
    },
    {
      "inputs": [
        {
          "internalType": "address",
          "name": "owner",
          "type": "address"
        },
        {
          "internalType": "uint256",
          "name": "tokenId",
          "type": "uint256"
        }
      ],
      "name": "upgradeNFT",
      "outputs": [
        {
          "internalType": "uint256",
          "name": "",
          "type": "uint256"
        }
      ],
      "stateMutability": "nonpayable",
      "type": "function"
    }
  ],
  "bytecode": "0x60806040523480156200001157600080fd5b506040518060400160405280600881526020017f4f6c6f674e4654730000000000000000000000000000000000000000000000008152506040518060400160405280600481526020017f4f4c4f4700000000000000000000000000000000000000000000000000000000815250816000908051906020019062000096929190620001b6565b508060019080519060200190620000af929190620001b6565b505050620000d2620000c6620000e860201b60201c565b620000f060201b60201c565b6064600a819055506001600b81905550620002ca565b600033905090565b6000600760009054906101000a900473ffffffffffffffffffffffffffffffffffffffff16905081600760006101000a81548173ffffffffffffffffffffffffffffffffffffffff021916908373ffffffffffffffffffffffffffffffffffffffff1602179055508173ffffffffffffffffffffffffffffffffffffffff168173ffffffffffffffffffffffffffffffffffffffff167f8be0079c531659141344cd1fd0a4f28419497f9722a3daafe3b4186f6b6457e060405160405180910390a35050565b828054620001c49062000295565b90600052602060002090601f016020900481019282620001e8576000855562000234565b82601f106200020357805160ff191683800117855562000234565b8280016001018555821562000234579182015b828111156200023357825182559160200191906001019062000216565b5b50905062000243919062000247565b5090565b5b808211156200026257600081600090555060010162000248565b5090565b7f4e487b7100000000000000000000000000000000000000000000000000000000600052602260045260246000fd5b60006002820490506001821680620002ae57607f821691505b602082108103620002c457620002c362000266565b5b50919050565b61442b80620002da6000396000f3fe608060405234801561001057600080fd5b50600436106101425760003560e01c806383f26205116100b8578063b88d4fde1161007c578063b88d4fde14610389578063c87b56dd146103a5578063d3b3b7f9146103d5578063e985e9c514610405578063eacabe1414610435578063f2fde38b1461046557610142565b806383f26205146102d15780638da5cb5b1461030157806395d89b411461031f57806397c0ae531461033d578063a22cb4651461036d57610142565b806323b872dd1161010a57806323b872dd146101ff57806341bec0d21461021b57806342842e0e1461024b5780636352211e1461026757806370a0823114610297578063715018a6146102c757610142565b806301ffc9a71461014757806306fdde0314610177578063081812fc14610195578063095ea7b3146101c557806318160ddd146101e1575b600080fd5b610161600480360381019061015c9190612aac565b610481565b60405161016e9190612af4565b60405180910390f35b61017f610563565b60405161018c9190612ba8565b60405180910390f35b6101af60048036038101906101aa9190612c00565b6105f5565b6040516101bc9190612c6e565b60405180910390f35b6101df60048036038101906101da9190612cb5565b61067a565b005b6101e9610791565b6040516101f69190612d04565b60405180910390f35b61021960048036038101906102149190612d1f565b6107a2565b005b61023560048036038101906102309190612d72565b610802565b6040516102429190612af4565b60405180910390f35b61026560048036038101906102609190612d1f565b610903565b005b610281600480360381019061027c9190612c00565b610923565b60405161028e9190612c6e565b60405180910390f35b6102b160048036038101906102ac9190612d72565b6109d4565b6040516102be9190612d04565b60405180910390f35b6102cf610a8b565b005b6102eb60048036038101906102e69190612d9f565b610b13565b6040516102f89190612af4565b60405180910390f35b610309610dda565b6040516103169190612c6e565b60405180910390f35b610327610e04565b6040516103349190612ba8565b60405180910390f35b61035760048036038101906103529190612c00565b610e96565b6040516103649190612d04565b60405180910390f35b61038760048036038101906103829190612e32565b610eae565b005b6103a3600480360381019061039e9190612fa7565b610ec4565b005b6103bf60048036038101906103ba9190612c00565b610f26565b6040516103cc9190612ba8565b60405180910390f35b6103ef60048036038101906103ea9190612cb5565b611077565b6040516103fc9190612d04565b60405180910390f35b61041f600480360381019061041a919061302a565b611680565b60405161042c9190612af4565b60405180910390f35b61044f600480360381019061044a919061310b565b611714565b60405161045c9190612d04565b60405180910390f35b61047f600480360381019061047a9190612d72565b611a8b565b005b60007f80ac58cd000000000000000000000000000000000000000000000000000000007bffffffffffffffffffffffffffffffffffffffffffffffffffffffff1916827bffffffffffffffffffffffffffffffffffffffffffffffffffffffff1916148061054c57507f5b5e139f000000000000000000000000000000000000000000000000000000007bffffffffffffffffffffffffffffffffffffffffffffffffffffffff1916827bffffffffffffffffffffffffffffffffffffffffffffffffffffffff1916145b8061055c575061055b82611b82565b5b9050919050565b60606000805461057290613196565b80601f016020809104026020016040519081016040528092919081815260200182805461059e90613196565b80156105eb5780601f106105c0576101008083540402835291602001916105eb565b820191906000526020600020905b8154815290600101906020018083116105ce57829003601f168201915b5050505050905090565b600061060082611bec565b61063f576040517f08c379a000000000000000000000000000000000000000000000000000000000815260040161063690613239565b60405180910390fd5b6004600083815260200190815260200160002060009054906101000a900473ffffffffffffffffffffffffffffffffffffffff169050919050565b600061068582610923565b90508073ffffffffffffffffffffffffffffffffffffffff168373ffffffffffffffffffffffffffffffffffffffff16036106f5576040517f08c379a00000000000000000000000000000000000000000000000000000000081526004016106ec906132cb565b60405180910390fd5b8073ffffffffffffffffffffffffffffffffffffffff16610714611c58565b73ffffffffffffffffffffffffffffffffffffffff16148061074357506107428161073d611c58565b611680565b5b610782576040517f08c379a00000000000000000000000000000000000000000000000000000000081526004016107799061335d565b60405180910390fd5b61078c8383611c60565b505050565b600061079d6008611d19565b905090565b6107b36107ad611c58565b82611d27565b6107f2576040517f08c379a00000000000000000000000000000000000000000000000000000000081526004016107e9906133ef565b60405180910390fd5b6107fd838383611e05565b505050565b600061080c611c58565b73ffffffffffffffffffffffffffffffffffffffff1661082a610dda565b73ffffffffffffffffffffffffffffffffffffffff1614610880576040517f08c379a00000000000000000000000000000000000000000000000000000000081526004016108779061345b565b60405180910390fd5b600073ffffffffffffffffffffffffffffffffffffffff168273ffffffffffffffffffffffffffffffffffffffff16036108b957600080fd5b81600960006101000a81548173ffffffffffffffffffffffffffffffffffffffff021916908373ffffffffffffffffffffffffffffffffffffffff16021790555060019050919050565b61091e83838360405180602001604052806000815250610ec4565b505050565b6000806002600084815260200190815260200160002060009054906101000a900473ffffffffffffffffffffffffffffffffffffffff169050600073ffffffffffffffffffffffffffffffffffffffff168173ffffffffffffffffffffffffffffffffffffffff16036109cb576040517f08c379a00000000000000000000000000000000000000000000000000000000081526004016109c2906134ed565b60405180910390fd5b80915050919050565b60008073ffffffffffffffffffffffffffffffffffffffff168273ffffffffffffffffffffffffffffffffffffffff1603610a44576040517f08c379a0000000000000000000000000000000000000000000000000000000008152600401610a3b9061357f565b60405180910390fd5b600360008373ffffffffffffffffffffffffffffffffffffffff1673ffffffffffffffffffffffffffffffffffffffff168152602001908152602001600020549050919050565b610a93611c58565b73ffffffffffffffffffffffffffffffffffffffff16610ab1610dda565b73ffffffffffffffffffffffffffffffffffffffff1614610b07576040517f08c379a0000000000000000000000000000000000000000000000000000000008152600401610afe9061345b565b60405180910390fd5b610b11600061206b565b565b6000610b1d611c58565b73ffffffffffffffffffffffffffffffffffffffff16610b3b610dda565b73ffffffffffffffffffffffffffffffffffffffff1614610b91576040517f08c379a0000000000000000000000000000000000000000000000000000000008152600401610b889061345b565b60405180910390fd5b610b9a83610923565b73ffffffffffffffffffffffffffffffffffffffff168473ffffffffffffffffffffffffffffffffffffffff1614610c07576040517f08c379a0000000000000000000000000000000000000000000000000000000008152600401610bfe906135eb565b60405180910390fd5b81600960009054906101000a900473ffffffffffffffffffffffffffffffffffffffff1673ffffffffffffffffffffffffffffffffffffffff166370a08231876040518263ffffffff1660e01b8152600401610c639190612c6e565b602060405180830381865afa158015610c80573d6000803e3d6000fd5b505050506040513d601f19601f82011682018060405250810190610ca49190613620565b1015610ce5576040517f08c379a0000000000000000000000000000000000000000000000000000000008152600401610cdc90613699565b60405180910390fd5b600960009054906101000a900473ffffffffffffffffffffffffffffffffffffffff1673ffffffffffffffffffffffffffffffffffffffff166323b872dd8686856040518463ffffffff1660e01b8152600401610d44939291906136b9565b6020604051808303816000875af1158015610d63573d6000803e3d6000fd5b505050506040513d601f19601f82011682018060405250810190610d879190613705565b50610d938486856107a2565b7ff3ecb4dab83f41da3035ff9cb3a2ef0c3027ebb89ae4e4b822d7c109e869a2fc858584604051610dc6939291906136b9565b60405180910390a160019050949350505050565b6000600760009054906101000a900473ffffffffffffffffffffffffffffffffffffffff16905090565b606060018054610e1390613196565b80601f0160208091040260200160405190810160405280929190818152602001828054610e3f90613196565b8015610e8c5780601f10610e6157610100808354040283529160200191610e8c565b820191906000526020600020905b815481529060010190602001808311610e6f57829003601f168201915b5050505050905090565b600c6020528060005260406000206000915090505481565b610ec0610eb9611c58565b8383612131565b5050565b610ed5610ecf611c58565b83611d27565b610f14576040517f08c379a0000000000000000000000000000000000000000000000000000000008152600401610f0b906133ef565b60405180910390fd5b610f208484848461229d565b50505050565b6060610f3182611bec565b610f70576040517f08c379a0000000000000000000000000000000000000000000000000000000008152600401610f67906137a4565b60405180910390fd5b6000600660008481526020019081526020016000208054610f9090613196565b80601f0160208091040260200160405190810160405280929190818152602001828054610fbc90613196565b80156110095780601f10610fde57610100808354040283529160200191611009565b820191906000526020600020905b815481529060010190602001808311610fec57829003601f168201915b50505050509050600061101a6122f9565b9050600081510361102f578192505050611072565b60008251111561106457808260405160200161104c929190613800565b60405160208183030381529060405292505050611072565b61106d84612310565b925050505b919050565b600061108282610923565b73ffffffffffffffffffffffffffffffffffffffff168373ffffffffffffffffffffffffffffffffffffffff16146110ef576040517f08c379a00000000000000000000000000000000000000000000000000000000081526004016110e690613870565b60405180910390fd5b6001600c6000848152602001908152602001600020540361139c576064600960009054906101000a900473ffffffffffffffffffffffffffffffffffffffff1673ffffffffffffffffffffffffffffffffffffffff166370a08231856040518263ffffffff1660e01b81526004016111679190612c6e565b602060405180830381865afa158015611184573d6000803e3d6000fd5b505050506040513d601f19601f820116820180604052508101906111a89190613620565b10156111e9576040517f08c379a00000000000000000000000000000000000000000000000000000000081526004016111e0906138dc565b60405180910390fd5b600960009054906101000a900473ffffffffffffffffffffffffffffffffffffffff1673ffffffffffffffffffffffffffffffffffffffff166323b872dd843360646040518463ffffffff1660e01b815260040161124993929190613941565b6020604051808303816000875af1158015611268573d6000803e3d6000fd5b505050506040513d601f19601f8201168201806040525081019061128c9190613705565b5060006112976123b7565b905060018114806112a85750600281145b15611331576002600c6000858152602001908152602001600020819055507fd93f581963686f2d2464a8264cb60bce3aaf5796675ec58a33877b451340ff1983600c600086815260200190815260200160002054600160405161130d93929190613978565b60405180910390a1600c60008481526020019081526020016000205491505061167a565b7fd93f581963686f2d2464a8264cb60bce3aaf5796675ec58a33877b451340ff1983600c600086815260200190815260200160002054600060405161137893929190613978565b60405180910390a1600c60008481526020019081526020016000205491505061167a565b6002600c6000848152602001908152602001600020540361163f576103e8600960009054906101000a900473ffffffffffffffffffffffffffffffffffffffff1673ffffffffffffffffffffffffffffffffffffffff166370a08231856040518263ffffffff1660e01b81526004016114159190612c6e565b602060405180830381865afa158015611432573d6000803e3d6000fd5b505050506040513d601f19601f820116820180604052508101906114569190613620565b1015611497576040517f08c379a000000000000000000000000000000000000000000000000000000000815260040161148e906138dc565b60405180910390fd5b600960009054906101000a900473ffffffffffffffffffffffffffffffffffffffff1673ffffffffffffffffffffffffffffffffffffffff166323b872dd84336103e86040518463ffffffff1660e01b81526004016114f8939291906139ea565b6020604051808303816000875af1158015611517573d6000803e3d6000fd5b505050506040513d601f19601f8201168201806040525081019061153b9190613705565b5060006115466123b7565b9050600381036115d4576003600c6000858152602001908152602001600020819055507fd93f581963686f2d2464a8264cb60bce3aaf5796675ec58a33877b451340ff1983600c60008681526020019081526020016000205460016040516115b093929190613978565b60405180910390a1600c60008481526020019081526020016000205491505061167a565b7fd93f581963686f2d2464a8264cb60bce3aaf5796675ec58a33877b451340ff1983600c600086815260200190815260200160002054600060405161161b93929190613978565b60405180910390a1600c60008481526020019081526020016000205491505061167a565b6040517f08c379a000000000000000000000000000000000000000000000000000000000815260040161167190613a93565b60405180910390fd5b92915050565b6000600560008473ffffffffffffffffffffffffffffffffffffffff1673ffffffffffffffffffffffffffffffffffffffff16815260200190815260200160002060008373ffffffffffffffffffffffffffffffffffffffff1673ffffffffffffffffffffffffffffffffffffffff16815260200190815260200160002060009054906101000a900460ff16905092915050565b600061171e611c58565b73ffffffffffffffffffffffffffffffffffffffff1661173c610dda565b73ffffffffffffffffffffffffffffffffffffffff1614611792576040517f08c379a00000000000000000000000000000000000000000000000000000000081526004016117899061345b565b60405180910390fd5b6000600960009054906101000a900473ffffffffffffffffffffffffffffffffffffffff1673ffffffffffffffffffffffffffffffffffffffff166370a08231856040518263ffffffff1660e01b81526004016117ef9190612c6e565b602060405180830381865afa15801561180c573d6000803e3d6000fd5b505050506040513d601f19601f820116820180604052508101906118309190613620565b1015611871576040517f08c379a000000000000000000000000000000000000000000000000000000000815260040161186890613b25565b60405180910390fd5b600a54600960009054906101000a900473ffffffffffffffffffffffffffffffffffffffff1673ffffffffffffffffffffffffffffffffffffffff166370a08231856040518263ffffffff1660e01b81526004016118cf9190612c6e565b602060405180830381865afa1580156118ec573d6000803e3d6000fd5b505050506040513d601f19601f820116820180604052508101906119109190613620565b11611950576040517f08c379a000000000000000000000000000000000000000000000000000000000815260040161194790613b91565b60405180910390fd5b600960009054906101000a900473ffffffffffffffffffffffffffffffffffffffff1673ffffffffffffffffffffffffffffffffffffffff166323b872dd8433600a546040518463ffffffff1660e01b81526004016119b1939291906136b9565b6020604051808303816000875af11580156119d0573d6000803e3d6000fd5b505050506040513d601f19601f820116820180604052508101906119f49190613705565b506119ff6008612426565b6000611a0b6008611d19565b90506001600c600083815260200190815260200160002081905550611a30848261243c565b611a3a8184612615565b611a443382611c60565b7ff3ecb4dab83f41da3035ff9cb3a2ef0c3027ebb89ae4e4b822d7c109e869a2fc8433600a54604051611a79939291906136b9565b60405180910390a18091505092915050565b611a93611c58565b73ffffffffffffffffffffffffffffffffffffffff16611ab1610dda565b73ffffffffffffffffffffffffffffffffffffffff1614611b07576040517f08c379a0000000000000000000000000000000000000000000000000000000008152600401611afe9061345b565b60405180910390fd5b600073ffffffffffffffffffffffffffffffffffffffff168173ffffffffffffffffffffffffffffffffffffffff1603611b76576040517f08c379a0000000000000000000000000000000000000000000000000000000008152600401611b6d90613c23565b60405180910390fd5b611b7f8161206b565b50565b60007f01ffc9a7000000000000000000000000000000000000000000000000000000007bffffffffffffffffffffffffffffffffffffffffffffffffffffffff1916827bffffffffffffffffffffffffffffffffffffffffffffffffffffffff1916149050919050565b60008073ffffffffffffffffffffffffffffffffffffffff166002600084815260200190815260200160002060009054906101000a900473ffffffffffffffffffffffffffffffffffffffff1673ffffffffffffffffffffffffffffffffffffffff1614159050919050565b600033905090565b816004600083815260200190815260200160002060006101000a81548173ffffffffffffffffffffffffffffffffffffffff021916908373ffffffffffffffffffffffffffffffffffffffff160217905550808273ffffffffffffffffffffffffffffffffffffffff16611cd383610923565b73ffffffffffffffffffffffffffffffffffffffff167f8c5be1e5ebec7d5bd14f71427d1e84f3dd0314c0f7b2291e5b200ac8c7c3b92560405160405180910390a45050565b600081600001549050919050565b6000611d3282611bec565b611d71576040517f08c379a0000000000000000000000000000000000000000000000000000000008152600401611d6890613cb5565b60405180910390fd5b6000611d7c83610923565b90508073ffffffffffffffffffffffffffffffffffffffff168473ffffffffffffffffffffffffffffffffffffffff161480611dbe5750611dbd8185611680565b5b80611dfc57508373ffffffffffffffffffffffffffffffffffffffff16611de4846105f5565b73ffffffffffffffffffffffffffffffffffffffff16145b91505092915050565b8273ffffffffffffffffffffffffffffffffffffffff16611e2582610923565b73ffffffffffffffffffffffffffffffffffffffff1614611e7b576040517f08c379a0000000000000000000000000000000000000000000000000000000008152600401611e7290613d47565b60405180910390fd5b600073ffffffffffffffffffffffffffffffffffffffff168273ffffffffffffffffffffffffffffffffffffffff1603611eea576040517f08c379a0000000000000000000000000000000000000000000000000000000008152600401611ee190613dd9565b60405180910390fd5b611ef5838383612689565b611f00600082611c60565b6001600360008573ffffffffffffffffffffffffffffffffffffffff1673ffffffffffffffffffffffffffffffffffffffff1681526020019081526020016000206000828254611f509190613e28565b925050819055506001600360008473ffffffffffffffffffffffffffffffffffffffff1673ffffffffffffffffffffffffffffffffffffffff1681526020019081526020016000206000828254611fa79190613e5c565b92505081905550816002600083815260200190815260200160002060006101000a81548173ffffffffffffffffffffffffffffffffffffffff021916908373ffffffffffffffffffffffffffffffffffffffff160217905550808273ffffffffffffffffffffffffffffffffffffffff168473ffffffffffffffffffffffffffffffffffffffff167fddf252ad1be2c89b69c2b068fc378daa952ba7f163c4a11628f55a4df523b3ef60405160405180910390a461206683838361268e565b505050565b6000600760009054906101000a900473ffffffffffffffffffffffffffffffffffffffff16905081600760006101000a81548173ffffffffffffffffffffffffffffffffffffffff021916908373ffffffffffffffffffffffffffffffffffffffff1602179055508173ffffffffffffffffffffffffffffffffffffffff168173ffffffffffffffffffffffffffffffffffffffff167f8be0079c531659141344cd1fd0a4f28419497f9722a3daafe3b4186f6b6457e060405160405180910390a35050565b8173ffffffffffffffffffffffffffffffffffffffff168373ffffffffffffffffffffffffffffffffffffffff160361219f576040517f08c379a000000000000000000000000000000000000000000000000000000000815260040161219690613efe565b60405180910390fd5b80600560008573ffffffffffffffffffffffffffffffffffffffff1673ffffffffffffffffffffffffffffffffffffffff16815260200190815260200160002060008473ffffffffffffffffffffffffffffffffffffffff1673ffffffffffffffffffffffffffffffffffffffff16815260200190815260200160002060006101000a81548160ff0219169083151502179055508173ffffffffffffffffffffffffffffffffffffffff168373ffffffffffffffffffffffffffffffffffffffff167f17307eab39ab6107e8899845ad3d59bd9653f200f220920489ca2b5937696c31836040516122909190612af4565b60405180910390a3505050565b6122a8848484611e05565b6122b484848484612693565b6122f3576040517f08c379a00000000000000000000000000000000000000000000000000000000081526004016122ea90613f90565b60405180910390fd5b50505050565b606060405180602001604052806000815250905090565b606061231b82611bec565b61235a576040517f08c379a000000000000000000000000000000000000000000000000000000000815260040161235190614022565b60405180910390fd5b60006123646122f9565b9050600081511161238457604051806020016040528060008152506123af565b8061238e8461281a565b60405160200161239f929190613800565b6040516020818303038152906040525b915050919050565b60008060064244600b546040516020016123d393929190614063565b6040516020818303038152906040528051906020012060001c6123f691906140cf565b90506001816124059190613e5c565b9050600b600081548092919061241a90614100565b91905055508091505090565b6001816000016000828254019250508190555050565b600073ffffffffffffffffffffffffffffffffffffffff168273ffffffffffffffffffffffffffffffffffffffff16036124ab576040517f08c379a00000000000000000000000000000000000000000000000000000000081526004016124a290614194565b60405180910390fd5b6124b481611bec565b156124f4576040517f08c379a00000000000000000000000000000000000000000000000000000000081526004016124eb90614200565b60405180910390fd5b61250060008383612689565b6001600360008473ffffffffffffffffffffffffffffffffffffffff1673ffffffffffffffffffffffffffffffffffffffff16815260200190815260200160002060008282546125509190613e5c565b92505081905550816002600083815260200190815260200160002060006101000a81548173ffffffffffffffffffffffffffffffffffffffff021916908373ffffffffffffffffffffffffffffffffffffffff160217905550808273ffffffffffffffffffffffffffffffffffffffff16600073ffffffffffffffffffffffffffffffffffffffff167fddf252ad1be2c89b69c2b068fc378daa952ba7f163c4a11628f55a4df523b3ef60405160405180910390a46126116000838361268e565b5050565b61261e82611bec565b61265d576040517f08c379a000000000000000000000000000000000000000000000000000000000815260040161265490614292565b60405180910390fd5b8060066000848152602001908152602001600020908051906020019061268492919061299d565b505050565b505050565b505050565b60006126b48473ffffffffffffffffffffffffffffffffffffffff1661297a565b1561280d578373ffffffffffffffffffffffffffffffffffffffff1663150b7a026126dd611c58565b8786866040518563ffffffff1660e01b81526004016126ff9493929190614307565b6020604051808303816000875af192505050801561273b57506040513d601f19601f820116820180604052508101906127389190614368565b60015b6127bd573d806000811461276b576040519150601f19603f3d011682016040523d82523d6000602084013e612770565b606091505b5060008151036127b5576040517f08c379a00000000000000000000000000000000000000000000000000000000081526004016127ac90613f90565b60405180910390fd5b805181602001fd5b63150b7a0260e01b7bffffffffffffffffffffffffffffffffffffffffffffffffffffffff1916817bffffffffffffffffffffffffffffffffffffffffffffffffffffffff191614915050612812565b600190505b949350505050565b606060008203612861576040518060400160405280600181526020017f30000000000000000000000000000000000000000000000000000000000000008152509050612975565b600082905060005b6000821461289357808061287c90614100565b915050600a8261288c9190614395565b9150612869565b60008167ffffffffffffffff8111156128af576128ae612e7c565b5b6040519080825280601f01601f1916602001820160405280156128e15781602001600182028036833780820191505090505b5090505b6000851461296e576001826128fa9190613e28565b9150600a8561290991906140cf565b60306129159190613e5c565b60f81b81838151811061292b5761292a6143c6565b5b60200101907effffffffffffffffffffffffffffffffffffffffffffffffffffffffffffff1916908160001a905350600a856129679190614395565b94506128e5565b8093505050505b919050565b6000808273ffffffffffffffffffffffffffffffffffffffff163b119050919050565b8280546129a990613196565b90600052602060002090601f0160209004810192826129cb5760008555612a12565b82601f106129e457805160ff1916838001178555612a12565b82800160010185558215612a12579182015b82811115612a115782518255916020019190600101906129f6565b5b509050612a1f9190612a23565b5090565b5b80821115612a3c576000816000905550600101612a24565b5090565b6000604051905090565b600080fd5b600080fd5b60007fffffffff0000000000000000000000000000000000000000000000000000000082169050919050565b612a8981612a54565b8114612a9457600080fd5b50565b600081359050612aa681612a80565b92915050565b600060208284031215612ac257612ac1612a4a565b5b6000612ad084828501612a97565b91505092915050565b60008115159050919050565b612aee81612ad9565b82525050565b6000602082019050612b096000830184612ae5565b92915050565b600081519050919050565b600082825260208201905092915050565b60005b83811015612b49578082015181840152602081019050612b2e565b83811115612b58576000848401525b50505050565b6000601f19601f8301169050919050565b6000612b7a82612b0f565b612b848185612b1a565b9350612b94818560208601612b2b565b612b9d81612b5e565b840191505092915050565b60006020820190508181036000830152612bc28184612b6f565b905092915050565b6000819050919050565b612bdd81612bca565b8114612be857600080fd5b50565b600081359050612bfa81612bd4565b92915050565b600060208284031215612c1657612c15612a4a565b5b6000612c2484828501612beb565b91505092915050565b600073ffffffffffffffffffffffffffffffffffffffff82169050919050565b6000612c5882612c2d565b9050919050565b612c6881612c4d565b82525050565b6000602082019050612c836000830184612c5f565b92915050565b612c9281612c4d565b8114612c9d57600080fd5b50565b600081359050612caf81612c89565b92915050565b60008060408385031215612ccc57612ccb612a4a565b5b6000612cda85828601612ca0565b9250506020612ceb85828601612beb565b9150509250929050565b612cfe81612bca565b82525050565b6000602082019050612d196000830184612cf5565b92915050565b600080600060608486031215612d3857612d37612a4a565b5b6000612d4686828701612ca0565b9350506020612d5786828701612ca0565b9250506040612d6886828701612beb565b9150509250925092565b600060208284031215612d8857612d87612a4a565b5b6000612d9684828501612ca0565b91505092915050565b60008060008060808587031215612db957612db8612a4a565b5b6000612dc787828801612ca0565b9450506020612dd887828801612ca0565b9350506040612de987828801612beb565b9250506060612dfa87828801612beb565b91505092959194509250565b612e0f81612ad9565b8114612e1a57600080fd5b50565b600081359050612e2c81612e06565b92915050565b60008060408385031215612e4957612e48612a4a565b5b6000612e5785828601612ca0565b9250506020612e6885828601612e1d565b9150509250929050565b600080fd5b600080fd5b7f4e487b7100000000000000000000000000000000000000000000000000000000600052604160045260246000fd5b612eb482612b5e565b810181811067ffffffffffffffff82111715612ed357612ed2612e7c565b5b80604052505050565b6000612ee6612a40565b9050612ef28282612eab565b919050565b600067ffffffffffffffff821115612f1257612f11612e7c565b5b612f1b82612b5e565b9050602081019050919050565b82818337600083830152505050565b6000612f4a612f4584612ef7565b612edc565b905082815260208101848484011115612f6657612f65612e77565b5b612f71848285612f28565b509392505050565b600082601f830112612f8e57612f8d612e72565b5b8135612f9e848260208601612f37565b91505092915050565b60008060008060808587031215612fc157612fc0612a4a565b5b6000612fcf87828801612ca0565b9450506020612fe087828801612ca0565b9350506040612ff187828801612beb565b925050606085013567ffffffffffffffff81111561301257613011612a4f565b5b61301e87828801612f79565b91505092959194509250565b6000806040838503121561304157613040612a4a565b5b600061304f85828601612ca0565b925050602061306085828601612ca0565b9150509250929050565b600067ffffffffffffffff82111561308557613084612e7c565b5b61308e82612b5e565b9050602081019050919050565b60006130ae6130a98461306a565b612edc565b9050828152602081018484840111156130ca576130c9612e77565b5b6130d5848285612f28565b509392505050565b600082601f8301126130f2576130f1612e72565b5b813561310284826020860161309b565b91505092915050565b6000806040838503121561312257613121612a4a565b5b600061313085828601612ca0565b925050602083013567ffffffffffffffff81111561315157613150612a4f565b5b61315d858286016130dd565b9150509250929050565b7f4e487b7100000000000000000000000000000000000000000000000000000000600052602260045260246000fd5b600060028204905060018216806131ae57607f821691505b6020821081036131c1576131c0613167565b5b50919050565b7f4552433732313a20617070726f76656420717565727920666f72206e6f6e657860008201527f697374656e7420746f6b656e0000000000000000000000000000000000000000602082015250565b6000613223602c83612b1a565b915061322e826131c7565b604082019050919050565b6000602082019050818103600083015261325281613216565b9050919050565b7f4552433732313a20617070726f76616c20746f2063757272656e74206f776e6560008201527f7200000000000000000000000000000000000000000000000000000000000000602082015250565b60006132b5602183612b1a565b91506132c082613259565b604082019050919050565b600060208201905081810360008301526132e4816132a8565b9050919050565b7f4552433732313a20617070726f76652063616c6c6572206973206e6f74206f7760008201527f6e6572206e6f7220617070726f76656420666f7220616c6c0000000000000000602082015250565b6000613347603883612b1a565b9150613352826132eb565b604082019050919050565b600060208201905081810360008301526133768161333a565b9050919050565b7f4552433732313a207472616e736665722063616c6c6572206973206e6f74206f60008201527f776e6572206e6f7220617070726f766564000000000000000000000000000000602082015250565b60006133d9603183612b1a565b91506133e48261337d565b604082019050919050565b60006020820190508181036000830152613408816133cc565b9050919050565b7f4f776e61626c653a2063616c6c6572206973206e6f7420746865206f776e6572600082015250565b6000613445602083612b1a565b91506134508261340f565b602082019050919050565b6000602082019050818103600083015261347481613438565b9050919050565b7f4552433732313a206f776e657220717565727920666f72206e6f6e657869737460008201527f656e7420746f6b656e0000000000000000000000000000000000000000000000602082015250565b60006134d7602983612b1a565b91506134e28261347b565b604082019050919050565b60006020820190508181036000830152613506816134ca565b9050919050565b7f4552433732313a2062616c616e636520717565727920666f7220746865207a6560008201527f726f206164647265737300000000000000000000000000000000000000000000602082015250565b6000613569602a83612b1a565b91506135748261350d565b604082019050919050565b600060208201905081810360008301526135988161355c565b9050919050565b7f546f6b656e206f776e6572206973206e6f7420612073656c6c65720000000000600082015250565b60006135d5601b83612b1a565b91506135e08261359f565b602082019050919050565b60006020820190508181036000830152613604816135c8565b9050919050565b60008151905061361a81612bd4565b92915050565b60006020828403121561363657613635612a4a565b5b60006136448482850161360b565b91505092915050565b7f427579657220686173206e6f7420656e6f7567682062616c616e636500000000600082015250565b6000613683601c83612b1a565b915061368e8261364d565b602082019050919050565b600060208201905081810360008301526136b281613676565b9050919050565b60006060820190506136ce6000830186612c5f565b6136db6020830185612c5f565b6136e86040830184612cf5565b949350505050565b6000815190506136ff81612e06565b92915050565b60006020828403121561371b5761371a612a4a565b5b6000613729848285016136f0565b91505092915050565b7f45524337323155524953746f726167653a2055524920717565727920666f722060008201527f6e6f6e6578697374656e7420746f6b656e000000000000000000000000000000602082015250565b600061378e603183612b1a565b915061379982613732565b604082019050919050565b600060208201905081810360008301526137bd81613781565b9050919050565b600081905092915050565b60006137da82612b0f565b6137e481856137c4565b93506137f4818560208601612b2b565b80840191505092915050565b600061380c82856137cf565b915061381882846137cf565b91508190509392505050565b7f4e4654206f776e6572206973206e6f7420612063616c6c657200000000000000600082015250565b600061385a601983612b1a565b915061386582613824565b602082019050919050565b600060208201905081810360008301526138898161384d565b9050919050565b7f4e6f7420656e6f75676820746f6b656e2062616c616e63650000000000000000600082015250565b60006138c6601883612b1a565b91506138d182613890565b602082019050919050565b600060208201905081810360008301526138f5816138b9565b9050919050565b6000819050919050565b6000819050919050565b600061392b613926613921846138fc565b613906565b612bca565b9050919050565b61393b81613910565b82525050565b60006060820190506139566000830186612c5f565b6139636020830185612c5f565b6139706040830184613932565b949350505050565b600060608201905061398d6000830186612cf5565b61399a6020830185612cf5565b6139a76040830184612ae5565b949350505050565b6000819050919050565b60006139d46139cf6139ca846139af565b613906565b612bca565b9050919050565b6139e4816139b9565b82525050565b60006060820190506139ff6000830186612c5f565b613a0c6020830185612c5f565b613a1960408301846139db565b949350505050565b7f596f7572204974656d206973206e6f742075706772616461626c6520616e792060008201527f6d6f726500000000000000000000000000000000000000000000000000000000602082015250565b6000613a7d602483612b1a565b9150613a8882613a21565b604082019050919050565b60006020820190508181036000830152613aac81613a70565b9050919050565b7f436865636b207468617420796f7520736574207468652045524332302061646460008201527f7265737300000000000000000000000000000000000000000000000000000000602082015250565b6000613b0f602483612b1a565b9150613b1a82613ab3565b604082019050919050565b60006020820190508181036000830152613b3e81613b02565b9050919050565b7f4e6f7420656e6f7567682062616c616e63650000000000000000000000000000600082015250565b6000613b7b601283612b1a565b9150613b8682613b45565b602082019050919050565b60006020820190508181036000830152613baa81613b6e565b9050919050565b7f4f776e61626c653a206e6577206f776e657220697320746865207a65726f206160008201527f6464726573730000000000000000000000000000000000000000000000000000602082015250565b6000613c0d602683612b1a565b9150613c1882613bb1565b604082019050919050565b60006020820190508181036000830152613c3c81613c00565b9050919050565b7f4552433732313a206f70657261746f7220717565727920666f72206e6f6e657860008201527f697374656e7420746f6b656e0000000000000000000000000000000000000000602082015250565b6000613c9f602c83612b1a565b9150613caa82613c43565b604082019050919050565b60006020820190508181036000830152613cce81613c92565b9050919050565b7f4552433732313a207472616e736665722066726f6d20696e636f72726563742060008201527f6f776e6572000000000000000000000000000000000000000000000000000000602082015250565b6000613d31602583612b1a565b9150613d3c82613cd5565b604082019050919050565b60006020820190508181036000830152613d6081613d24565b9050919050565b7f4552433732313a207472616e7366657220746f20746865207a65726f2061646460008201527f7265737300000000000000000000000000000000000000000000000000000000602082015250565b6000613dc3602483612b1a565b9150613dce82613d67565b604082019050919050565b60006020820190508181036000830152613df281613db6565b9050919050565b7f4e487b7100000000000000000000000000000000000000000000000000000000600052601160045260246000fd5b6000613e3382612bca565b9150613e3e83612bca565b925082821015613e5157613e50613df9565b5b828203905092915050565b6000613e6782612bca565b9150613e7283612bca565b9250827fffffffffffffffffffffffffffffffffffffffffffffffffffffffffffffffff03821115613ea757613ea6613df9565b5b828201905092915050565b7f4552433732313a20617070726f766520746f2063616c6c657200000000000000600082015250565b6000613ee8601983612b1a565b9150613ef382613eb2565b602082019050919050565b60006020820190508181036000830152613f1781613edb565b9050919050565b7f4552433732313a207472616e7366657220746f206e6f6e20455243373231526560008201527f63656976657220696d706c656d656e7465720000000000000000000000000000602082015250565b6000613f7a603283612b1a565b9150613f8582613f1e565b604082019050919050565b60006020820190508181036000830152613fa981613f6d565b9050919050565b7f4552433732314d657461646174613a2055524920717565727920666f72206e6f60008201527f6e6578697374656e7420746f6b656e0000000000000000000000000000000000602082015250565b600061400c602f83612b1a565b915061401782613fb0565b604082019050919050565b6000602082019050818103600083015261403b81613fff565b9050919050565b6000819050919050565b61405d61405882612bca565b614042565b82525050565b600061406f828661404c565b60208201915061407f828561404c565b60208201915061408f828461404c565b602082019150819050949350505050565b7f4e487b7100000000000000000000000000000000000000000000000000000000600052601260045260246000fd5b60006140da82612bca565b91506140e583612bca565b9250826140f5576140f46140a0565b5b828206905092915050565b600061410b82612bca565b91507fffffffffffffffffffffffffffffffffffffffffffffffffffffffffffffffff820361413d5761413c613df9565b5b600182019050919050565b7f4552433732313a206d696e7420746f20746865207a65726f2061646472657373600082015250565b600061417e602083612b1a565b915061418982614148565b602082019050919050565b600060208201905081810360008301526141ad81614171565b9050919050565b7f4552433732313a20746f6b656e20616c7265616479206d696e74656400000000600082015250565b60006141ea601c83612b1a565b91506141f5826141b4565b602082019050919050565b60006020820190508181036000830152614219816141dd565b9050919050565b7f45524337323155524953746f726167653a2055524920736574206f66206e6f6e60008201527f6578697374656e7420746f6b656e000000000000000000000000000000000000602082015250565b600061427c602e83612b1a565b915061428782614220565b604082019050919050565b600060208201905081810360008301526142ab8161426f565b9050919050565b600081519050919050565b600082825260208201905092915050565b60006142d9826142b2565b6142e381856142bd565b93506142f3818560208601612b2b565b6142fc81612b5e565b840191505092915050565b600060808201905061431c6000830187612c5f565b6143296020830186612c5f565b6143366040830185612cf5565b818103606083015261434881846142ce565b905095945050505050565b60008151905061436281612a80565b92915050565b60006020828403121561437e5761437d612a4a565b5b600061438c84828501614353565b91505092915050565b60006143a082612bca565b91506143ab83612bca565b9250826143bb576143ba6140a0565b5b828204905092915050565b7f4e487b7100000000000000000000000000000000000000000000000000000000600052603260045260246000fdfea26469706673582212209da3bf74cd84592dabe5817eae4d9fafa73ce6568a2f3cc2c932e3481aecd4fc64736f6c634300080e0033",
  "immutableReferences": {},
  "source": "// SPDX-License-Identifier: MIT\npragma solidity ^0.8.10;\n\nimport \"openzeppelin-solidity/contracts/token/ERC721/ERC721.sol\";\nimport \"openzeppelin-solidity/contracts/utils/Counters.sol\";\nimport \"openzeppelin-solidity/contracts/access/Ownable.sol\";\nimport \"openzeppelin-solidity/contracts/token/ERC721/extensions/ERC721URIStorage.sol\";\nimport \"openzeppelin-solidity/contracts/token/ERC20/IERC20.sol\";\n\ncontract OLOG_ERC721 is ERC721URIStorage, Ownable {\n    using Counters for Counters.Counter;\n    Counters.Counter private _tokenIds;\n    IERC20 token;\n    uint256 nftPrice;\n    uint256 nonce;\n    event Upgrade(uint256 tokenId, uint256 reward_factor, bool success);\n    event Sold(address buyer, address seller, uint256 price);\n\n    constructor() ERC721(\"OlogNFTs\", \"OLOG\") {\n        nftPrice = 100;\n        nonce = 1;\n    }\n\n    mapping (uint256 => uint256) public reward_factor;\n    //reward_factor[tokenId] = NFT's reward_factor, begins with 1;\n\n    function mintNFT(address recipient, string memory tokenURI) public onlyOwner returns (uint256) {\n        require(token.balanceOf(recipient) >= 0, \"Check that you set the ERC20 address\" );\n        require(token.balanceOf(recipient) > nftPrice,\"Not enough balance\");\n\n        token.transferFrom(recipient, msg.sender, nftPrice); //msg.sender is server address\n        //If we use transferFrom like this, caller becomes NFT's contract address, not msg.sender which is the server\n        //transferFrom check allowance of caller not allowance of to(msg.sender). However, amount is deducted from caller's allowance.\n        \n        _tokenIds.increment();\n        uint256 newItemId = _tokenIds.current();\n        reward_factor[newItemId] = 1;\n        _mint(recipient, newItemId);\n        _setTokenURI(newItemId, tokenURI);\n        _approve(msg.sender, newItemId);\n\n\n        emit Sold(recipient, msg.sender, nftPrice);\n\n        return newItemId;\n    }\n\n    function setERC20Address (address tokenAddress) public onlyOwner returns (bool) {\n        require(tokenAddress != address(0x0));\n        token = IERC20(tokenAddress);\n        return true;\n    }\n\n    function UserNFTSold(address buyer,address seller, uint256 tokenId, uint256 tokenPaid) public onlyOwner returns(bool) {\n        require(seller == ownerOf(tokenId), \"Token owner is not a seller\");\n        require(token.balanceOf(buyer) >= tokenPaid, \"Buyer has not enough balance\" );\n        token.transferFrom(buyer, seller ,tokenPaid); //ERC20 Token payment\n        transferFrom(seller, buyer, tokenId); //ERC721 Token payment\n        emit Sold(buyer, seller, tokenPaid);\n        \n        return true;\n    }\n\n    function _randomDice () internal returns (uint256) {\n        uint256 randomNumber = uint256(keccak256(abi.encodePacked(block.timestamp,block.difficulty,nonce))) % 6;\n        randomNumber = randomNumber + 1;\n        nonce++;\n\n        return randomNumber;\n    }\n\n    function totalSupply() public view returns(uint256){\n        return _tokenIds.current();\n    }\n\n    function upgradeNFT (address owner, uint256 tokenId) public returns(uint256) {\n        require(owner == ownerOf(tokenId), \"NFT owner is not a caller\");\n        if (reward_factor[tokenId] == 1){\n            //token price to upgrade is 100\n            require(token.balanceOf(owner) >= 100, \"Not enough token balance\");\n            token.transferFrom(owner, msg.sender, 100);\n            uint256 diceResult = _randomDice();\n            if(diceResult == 1 || diceResult == 2){\n                //upgrade success\n                reward_factor[tokenId] = 2;\n                emit Upgrade(tokenId, reward_factor[tokenId], true);\n                return reward_factor[tokenId];\n            }\n            else{\n                emit Upgrade(tokenId, reward_factor[tokenId], false);\n                return reward_factor[tokenId];\n            }\n        }\n        else if (reward_factor[tokenId] == 2){\n            //token price to upgrade is 1000\n            require(token.balanceOf(owner) >= 1000, \"Not enough token balance\");\n            token.transferFrom(owner, msg.sender, 1000);\n            uint256 diceResult = _randomDice();\n            if(diceResult == 3){\n                //upgrade success\n                reward_factor[tokenId] = 3;\n                emit Upgrade(tokenId, reward_factor[tokenId], true);\n                return reward_factor[tokenId];\n            }\n            else{\n                emit Upgrade(tokenId, reward_factor[tokenId], false);\n                return reward_factor[tokenId];\n            }\n        }\n        else{\n            revert(\"Your Item is not upgradable any more\");\n        }\n    }\n}",
  "sourcePath": "/Users/yooseungjun/Desktop/blockchain/beb-04-O_log/OLOG_SERVER/truffle/contracts/ERC721Project.sol",
  "compiler": {
    "name": "solc",
    "version": "0.8.14+commit.80d49f37.Emscripten.clang"
  },
  "schemaVersion": "3.4.7",
  "updatedAt": "2022-06-26T08:02:00.812Z",
  "networkType": "ethereum",
  "devdoc": {
    "kind": "dev",
    "methods": {
      "approve(address,uint256)": {
        "details": "See {IERC721-approve}."
      },
      "balanceOf(address)": {
        "details": "See {IERC721-balanceOf}."
      },
      "getApproved(uint256)": {
        "details": "See {IERC721-getApproved}."
      },
      "isApprovedForAll(address,address)": {
        "details": "See {IERC721-isApprovedForAll}."
      },
      "name()": {
        "details": "See {IERC721Metadata-name}."
      },
      "owner()": {
        "details": "Returns the address of the current owner."
      },
      "ownerOf(uint256)": {
        "details": "See {IERC721-ownerOf}."
      },
      "renounceOwnership()": {
        "details": "Leaves the contract without owner. It will not be possible to call `onlyOwner` functions anymore. Can only be called by the current owner. NOTE: Renouncing ownership will leave the contract without an owner, thereby removing any functionality that is only available to the owner."
      },
      "safeTransferFrom(address,address,uint256)": {
        "details": "See {IERC721-safeTransferFrom}."
      },
      "safeTransferFrom(address,address,uint256,bytes)": {
        "details": "See {IERC721-safeTransferFrom}."
      },
      "setApprovalForAll(address,bool)": {
        "details": "See {IERC721-setApprovalForAll}."
      },
      "supportsInterface(bytes4)": {
        "details": "See {IERC165-supportsInterface}."
      },
      "symbol()": {
        "details": "See {IERC721Metadata-symbol}."
      },
      "tokenURI(uint256)": {
        "details": "See {IERC721Metadata-tokenURI}."
      },
      "transferFrom(address,address,uint256)": {
        "details": "See {IERC721-transferFrom}."
      },
      "transferOwnership(address)": {
        "details": "Transfers ownership of the contract to a new account (`newOwner`). Can only be called by the current owner."
      }
    },
    "version": 1
  },
  "userdoc": {
    "kind": "user",
    "methods": {},
    "version": 1
  }
}