{
  "contractName": "OLOG_ERC721",
  "abi": [
    {
      "inputs": [],
      "stateMutability": "nonpayable",
      "type": "constructor"
    },
    {
      "anonymous": false,
      "inputs": [
        {
          "indexed": true,
          "internalType": "address",
          "name": "owner",
          "type": "address"
        },
        {
          "indexed": true,
          "internalType": "address",
          "name": "approved",
          "type": "address"
        },
        {
          "indexed": true,
          "internalType": "uint256",
          "name": "tokenId",
          "type": "uint256"
        }
      ],
      "name": "Approval",
      "type": "event"
    },
    {
      "anonymous": false,
      "inputs": [
        {
          "indexed": true,
          "internalType": "address",
          "name": "owner",
          "type": "address"
        },
        {
          "indexed": true,
          "internalType": "address",
          "name": "operator",
          "type": "address"
        },
        {
          "indexed": false,
          "internalType": "bool",
          "name": "approved",
          "type": "bool"
        }
      ],
      "name": "ApprovalForAll",
      "type": "event"
    },
    {
      "anonymous": false,
      "inputs": [
        {
          "indexed": true,
          "internalType": "address",
          "name": "previousOwner",
          "type": "address"
        },
        {
          "indexed": true,
          "internalType": "address",
          "name": "newOwner",
          "type": "address"
        }
      ],
      "name": "OwnershipTransferred",
      "type": "event"
    },
    {
      "anonymous": false,
      "inputs": [
        {
          "indexed": false,
          "internalType": "address",
          "name": "buyer",
          "type": "address"
        },
        {
          "indexed": false,
          "internalType": "address",
          "name": "seller",
          "type": "address"
        },
        {
          "indexed": false,
          "internalType": "uint256",
          "name": "price",
          "type": "uint256"
        }
      ],
      "name": "Sold",
      "type": "event"
    },
    {
      "anonymous": false,
      "inputs": [
        {
          "indexed": true,
          "internalType": "address",
          "name": "from",
          "type": "address"
        },
        {
          "indexed": true,
          "internalType": "address",
          "name": "to",
          "type": "address"
        },
        {
          "indexed": true,
          "internalType": "uint256",
          "name": "tokenId",
          "type": "uint256"
        }
      ],
      "name": "Transfer",
      "type": "event"
    },
    {
      "anonymous": false,
      "inputs": [
        {
          "indexed": false,
          "internalType": "uint256",
          "name": "tokenId",
          "type": "uint256"
        },
        {
          "indexed": false,
          "internalType": "uint256",
          "name": "reward_factor",
          "type": "uint256"
        },
        {
          "indexed": false,
          "internalType": "bool",
          "name": "success",
          "type": "bool"
        }
      ],
      "name": "Upgrade",
      "type": "event"
    },
    {
      "inputs": [
        {
          "internalType": "address",
          "name": "to",
          "type": "address"
        },
        {
          "internalType": "uint256",
          "name": "tokenId",
          "type": "uint256"
        }
      ],
      "name": "approve",
      "outputs": [],
      "stateMutability": "nonpayable",
      "type": "function"
    },
    {
      "inputs": [
        {
          "internalType": "address",
          "name": "owner",
          "type": "address"
        }
      ],
      "name": "balanceOf",
      "outputs": [
        {
          "internalType": "uint256",
          "name": "",
          "type": "uint256"
        }
      ],
      "stateMutability": "view",
      "type": "function",
      "constant": true
    },
    {
      "inputs": [
        {
          "internalType": "uint256",
          "name": "tokenId",
          "type": "uint256"
        }
      ],
      "name": "getApproved",
      "outputs": [
        {
          "internalType": "address",
          "name": "",
          "type": "address"
        }
      ],
      "stateMutability": "view",
      "type": "function",
      "constant": true
    },
    {
      "inputs": [
        {
          "internalType": "address",
          "name": "owner",
          "type": "address"
        },
        {
          "internalType": "address",
          "name": "operator",
          "type": "address"
        }
      ],
      "name": "isApprovedForAll",
      "outputs": [
        {
          "internalType": "bool",
          "name": "",
          "type": "bool"
        }
      ],
      "stateMutability": "view",
      "type": "function",
      "constant": true
    },
    {
      "inputs": [],
      "name": "name",
      "outputs": [
        {
          "internalType": "string",
          "name": "",
          "type": "string"
        }
      ],
      "stateMutability": "view",
      "type": "function",
      "constant": true
    },
    {
      "inputs": [],
      "name": "owner",
      "outputs": [
        {
          "internalType": "address",
          "name": "",
          "type": "address"
        }
      ],
      "stateMutability": "view",
      "type": "function",
      "constant": true
    },
    {
      "inputs": [
        {
          "internalType": "uint256",
          "name": "tokenId",
          "type": "uint256"
        }
      ],
      "name": "ownerOf",
      "outputs": [
        {
          "internalType": "address",
          "name": "",
          "type": "address"
        }
      ],
      "stateMutability": "view",
      "type": "function",
      "constant": true
    },
    {
      "inputs": [],
      "name": "renounceOwnership",
      "outputs": [],
      "stateMutability": "nonpayable",
      "type": "function"
    },
    {
      "inputs": [
        {
          "internalType": "uint256",
          "name": "",
          "type": "uint256"
        }
      ],
      "name": "reward_factor",
      "outputs": [
        {
          "internalType": "uint256",
          "name": "",
          "type": "uint256"
        }
      ],
      "stateMutability": "view",
      "type": "function",
      "constant": true
    },
    {
      "inputs": [
        {
          "internalType": "address",
          "name": "from",
          "type": "address"
        },
        {
          "internalType": "address",
          "name": "to",
          "type": "address"
        },
        {
          "internalType": "uint256",
          "name": "tokenId",
          "type": "uint256"
        }
      ],
      "name": "safeTransferFrom",
      "outputs": [],
      "stateMutability": "nonpayable",
      "type": "function"
    },
    {
      "inputs": [
        {
          "internalType": "address",
          "name": "from",
          "type": "address"
        },
        {
          "internalType": "address",
          "name": "to",
          "type": "address"
        },
        {
          "internalType": "uint256",
          "name": "tokenId",
          "type": "uint256"
        },
        {
          "internalType": "bytes",
          "name": "_data",
          "type": "bytes"
        }
      ],
      "name": "safeTransferFrom",
      "outputs": [],
      "stateMutability": "nonpayable",
      "type": "function"
    },
    {
      "inputs": [
        {
          "internalType": "address",
          "name": "operator",
          "type": "address"
        },
        {
          "internalType": "bool",
          "name": "approved",
          "type": "bool"
        }
      ],
      "name": "setApprovalForAll",
      "outputs": [],
      "stateMutability": "nonpayable",
      "type": "function"
    },
    {
      "inputs": [
        {
          "internalType": "bytes4",
          "name": "interfaceId",
          "type": "bytes4"
        }
      ],
      "name": "supportsInterface",
      "outputs": [
        {
          "internalType": "bool",
          "name": "",
          "type": "bool"
        }
      ],
      "stateMutability": "view",
      "type": "function",
      "constant": true
    },
    {
      "inputs": [],
      "name": "symbol",
      "outputs": [
        {
          "internalType": "string",
          "name": "",
          "type": "string"
        }
      ],
      "stateMutability": "view",
      "type": "function",
      "constant": true
    },
    {
      "inputs": [
        {
          "internalType": "uint256",
          "name": "tokenId",
          "type": "uint256"
        }
      ],
      "name": "tokenURI",
      "outputs": [
        {
          "internalType": "string",
          "name": "",
          "type": "string"
        }
      ],
      "stateMutability": "view",
      "type": "function",
      "constant": true
    },
    {
      "inputs": [
        {
          "internalType": "address",
          "name": "from",
          "type": "address"
        },
        {
          "internalType": "address",
          "name": "to",
          "type": "address"
        },
        {
          "internalType": "uint256",
          "name": "tokenId",
          "type": "uint256"
        }
      ],
      "name": "transferFrom",
      "outputs": [],
      "stateMutability": "nonpayable",
      "type": "function"
    },
    {
      "inputs": [
        {
          "internalType": "address",
          "name": "newOwner",
          "type": "address"
        }
      ],
      "name": "transferOwnership",
      "outputs": [],
      "stateMutability": "nonpayable",
      "type": "function"
    },
    {
      "inputs": [
        {
          "internalType": "address",
          "name": "recipient",
          "type": "address"
        },
        {
          "internalType": "string",
          "name": "tokenURI",
          "type": "string"
        }
      ],
      "name": "mintNFT",
      "outputs": [
        {
          "internalType": "uint256",
          "name": "",
          "type": "uint256"
        }
      ],
      "stateMutability": "nonpayable",
      "type": "function"
    },
    {
      "inputs": [
        {
          "internalType": "address",
          "name": "tokenAddress",
          "type": "address"
        }
      ],
      "name": "setERC20Address",
      "outputs": [
        {
          "internalType": "bool",
          "name": "",
          "type": "bool"
        }
      ],
      "stateMutability": "nonpayable",
      "type": "function"
    },
    {
      "inputs": [
        {
          "internalType": "address",
          "name": "buyer",
          "type": "address"
        },
        {
          "internalType": "address",
          "name": "seller",
          "type": "address"
        },
        {
          "internalType": "uint256",
          "name": "tokenId",
          "type": "uint256"
        },
        {
          "internalType": "uint256",
          "name": "tokenPaid",
          "type": "uint256"
        }
      ],
      "name": "UserNFTSold",
      "outputs": [
        {
          "internalType": "bool",
          "name": "",
          "type": "bool"
        }
      ],
      "stateMutability": "nonpayable",
      "type": "function"
    },
    {
      "inputs": [],
      "name": "totalSupply",
      "outputs": [
        {
          "internalType": "uint256",
          "name": "",
          "type": "uint256"
        }
      ],
      "stateMutability": "view",
      "type": "function",
      "constant": true
    },
    {
      "inputs": [
        {
          "internalType": "address",
          "name": "owner",
          "type": "address"
        },
        {
          "internalType": "uint256",
          "name": "tokenId",
          "type": "uint256"
        }
      ],
      "name": "upgradeNFT",
      "outputs": [
        {
          "internalType": "uint256",
          "name": "",
          "type": "uint256"
        }
      ],
      "stateMutability": "nonpayable",
      "type": "function"
    },
    {
      "inputs": [
        {
          "internalType": "uint256",
          "name": "tokenId",
          "type": "uint256"
        }
      ],
      "name": "rewardFactorOf",
      "outputs": [
        {
          "internalType": "uint256",
          "name": "",
          "type": "uint256"
        }
      ],
      "stateMutability": "view",
      "type": "function",
      "constant": true
    }
  ],
  "bytecode": "0x60806040523480156200001157600080fd5b506040518060400160405280600881526020017f4f6c6f674e4654730000000000000000000000000000000000000000000000008152506040518060400160405280600481526020017f4f4c4f4700000000000000000000000000000000000000000000000000000000815250816000908051906020019062000096929190620001b6565b508060019080519060200190620000af929190620001b6565b505050620000d2620000c6620000e860201b60201c565b620000f060201b60201c565b6064600a819055506001600b81905550620002cb565b600033905090565b6000600760009054906101000a900473ffffffffffffffffffffffffffffffffffffffff16905081600760006101000a81548173ffffffffffffffffffffffffffffffffffffffff021916908373ffffffffffffffffffffffffffffffffffffffff1602179055508173ffffffffffffffffffffffffffffffffffffffff168173ffffffffffffffffffffffffffffffffffffffff167f8be0079c531659141344cd1fd0a4f28419497f9722a3daafe3b4186f6b6457e060405160405180910390a35050565b828054620001c49062000266565b90600052602060002090601f016020900481019282620001e8576000855562000234565b82601f106200020357805160ff191683800117855562000234565b8280016001018555821562000234579182015b828111156200023357825182559160200191906001019062000216565b5b50905062000243919062000247565b5090565b5b808211156200026257600081600090555060010162000248565b5090565b600060028204905060018216806200027f57607f821691505b602082108114156200029657620002956200029c565b5b50919050565b7f4e487b7100000000000000000000000000000000000000000000000000000000600052602260045260246000fd5b61437180620002db6000396000f3fe608060405234801561001057600080fd5b506004361061014d5760003560e01c806376a89298116100c3578063b88d4fde1161007c578063b88d4fde146103c4578063c87b56dd146103e0578063d3b3b7f914610410578063e985e9c514610440578063eacabe1414610470578063f2fde38b146104a05761014d565b806376a89298146102dc57806383f262051461030c5780638da5cb5b1461033c57806395d89b411461035a57806397c0ae5314610378578063a22cb465146103a85761014d565b806323b872dd1161011557806323b872dd1461020a57806341bec0d21461022657806342842e0e146102565780636352211e1461027257806370a08231146102a2578063715018a6146102d25761014d565b806301ffc9a71461015257806306fdde0314610182578063081812fc146101a0578063095ea7b3146101d057806318160ddd146101ec575b600080fd5b61016c60048036038101906101679190612f8e565b6104bc565b6040516101799190613b44565b60405180910390f35b61018a61059e565b6040516101979190613b5f565b60405180910390f35b6101ba60048036038101906101b59190612fe0565b610630565b6040516101c79190613a38565b60405180910390f35b6101ea60048036038101906101e59190612f29565b6106b5565b005b6101f46107cd565b6040516102019190613ea1565b60405180910390f35b610224600480360381019061021f9190612d6c565b6107de565b005b610240600480360381019061023b9190612d07565b61083e565b60405161024d9190613b44565b60405180910390f35b610270600480360381019061026b9190612d6c565b610940565b005b61028c60048036038101906102879190612fe0565b610960565b6040516102999190613a38565b60405180910390f35b6102bc60048036038101906102b79190612d07565b610a12565b6040516102c99190613ea1565b60405180910390f35b6102da610aca565b005b6102f660048036038101906102f19190612fe0565b610b52565b6040516103039190613ea1565b60405180910390f35b61032660048036038101906103219190612e36565b610b6f565b6040516103339190613b44565b60405180910390f35b610344610e54565b6040516103519190613a38565b60405180910390f35b610362610e7e565b60405161036f9190613b5f565b60405180910390f35b610392600480360381019061038d9190612fe0565b610f10565b60405161039f9190613ea1565b60405180910390f35b6103c260048036038101906103bd9190612e99565b610f28565b005b6103de60048036038101906103d99190612dbb565b610f3e565b005b6103fa60048036038101906103f59190612fe0565b610fa0565b6040516104079190613b5f565b60405180910390f35b61042a60048036038101906104259190612f29565b6110f2565b6040516104379190613ea1565b60405180910390f35b61045a60048036038101906104559190612d30565b61173a565b6040516104679190613b44565b60405180910390f35b61048a60048036038101906104859190612ed5565b6117ce565b6040516104979190613ea1565b60405180910390f35b6104ba60048036038101906104b59190612d07565b611b72565b005b60007f80ac58cd000000000000000000000000000000000000000000000000000000007bffffffffffffffffffffffffffffffffffffffffffffffffffffffff1916827bffffffffffffffffffffffffffffffffffffffffffffffffffffffff1916148061058757507f5b5e139f000000000000000000000000000000000000000000000000000000007bffffffffffffffffffffffffffffffffffffffffffffffffffffffff1916827bffffffffffffffffffffffffffffffffffffffffffffffffffffffff1916145b80610597575061059682611c6a565b5b9050919050565b6060600080546105ad9061415c565b80601f01602080910402602001604051908101604052809291908181526020018280546105d99061415c565b80156106265780601f106105fb57610100808354040283529160200191610626565b820191906000526020600020905b81548152906001019060200180831161060957829003601f168201915b5050505050905090565b600061063b82611cd4565b61067a576040517f08c379a000000000000000000000000000000000000000000000000000000000815260040161067190613da1565b60405180910390fd5b6004600083815260200190815260200160002060009054906101000a900473ffffffffffffffffffffffffffffffffffffffff169050919050565b60006106c082610960565b90508073ffffffffffffffffffffffffffffffffffffffff168373ffffffffffffffffffffffffffffffffffffffff161415610731576040517f08c379a000000000000000000000000000000000000000000000000000000000815260040161072890613e01565b60405180910390fd5b8073ffffffffffffffffffffffffffffffffffffffff16610750611d40565b73ffffffffffffffffffffffffffffffffffffffff16148061077f575061077e81610779611d40565b61173a565b5b6107be576040517f08c379a00000000000000000000000000000000000000000000000000000000081526004016107b590613ce1565b60405180910390fd5b6107c88383611d48565b505050565b60006107d96008611e01565b905090565b6107ef6107e9611d40565b82611e0f565b61082e576040517f08c379a000000000000000000000000000000000000000000000000000000000815260040161082590613e21565b60405180910390fd5b610839838383611eed565b505050565b6000610848611d40565b73ffffffffffffffffffffffffffffffffffffffff16610866610e54565b73ffffffffffffffffffffffffffffffffffffffff16146108bc576040517f08c379a00000000000000000000000000000000000000000000000000000000081526004016108b390613dc1565b60405180910390fd5b600073ffffffffffffffffffffffffffffffffffffffff168273ffffffffffffffffffffffffffffffffffffffff1614156108f657600080fd5b81600960006101000a81548173ffffffffffffffffffffffffffffffffffffffff021916908373ffffffffffffffffffffffffffffffffffffffff16021790555060019050919050565b61095b83838360405180602001604052806000815250610f3e565b505050565b6000806002600084815260200190815260200160002060009054906101000a900473ffffffffffffffffffffffffffffffffffffffff169050600073ffffffffffffffffffffffffffffffffffffffff168173ffffffffffffffffffffffffffffffffffffffff161415610a09576040517f08c379a0000000000000000000000000000000000000000000000000000000008152600401610a0090613d21565b60405180910390fd5b80915050919050565b60008073ffffffffffffffffffffffffffffffffffffffff168273ffffffffffffffffffffffffffffffffffffffff161415610a83576040517f08c379a0000000000000000000000000000000000000000000000000000000008152600401610a7a90613d01565b60405180910390fd5b600360008373ffffffffffffffffffffffffffffffffffffffff1673ffffffffffffffffffffffffffffffffffffffff168152602001908152602001600020549050919050565b610ad2611d40565b73ffffffffffffffffffffffffffffffffffffffff16610af0610e54565b73ffffffffffffffffffffffffffffffffffffffff1614610b46576040517f08c379a0000000000000000000000000000000000000000000000000000000008152600401610b3d90613dc1565b60405180910390fd5b610b506000612154565b565b6000600c6000838152602001908152602001600020549050919050565b6000610b79611d40565b73ffffffffffffffffffffffffffffffffffffffff16610b97610e54565b73ffffffffffffffffffffffffffffffffffffffff1614610bed576040517f08c379a0000000000000000000000000000000000000000000000000000000008152600401610be490613dc1565b60405180910390fd5b610bf683610960565b73ffffffffffffffffffffffffffffffffffffffff168473ffffffffffffffffffffffffffffffffffffffff1614610c63576040517f08c379a0000000000000000000000000000000000000000000000000000000008152600401610c5a90613e61565b60405180910390fd5b81600960009054906101000a900473ffffffffffffffffffffffffffffffffffffffff1673ffffffffffffffffffffffffffffffffffffffff166370a08231876040518263ffffffff1660e01b8152600401610cbf9190613a38565b60206040518083038186803b158015610cd757600080fd5b505afa158015610ceb573d6000803e3d6000fd5b505050506040513d601f19601f82011682018060405250810190610d0f9190613009565b1015610d50576040517f08c379a0000000000000000000000000000000000000000000000000000000008152600401610d4790613e41565b60405180910390fd5b600960009054906101000a900473ffffffffffffffffffffffffffffffffffffffff1673ffffffffffffffffffffffffffffffffffffffff166323b872dd8686856040518463ffffffff1660e01b8152600401610daf93929190613ac1565b602060405180830381600087803b158015610dc957600080fd5b505af1158015610ddd573d6000803e3d6000fd5b505050506040513d601f19601f82011682018060405250810190610e019190612f65565b50610e0d8486856107de565b7ff3ecb4dab83f41da3035ff9cb3a2ef0c3027ebb89ae4e4b822d7c109e869a2fc858584604051610e4093929190613ac1565b60405180910390a160019050949350505050565b6000600760009054906101000a900473ffffffffffffffffffffffffffffffffffffffff16905090565b606060018054610e8d9061415c565b80601f0160208091040260200160405190810160405280929190818152602001828054610eb99061415c565b8015610f065780601f10610edb57610100808354040283529160200191610f06565b820191906000526020600020905b815481529060010190602001808311610ee957829003601f168201915b5050505050905090565b600c6020528060005260406000206000915090505481565b610f3a610f33611d40565b838361221a565b5050565b610f4f610f49611d40565b83611e0f565b610f8e576040517f08c379a0000000000000000000000000000000000000000000000000000000008152600401610f8590613e21565b60405180910390fd5b610f9a84848484612387565b50505050565b6060610fab82611cd4565b610fea576040517f08c379a0000000000000000000000000000000000000000000000000000000008152600401610fe190613d81565b60405180910390fd5b600060066000848152602001908152602001600020805461100a9061415c565b80601f01602080910402602001604051908101604052809291908181526020018280546110369061415c565b80156110835780601f1061105857610100808354040283529160200191611083565b820191906000526020600020905b81548152906001019060200180831161106657829003601f168201915b5050505050905060006110946123e3565b90506000815114156110aa5781925050506110ed565b6000825111156110df5780826040516020016110c79291906139d7565b604051602081830303815290604052925050506110ed565b6110e8846123fa565b925050505b919050565b60006110fd82610960565b73ffffffffffffffffffffffffffffffffffffffff168373ffffffffffffffffffffffffffffffffffffffff161461116a576040517f08c379a000000000000000000000000000000000000000000000000000000000815260040161116190613c41565b60405180910390fd5b6001600c6000848152602001908152602001600020541415611436576064600960009054906101000a900473ffffffffffffffffffffffffffffffffffffffff1673ffffffffffffffffffffffffffffffffffffffff166370a08231856040518263ffffffff1660e01b81526004016111e39190613a38565b60206040518083038186803b1580156111fb57600080fd5b505afa15801561120f573d6000803e3d6000fd5b505050506040513d601f19601f820116820180604052508101906112339190613009565b1015611274576040517f08c379a000000000000000000000000000000000000000000000000000000000815260040161126b90613e81565b60405180910390fd5b600960009054906101000a900473ffffffffffffffffffffffffffffffffffffffff1673ffffffffffffffffffffffffffffffffffffffff166323b872dd843360646040518463ffffffff1660e01b81526004016112d493929190613a8a565b602060405180830381600087803b1580156112ee57600080fd5b505af1158015611302573d6000803e3d6000fd5b505050506040513d601f19601f820116820180604052508101906113269190612f65565b5060006113316124a1565b905060018114806113425750600281145b156113cb576002600c6000858152602001908152602001600020819055507fd93f581963686f2d2464a8264cb60bce3aaf5796675ec58a33877b451340ff1983600c60008681526020019081526020016000205460016040516113a793929190613ebc565b60405180910390a1600c600084815260200190815260200160002054915050611734565b7fd93f581963686f2d2464a8264cb60bce3aaf5796675ec58a33877b451340ff1983600c600086815260200190815260200160002054600060405161141293929190613ebc565b60405180910390a1600c600084815260200190815260200160002054915050611734565b6002600c60008481526020019081526020016000205414156116f9576103e8600960009054906101000a900473ffffffffffffffffffffffffffffffffffffffff1673ffffffffffffffffffffffffffffffffffffffff166370a08231856040518263ffffffff1660e01b81526004016114b09190613a38565b60206040518083038186803b1580156114c857600080fd5b505afa1580156114dc573d6000803e3d6000fd5b505050506040513d601f19601f820116820180604052508101906115009190613009565b1015611541576040517f08c379a000000000000000000000000000000000000000000000000000000000815260040161153890613e81565b60405180910390fd5b600960009054906101000a900473ffffffffffffffffffffffffffffffffffffffff1673ffffffffffffffffffffffffffffffffffffffff166323b872dd84336103e86040518463ffffffff1660e01b81526004016115a293929190613a53565b602060405180830381600087803b1580156115bc57600080fd5b505af11580156115d0573d6000803e3d6000fd5b505050506040513d601f19601f820116820180604052508101906115f49190612f65565b5060006115ff6124a1565b9050600381141561168e576003600c6000858152602001908152602001600020819055507fd93f581963686f2d2464a8264cb60bce3aaf5796675ec58a33877b451340ff1983600c600086815260200190815260200160002054600160405161166a93929190613ebc565b60405180910390a1600c600084815260200190815260200160002054915050611734565b7fd93f581963686f2d2464a8264cb60bce3aaf5796675ec58a33877b451340ff1983600c60008681526020019081526020016000205460006040516116d593929190613ebc565b60405180910390a1600c600084815260200190815260200160002054915050611734565b6040517f08c379a000000000000000000000000000000000000000000000000000000000815260040161172b90613ca1565b60405180910390fd5b92915050565b6000600560008473ffffffffffffffffffffffffffffffffffffffff1673ffffffffffffffffffffffffffffffffffffffff16815260200190815260200160002060008373ffffffffffffffffffffffffffffffffffffffff1673ffffffffffffffffffffffffffffffffffffffff16815260200190815260200160002060009054906101000a900460ff16905092915050565b60006117d8611d40565b73ffffffffffffffffffffffffffffffffffffffff166117f6610e54565b73ffffffffffffffffffffffffffffffffffffffff161461184c576040517f08c379a000000000000000000000000000000000000000000000000000000000815260040161184390613dc1565b60405180910390fd5b6000600960009054906101000a900473ffffffffffffffffffffffffffffffffffffffff1673ffffffffffffffffffffffffffffffffffffffff166370a08231856040518263ffffffff1660e01b81526004016118a99190613a38565b60206040518083038186803b1580156118c157600080fd5b505afa1580156118d5573d6000803e3d6000fd5b505050506040513d601f19601f820116820180604052508101906118f99190613009565b101561193a576040517f08c379a000000000000000000000000000000000000000000000000000000000815260040161193190613c81565b60405180910390fd5b600a54600960009054906101000a900473ffffffffffffffffffffffffffffffffffffffff1673ffffffffffffffffffffffffffffffffffffffff166370a08231856040518263ffffffff1660e01b81526004016119989190613a38565b60206040518083038186803b1580156119b057600080fd5b505afa1580156119c4573d6000803e3d6000fd5b505050506040513d601f19601f820116820180604052508101906119e89190613009565b11611a28576040517f08c379a0000000000000000000000000000000000000000000000000000000008152600401611a1f90613cc1565b60405180910390fd5b600960009054906101000a900473ffffffffffffffffffffffffffffffffffffffff1673ffffffffffffffffffffffffffffffffffffffff166323b872dd8433600a546040518463ffffffff1660e01b8152600401611a8993929190613ac1565b602060405180830381600087803b158015611aa357600080fd5b505af1158015611ab7573d6000803e3d6000fd5b505050506040513d601f19601f82011682018060405250810190611adb9190612f65565b50611ae66008612510565b6000611af26008611e01565b90506001600c600083815260200190815260200160002081905550611b178482612526565b611b218184612700565b611b2b3382611d48565b7ff3ecb4dab83f41da3035ff9cb3a2ef0c3027ebb89ae4e4b822d7c109e869a2fc8433600a54604051611b6093929190613ac1565b60405180910390a18091505092915050565b611b7a611d40565b73ffffffffffffffffffffffffffffffffffffffff16611b98610e54565b73ffffffffffffffffffffffffffffffffffffffff1614611bee576040517f08c379a0000000000000000000000000000000000000000000000000000000008152600401611be590613dc1565b60405180910390fd5b600073ffffffffffffffffffffffffffffffffffffffff168173ffffffffffffffffffffffffffffffffffffffff161415611c5e576040517f08c379a0000000000000000000000000000000000000000000000000000000008152600401611c5590613ba1565b60405180910390fd5b611c6781612154565b50565b60007f01ffc9a7000000000000000000000000000000000000000000000000000000007bffffffffffffffffffffffffffffffffffffffffffffffffffffffff1916827bffffffffffffffffffffffffffffffffffffffffffffffffffffffff1916149050919050565b60008073ffffffffffffffffffffffffffffffffffffffff166002600084815260200190815260200160002060009054906101000a900473ffffffffffffffffffffffffffffffffffffffff1673ffffffffffffffffffffffffffffffffffffffff1614159050919050565b600033905090565b816004600083815260200190815260200160002060006101000a81548173ffffffffffffffffffffffffffffffffffffffff021916908373ffffffffffffffffffffffffffffffffffffffff160217905550808273ffffffffffffffffffffffffffffffffffffffff16611dbb83610960565b73ffffffffffffffffffffffffffffffffffffffff167f8c5be1e5ebec7d5bd14f71427d1e84f3dd0314c0f7b2291e5b200ac8c7c3b92560405160405180910390a45050565b600081600001549050919050565b6000611e1a82611cd4565b611e59576040517f08c379a0000000000000000000000000000000000000000000000000000000008152600401611e5090613c61565b60405180910390fd5b6000611e6483610960565b90508073ffffffffffffffffffffffffffffffffffffffff168473ffffffffffffffffffffffffffffffffffffffff161480611ea65750611ea5818561173a565b5b80611ee457508373ffffffffffffffffffffffffffffffffffffffff16611ecc84610630565b73ffffffffffffffffffffffffffffffffffffffff16145b91505092915050565b8273ffffffffffffffffffffffffffffffffffffffff16611f0d82610960565b73ffffffffffffffffffffffffffffffffffffffff1614611f63576040517f08c379a0000000000000000000000000000000000000000000000000000000008152600401611f5a90613bc1565b60405180910390fd5b600073ffffffffffffffffffffffffffffffffffffffff168273ffffffffffffffffffffffffffffffffffffffff161415611fd3576040517f08c379a0000000000000000000000000000000000000000000000000000000008152600401611fca90613c01565b60405180910390fd5b611fde838383612774565b611fe9600082611d48565b6001600360008573ffffffffffffffffffffffffffffffffffffffff1673ffffffffffffffffffffffffffffffffffffffff1681526020019081526020016000206000828254612039919061404e565b925050819055506001600360008473ffffffffffffffffffffffffffffffffffffffff1673ffffffffffffffffffffffffffffffffffffffff16815260200190815260200160002060008282546120909190613fc7565b92505081905550816002600083815260200190815260200160002060006101000a81548173ffffffffffffffffffffffffffffffffffffffff021916908373ffffffffffffffffffffffffffffffffffffffff160217905550808273ffffffffffffffffffffffffffffffffffffffff168473ffffffffffffffffffffffffffffffffffffffff167fddf252ad1be2c89b69c2b068fc378daa952ba7f163c4a11628f55a4df523b3ef60405160405180910390a461214f838383612779565b505050565b6000600760009054906101000a900473ffffffffffffffffffffffffffffffffffffffff16905081600760006101000a81548173ffffffffffffffffffffffffffffffffffffffff021916908373ffffffffffffffffffffffffffffffffffffffff1602179055508173ffffffffffffffffffffffffffffffffffffffff168173ffffffffffffffffffffffffffffffffffffffff167f8be0079c531659141344cd1fd0a4f28419497f9722a3daafe3b4186f6b6457e060405160405180910390a35050565b8173ffffffffffffffffffffffffffffffffffffffff168373ffffffffffffffffffffffffffffffffffffffff161415612289576040517f08c379a000000000000000000000000000000000000000000000000000000000815260040161228090613c21565b60405180910390fd5b80600560008573ffffffffffffffffffffffffffffffffffffffff1673ffffffffffffffffffffffffffffffffffffffff16815260200190815260200160002060008473ffffffffffffffffffffffffffffffffffffffff1673ffffffffffffffffffffffffffffffffffffffff16815260200190815260200160002060006101000a81548160ff0219169083151502179055508173ffffffffffffffffffffffffffffffffffffffff168373ffffffffffffffffffffffffffffffffffffffff167f17307eab39ab6107e8899845ad3d59bd9653f200f220920489ca2b5937696c318360405161237a9190613b44565b60405180910390a3505050565b612392848484611eed565b61239e8484848461277e565b6123dd576040517f08c379a00000000000000000000000000000000000000000000000000000000081526004016123d490613b81565b60405180910390fd5b50505050565b606060405180602001604052806000815250905090565b606061240582611cd4565b612444576040517f08c379a000000000000000000000000000000000000000000000000000000000815260040161243b90613de1565b60405180910390fd5b600061244e6123e3565b9050600081511161246e5760405180602001604052806000815250612499565b8061247884612915565b6040516020016124899291906139d7565b6040516020818303038152906040525b915050919050565b60008060064244600b546040516020016124bd939291906139fb565b6040516020818303038152906040528051906020012060001c6124e091906141e1565b90506001816124ef9190613fc7565b9050600b60008154809291906125049061418e565b91905055508091505090565b6001816000016000828254019250508190555050565b600073ffffffffffffffffffffffffffffffffffffffff168273ffffffffffffffffffffffffffffffffffffffff161415612596576040517f08c379a000000000000000000000000000000000000000000000000000000000815260040161258d90613d61565b60405180910390fd5b61259f81611cd4565b156125df576040517f08c379a00000000000000000000000000000000000000000000000000000000081526004016125d690613be1565b60405180910390fd5b6125eb60008383612774565b6001600360008473ffffffffffffffffffffffffffffffffffffffff1673ffffffffffffffffffffffffffffffffffffffff168152602001908152602001600020600082825461263b9190613fc7565b92505081905550816002600083815260200190815260200160002060006101000a81548173ffffffffffffffffffffffffffffffffffffffff021916908373ffffffffffffffffffffffffffffffffffffffff160217905550808273ffffffffffffffffffffffffffffffffffffffff16600073ffffffffffffffffffffffffffffffffffffffff167fddf252ad1be2c89b69c2b068fc378daa952ba7f163c4a11628f55a4df523b3ef60405160405180910390a46126fc60008383612779565b5050565b61270982611cd4565b612748576040517f08c379a000000000000000000000000000000000000000000000000000000000815260040161273f90613d41565b60405180910390fd5b8060066000848152602001908152602001600020908051906020019061276f929190612b01565b505050565b505050565b505050565b600061279f8473ffffffffffffffffffffffffffffffffffffffff16612ac2565b15612908578373ffffffffffffffffffffffffffffffffffffffff1663150b7a026127c8611d40565b8786866040518563ffffffff1660e01b81526004016127ea9493929190613af8565b602060405180830381600087803b15801561280457600080fd5b505af192505050801561283557506040513d601f19601f820116820180604052508101906128329190612fb7565b60015b6128b8573d8060008114612865576040519150601f19603f3d011682016040523d82523d6000602084013e61286a565b606091505b506000815114156128b0576040517f08c379a00000000000000000000000000000000000000000000000000000000081526004016128a790613b81565b60405180910390fd5b805181602001fd5b63150b7a0260e01b7bffffffffffffffffffffffffffffffffffffffffffffffffffffffff1916817bffffffffffffffffffffffffffffffffffffffffffffffffffffffff19161491505061290d565b600190505b949350505050565b6060600082141561295d576040518060400160405280600181526020017f30000000000000000000000000000000000000000000000000000000000000008152509050612abd565b600082905060005b6000821461298f5780806129789061418e565b915050600a82612988919061401d565b9150612965565b60008167ffffffffffffffff8111156129d1577f4e487b7100000000000000000000000000000000000000000000000000000000600052604160045260246000fd5b6040519080825280601f01601f191660200182016040528015612a035781602001600182028036833780820191505090505b5090505b60008514612ab657600182612a1c919061404e565b9150600a85612a2b91906141e1565b6030612a379190613fc7565b60f81b818381518110612a73577f4e487b7100000000000000000000000000000000000000000000000000000000600052603260045260246000fd5b60200101907effffffffffffffffffffffffffffffffffffffffffffffffffffffffffffff1916908160001a905350600a85612aaf919061401d565b9450612a07565b8093505050505b919050565b6000808273ffffffffffffffffffffffffffffffffffffffff16803b806020016040519081016040528181526000908060200190933c51119050919050565b828054612b0d9061415c565b90600052602060002090601f016020900481019282612b2f5760008555612b76565b82601f10612b4857805160ff1916838001178555612b76565b82800160010185558215612b76579182015b82811115612b75578251825591602001919060010190612b5a565b5b509050612b839190612b87565b5090565b5b80821115612ba0576000816000905550600101612b88565b5090565b6000612bb7612bb284613f24565b613ef3565b905082815260208101848484011115612bcf57600080fd5b612bda84828561411a565b509392505050565b6000612bf5612bf084613f54565b613ef3565b905082815260208101848484011115612c0d57600080fd5b612c1884828561411a565b509392505050565b600081359050612c2f816142df565b92915050565b600081359050612c44816142f6565b92915050565b600081519050612c59816142f6565b92915050565b600081359050612c6e8161430d565b92915050565b600081519050612c838161430d565b92915050565b600082601f830112612c9a57600080fd5b8135612caa848260208601612ba4565b91505092915050565b600082601f830112612cc457600080fd5b8135612cd4848260208601612be2565b91505092915050565b600081359050612cec81614324565b92915050565b600081519050612d0181614324565b92915050565b600060208284031215612d1957600080fd5b6000612d2784828501612c20565b91505092915050565b60008060408385031215612d4357600080fd5b6000612d5185828601612c20565b9250506020612d6285828601612c20565b9150509250929050565b600080600060608486031215612d8157600080fd5b6000612d8f86828701612c20565b9350506020612da086828701612c20565b9250506040612db186828701612cdd565b9150509250925092565b60008060008060808587031215612dd157600080fd5b6000612ddf87828801612c20565b9450506020612df087828801612c20565b9350506040612e0187828801612cdd565b925050606085013567ffffffffffffffff811115612e1e57600080fd5b612e2a87828801612c89565b91505092959194509250565b60008060008060808587031215612e4c57600080fd5b6000612e5a87828801612c20565b9450506020612e6b87828801612c20565b9350506040612e7c87828801612cdd565b9250506060612e8d87828801612cdd565b91505092959194509250565b60008060408385031215612eac57600080fd5b6000612eba85828601612c20565b9250506020612ecb85828601612c35565b9150509250929050565b60008060408385031215612ee857600080fd5b6000612ef685828601612c20565b925050602083013567ffffffffffffffff811115612f1357600080fd5b612f1f85828601612cb3565b9150509250929050565b60008060408385031215612f3c57600080fd5b6000612f4a85828601612c20565b9250506020612f5b85828601612cdd565b9150509250929050565b600060208284031215612f7757600080fd5b6000612f8584828501612c4a565b91505092915050565b600060208284031215612fa057600080fd5b6000612fae84828501612c5f565b91505092915050565b600060208284031215612fc957600080fd5b6000612fd784828501612c74565b91505092915050565b600060208284031215612ff257600080fd5b600061300084828501612cdd565b91505092915050565b60006020828403121561301b57600080fd5b600061302984828501612cf2565b91505092915050565b61303b81614082565b82525050565b61304a81614094565b82525050565b600061305b82613f84565b6130658185613f9a565b9350613075818560208601614129565b61307e816142ce565b840191505092915050565b613092816140f6565b82525050565b6130a181614108565b82525050565b60006130b282613f8f565b6130bc8185613fab565b93506130cc818560208601614129565b6130d5816142ce565b840191505092915050565b60006130eb82613f8f565b6130f58185613fbc565b9350613105818560208601614129565b80840191505092915050565b600061311e603283613fab565b91507f4552433732313a207472616e7366657220746f206e6f6e20455243373231526560008301527f63656976657220696d706c656d656e74657200000000000000000000000000006020830152604082019050919050565b6000613184602683613fab565b91507f4f776e61626c653a206e6577206f776e657220697320746865207a65726f206160008301527f64647265737300000000000000000000000000000000000000000000000000006020830152604082019050919050565b60006131ea602583613fab565b91507f4552433732313a207472616e736665722066726f6d20696e636f72726563742060008301527f6f776e65720000000000000000000000000000000000000000000000000000006020830152604082019050919050565b6000613250601c83613fab565b91507f4552433732313a20746f6b656e20616c7265616479206d696e746564000000006000830152602082019050919050565b6000613290602483613fab565b91507f4552433732313a207472616e7366657220746f20746865207a65726f2061646460008301527f72657373000000000000000000000000000000000000000000000000000000006020830152604082019050919050565b60006132f6601983613fab565b91507f4552433732313a20617070726f766520746f2063616c6c6572000000000000006000830152602082019050919050565b6000613336601983613fab565b91507f4e4654206f776e6572206973206e6f7420612063616c6c6572000000000000006000830152602082019050919050565b6000613376602c83613fab565b91507f4552433732313a206f70657261746f7220717565727920666f72206e6f6e657860008301527f697374656e7420746f6b656e00000000000000000000000000000000000000006020830152604082019050919050565b60006133dc602483613fab565b91507f436865636b207468617420796f7520736574207468652045524332302061646460008301527f72657373000000000000000000000000000000000000000000000000000000006020830152604082019050919050565b6000613442602483613fab565b91507f596f7572204974656d206973206e6f742075706772616461626c6520616e792060008301527f6d6f7265000000000000000000000000000000000000000000000000000000006020830152604082019050919050565b60006134a8601283613fab565b91507f4e6f7420656e6f7567682062616c616e636500000000000000000000000000006000830152602082019050919050565b60006134e8603883613fab565b91507f4552433732313a20617070726f76652063616c6c6572206973206e6f74206f7760008301527f6e6572206e6f7220617070726f76656420666f7220616c6c00000000000000006020830152604082019050919050565b600061354e602a83613fab565b91507f4552433732313a2062616c616e636520717565727920666f7220746865207a6560008301527f726f2061646472657373000000000000000000000000000000000000000000006020830152604082019050919050565b60006135b4602983613fab565b91507f4552433732313a206f776e657220717565727920666f72206e6f6e657869737460008301527f656e7420746f6b656e00000000000000000000000000000000000000000000006020830152604082019050919050565b600061361a602e83613fab565b91507f45524337323155524953746f726167653a2055524920736574206f66206e6f6e60008301527f6578697374656e7420746f6b656e0000000000000000000000000000000000006020830152604082019050919050565b6000613680602083613fab565b91507f4552433732313a206d696e7420746f20746865207a65726f20616464726573736000830152602082019050919050565b60006136c0603183613fab565b91507f45524337323155524953746f726167653a2055524920717565727920666f722060008301527f6e6f6e6578697374656e7420746f6b656e0000000000000000000000000000006020830152604082019050919050565b6000613726602c83613fab565b91507f4552433732313a20617070726f76656420717565727920666f72206e6f6e657860008301527f697374656e7420746f6b656e00000000000000000000000000000000000000006020830152604082019050919050565b600061378c602083613fab565b91507f4f776e61626c653a2063616c6c6572206973206e6f7420746865206f776e65726000830152602082019050919050565b60006137cc602f83613fab565b91507f4552433732314d657461646174613a2055524920717565727920666f72206e6f60008301527f6e6578697374656e7420746f6b656e00000000000000000000000000000000006020830152604082019050919050565b6000613832602183613fab565b91507f4552433732313a20617070726f76616c20746f2063757272656e74206f776e6560008301527f72000000000000000000000000000000000000000000000000000000000000006020830152604082019050919050565b6000613898603183613fab565b91507f4552433732313a207472616e736665722063616c6c6572206973206e6f74206f60008301527f776e6572206e6f7220617070726f7665640000000000000000000000000000006020830152604082019050919050565b60006138fe601c83613fab565b91507f427579657220686173206e6f7420656e6f7567682062616c616e6365000000006000830152602082019050919050565b600061393e601b83613fab565b91507f546f6b656e206f776e6572206973206e6f7420612073656c6c657200000000006000830152602082019050919050565b600061397e601883613fab565b91507f4e6f7420656e6f75676820746f6b656e2062616c616e636500000000000000006000830152602082019050919050565b6139ba816140ec565b82525050565b6139d16139cc826140ec565b6141d7565b82525050565b60006139e382856130e0565b91506139ef82846130e0565b91508190509392505050565b6000613a0782866139c0565b602082019150613a1782856139c0565b602082019150613a2782846139c0565b602082019150819050949350505050565b6000602082019050613a4d6000830184613032565b92915050565b6000606082019050613a686000830186613032565b613a756020830185613032565b613a826040830184613089565b949350505050565b6000606082019050613a9f6000830186613032565b613aac6020830185613032565b613ab96040830184613098565b949350505050565b6000606082019050613ad66000830186613032565b613ae36020830185613032565b613af060408301846139b1565b949350505050565b6000608082019050613b0d6000830187613032565b613b1a6020830186613032565b613b2760408301856139b1565b8181036060830152613b398184613050565b905095945050505050565b6000602082019050613b596000830184613041565b92915050565b60006020820190508181036000830152613b7981846130a7565b905092915050565b60006020820190508181036000830152613b9a81613111565b9050919050565b60006020820190508181036000830152613bba81613177565b9050919050565b60006020820190508181036000830152613bda816131dd565b9050919050565b60006020820190508181036000830152613bfa81613243565b9050919050565b60006020820190508181036000830152613c1a81613283565b9050919050565b60006020820190508181036000830152613c3a816132e9565b9050919050565b60006020820190508181036000830152613c5a81613329565b9050919050565b60006020820190508181036000830152613c7a81613369565b9050919050565b60006020820190508181036000830152613c9a816133cf565b9050919050565b60006020820190508181036000830152613cba81613435565b9050919050565b60006020820190508181036000830152613cda8161349b565b9050919050565b60006020820190508181036000830152613cfa816134db565b9050919050565b60006020820190508181036000830152613d1a81613541565b9050919050565b60006020820190508181036000830152613d3a816135a7565b9050919050565b60006020820190508181036000830152613d5a8161360d565b9050919050565b60006020820190508181036000830152613d7a81613673565b9050919050565b60006020820190508181036000830152613d9a816136b3565b9050919050565b60006020820190508181036000830152613dba81613719565b9050919050565b60006020820190508181036000830152613dda8161377f565b9050919050565b60006020820190508181036000830152613dfa816137bf565b9050919050565b60006020820190508181036000830152613e1a81613825565b9050919050565b60006020820190508181036000830152613e3a8161388b565b9050919050565b60006020820190508181036000830152613e5a816138f1565b9050919050565b60006020820190508181036000830152613e7a81613931565b9050919050565b60006020820190508181036000830152613e9a81613971565b9050919050565b6000602082019050613eb660008301846139b1565b92915050565b6000606082019050613ed160008301866139b1565b613ede60208301856139b1565b613eeb6040830184613041565b949350505050565b6000604051905081810181811067ffffffffffffffff82111715613f1a57613f1961429f565b5b8060405250919050565b600067ffffffffffffffff821115613f3f57613f3e61429f565b5b601f19601f8301169050602081019050919050565b600067ffffffffffffffff821115613f6f57613f6e61429f565b5b601f19601f8301169050602081019050919050565b600081519050919050565b600081519050919050565b600082825260208201905092915050565b600082825260208201905092915050565b600081905092915050565b6000613fd2826140ec565b9150613fdd836140ec565b9250827fffffffffffffffffffffffffffffffffffffffffffffffffffffffffffffffff0382111561401257614011614212565b5b828201905092915050565b6000614028826140ec565b9150614033836140ec565b92508261404357614042614241565b5b828204905092915050565b6000614059826140ec565b9150614064836140ec565b92508282101561407757614076614212565b5b828203905092915050565b600061408d826140cc565b9050919050565b60008115159050919050565b60007fffffffff0000000000000000000000000000000000000000000000000000000082169050919050565b600073ffffffffffffffffffffffffffffffffffffffff82169050919050565b6000819050919050565b6000614101826140ec565b9050919050565b6000614113826140ec565b9050919050565b82818337600083830152505050565b60005b8381101561414757808201518184015260208101905061412c565b83811115614156576000848401525b50505050565b6000600282049050600182168061417457607f821691505b6020821081141561418857614187614270565b5b50919050565b6000614199826140ec565b91507fffffffffffffffffffffffffffffffffffffffffffffffffffffffffffffffff8214156141cc576141cb614212565b5b600182019050919050565b6000819050919050565b60006141ec826140ec565b91506141f7836140ec565b92508261420757614206614241565b5b828206905092915050565b7f4e487b7100000000000000000000000000000000000000000000000000000000600052601160045260246000fd5b7f4e487b7100000000000000000000000000000000000000000000000000000000600052601260045260246000fd5b7f4e487b7100000000000000000000000000000000000000000000000000000000600052602260045260246000fd5b7f4e487b7100000000000000000000000000000000000000000000000000000000600052604160045260246000fd5b6000601f19601f8301169050919050565b6142e881614082565b81146142f357600080fd5b50565b6142ff81614094565b811461430a57600080fd5b50565b614316816140a0565b811461432157600080fd5b50565b61432d816140ec565b811461433857600080fd5b5056fea2646970667358221220cd62713d55c81c8588ac708f472cebe5801fe81293127f96812aaef4d417914064736f6c63430008000033",
  "immutableReferences": {},
  "source": "// SPDX-License-Identifier: MIT\npragma solidity >=0.4.22 <0.9.0;\n\nimport \"openzeppelin-solidity/contracts/token/ERC721/ERC721.sol\";\nimport \"openzeppelin-solidity/contracts/utils/Counters.sol\";\nimport \"openzeppelin-solidity/contracts/access/Ownable.sol\";\nimport \"openzeppelin-solidity/contracts/token/ERC721/extensions/ERC721URIStorage.sol\";\nimport \"openzeppelin-solidity/contracts/token/ERC20/IERC20.sol\";\n\ncontract OLOG_ERC721 is ERC721URIStorage, Ownable {\n    using Counters for Counters.Counter;\n    Counters.Counter private _tokenIds;\n    IERC20 token;\n    uint256 nftPrice;\n    uint256 nonce;\n    event Upgrade(uint256 tokenId, uint256 reward_factor, bool success);\n    event Sold(address buyer, address seller, uint256 price);\n\n    constructor() ERC721(\"OlogNFTs\", \"OLOG\") {\n        nftPrice = 100;\n        nonce = 1;\n    }\n\n    mapping (uint256 => uint256) public reward_factor;\n    //reward_factor[tokenId] = NFT's reward_factor, begins with 1;\n\n    function mintNFT(address recipient, string memory tokenURI) public onlyOwner returns (uint256) {\n        require(token.balanceOf(recipient) >= 0, \"Check that you set the ERC20 address\" );\n        require(token.balanceOf(recipient) > nftPrice,\"Not enough balance\");\n\n        token.transferFrom(recipient, msg.sender, nftPrice); //msg.sender is server address\n        //If we use transferFrom like this, caller becomes NFT's contract address, not msg.sender which is the server\n        //transferFrom check allowance of caller not allowance of to(msg.sender). However, amount is deducted from caller's allowance.\n        \n        _tokenIds.increment();\n        uint256 newItemId = _tokenIds.current();\n        reward_factor[newItemId] = 1;\n        _mint(recipient, newItemId);\n        _setTokenURI(newItemId, tokenURI);\n        _approve(msg.sender, newItemId);\n\n\n        emit Sold(recipient, msg.sender, nftPrice);\n\n        return newItemId;\n    }\n\n    function setERC20Address (address tokenAddress) public onlyOwner returns (bool) {\n        require(tokenAddress != address(0x0));\n        token = IERC20(tokenAddress);\n        return true;\n    }\n\n    function UserNFTSold(address buyer,address seller, uint256 tokenId, uint256 tokenPaid) public onlyOwner returns(bool) {\n        require(seller == ownerOf(tokenId), \"Token owner is not a seller\");\n        require(token.balanceOf(buyer) >= tokenPaid, \"Buyer has not enough balance\" );\n        token.transferFrom(buyer, seller ,tokenPaid); //ERC20 Token payment\n        transferFrom(seller, buyer, tokenId); //ERC721 Token payment\n        emit Sold(buyer, seller, tokenPaid);\n        \n        return true;\n    }\n\n    function _randomDice () internal returns (uint256) {\n        uint256 randomNumber = uint256(keccak256(abi.encodePacked(block.timestamp,block.difficulty,nonce))) % 6;\n        randomNumber = randomNumber + 1;\n        nonce++;\n\n        return randomNumber;\n    }\n\n    function totalSupply() public view returns(uint256){\n        return _tokenIds.current();\n    }\n\n    function upgradeNFT (address owner, uint256 tokenId) public returns(uint256) {\n        require(owner == ownerOf(tokenId), \"NFT owner is not a caller\");\n        if (reward_factor[tokenId] == 1){\n            //token price to upgrade is 100\n            require(token.balanceOf(owner) >= 100, \"Not enough token balance\");\n            token.transferFrom(owner, msg.sender, 100);\n            uint256 diceResult = _randomDice();\n            if(diceResult == 1 || diceResult == 2){\n                //upgrade success\n                reward_factor[tokenId] = 2;\n                emit Upgrade(tokenId, reward_factor[tokenId], true);\n                return reward_factor[tokenId];\n            }\n            else{\n                emit Upgrade(tokenId, reward_factor[tokenId], false);\n                return reward_factor[tokenId];\n            }\n        }\n        else if (reward_factor[tokenId] == 2){\n            //token price to upgrade is 1000\n            require(token.balanceOf(owner) >= 1000, \"Not enough token balance\");\n            token.transferFrom(owner, msg.sender, 1000);\n            uint256 diceResult = _randomDice();\n            if(diceResult == 3){\n                //upgrade success\n                reward_factor[tokenId] = 3;\n                emit Upgrade(tokenId, reward_factor[tokenId], true);\n                return reward_factor[tokenId];\n            }\n            else{\n                emit Upgrade(tokenId, reward_factor[tokenId], false);\n                return reward_factor[tokenId];\n            }\n        }\n        else{\n            revert(\"Your Item is not upgradable any more\");\n        }\n    }\n\n    function rewardFactorOf(uint256 tokenId) public view returns(uint256){\n        return reward_factor[tokenId];\n    }\n}",
  "sourcePath": "/home/matt7003/codestates/2_proj/beb-04-O_log/OLOG_SERVER/truffle/contracts/ERC721Project.sol",
  "compiler": {
    "name": "solc",
    "version": "0.8.0+commit.c7dfd78e.Emscripten.clang"
  },
  "schemaVersion": "3.4.7",
  "updatedAt": "2022-06-29T00:28:07.201Z",
  "networkType": "ethereum",
  "devdoc": {
    "kind": "dev",
    "methods": {
      "approve(address,uint256)": {
        "details": "See {IERC721-approve}."
      },
      "balanceOf(address)": {
        "details": "See {IERC721-balanceOf}."
      },
      "getApproved(uint256)": {
        "details": "See {IERC721-getApproved}."
      },
      "isApprovedForAll(address,address)": {
        "details": "See {IERC721-isApprovedForAll}."
      },
      "name()": {
        "details": "See {IERC721Metadata-name}."
      },
      "owner()": {
        "details": "Returns the address of the current owner."
      },
      "ownerOf(uint256)": {
        "details": "See {IERC721-ownerOf}."
      },
      "renounceOwnership()": {
        "details": "Leaves the contract without owner. It will not be possible to call `onlyOwner` functions anymore. Can only be called by the current owner. NOTE: Renouncing ownership will leave the contract without an owner, thereby removing any functionality that is only available to the owner."
      },
      "safeTransferFrom(address,address,uint256)": {
        "details": "See {IERC721-safeTransferFrom}."
      },
      "safeTransferFrom(address,address,uint256,bytes)": {
        "details": "See {IERC721-safeTransferFrom}."
      },
      "setApprovalForAll(address,bool)": {
        "details": "See {IERC721-setApprovalForAll}."
      },
      "supportsInterface(bytes4)": {
        "details": "See {IERC165-supportsInterface}."
      },
      "symbol()": {
        "details": "See {IERC721Metadata-symbol}."
      },
      "tokenURI(uint256)": {
        "details": "See {IERC721Metadata-tokenURI}."
      },
      "transferFrom(address,address,uint256)": {
        "details": "See {IERC721-transferFrom}."
      },
      "transferOwnership(address)": {
        "details": "Transfers ownership of the contract to a new account (`newOwner`). Can only be called by the current owner."
      }
    },
    "version": 1
  },
  "userdoc": {
    "kind": "user",
    "methods": {},
    "version": 1
  }
}