{
  "contractName": "ProjectERC20TEST",
  "abi": [
    {
      "inputs": [],
      "stateMutability": "nonpayable",
      "type": "constructor"
    },
    {
      "anonymous": false,
      "inputs": [
        {
          "indexed": true,
          "internalType": "address",
          "name": "owner",
          "type": "address"
        },
        {
          "indexed": true,
          "internalType": "address",
          "name": "spender",
          "type": "address"
        },
        {
          "indexed": false,
          "internalType": "uint256",
          "name": "value",
          "type": "uint256"
        }
      ],
      "name": "Approval",
      "type": "event"
    },
    {
      "anonymous": false,
      "inputs": [
        {
          "indexed": true,
          "internalType": "address",
          "name": "previousOwner",
          "type": "address"
        },
        {
          "indexed": true,
          "internalType": "address",
          "name": "newOwner",
          "type": "address"
        }
      ],
      "name": "OwnershipTransferred",
      "type": "event"
    },
    {
      "anonymous": false,
      "inputs": [
        {
          "indexed": true,
          "internalType": "address",
          "name": "from",
          "type": "address"
        },
        {
          "indexed": true,
          "internalType": "address",
          "name": "to",
          "type": "address"
        },
        {
          "indexed": false,
          "internalType": "uint256",
          "name": "value",
          "type": "uint256"
        }
      ],
      "name": "Transfer",
      "type": "event"
    },
    {
      "inputs": [
        {
          "internalType": "address",
          "name": "owner",
          "type": "address"
        },
        {
          "internalType": "address",
          "name": "spender",
          "type": "address"
        }
      ],
      "name": "allowance",
      "outputs": [
        {
          "internalType": "uint256",
          "name": "",
          "type": "uint256"
        }
      ],
      "stateMutability": "view",
      "type": "function"
    },
    {
      "inputs": [
        {
          "internalType": "address",
          "name": "spender",
          "type": "address"
        },
        {
          "internalType": "uint256",
          "name": "amount",
          "type": "uint256"
        }
      ],
      "name": "approve",
      "outputs": [
        {
          "internalType": "bool",
          "name": "",
          "type": "bool"
        }
      ],
      "stateMutability": "nonpayable",
      "type": "function"
    },
    {
      "inputs": [
        {
          "internalType": "address",
          "name": "account",
          "type": "address"
        }
      ],
      "name": "balanceOf",
      "outputs": [
        {
          "internalType": "uint256",
          "name": "",
          "type": "uint256"
        }
      ],
      "stateMutability": "view",
      "type": "function"
    },
    {
      "inputs": [],
      "name": "decimals",
      "outputs": [
        {
          "internalType": "uint8",
          "name": "",
          "type": "uint8"
        }
      ],
      "stateMutability": "view",
      "type": "function"
    },
    {
      "inputs": [
        {
          "internalType": "address",
          "name": "spender",
          "type": "address"
        },
        {
          "internalType": "uint256",
          "name": "subtractedValue",
          "type": "uint256"
        }
      ],
      "name": "decreaseAllowance",
      "outputs": [
        {
          "internalType": "bool",
          "name": "",
          "type": "bool"
        }
      ],
      "stateMutability": "nonpayable",
      "type": "function"
    },
    {
      "inputs": [
        {
          "internalType": "address",
          "name": "spender",
          "type": "address"
        },
        {
          "internalType": "uint256",
          "name": "addedValue",
          "type": "uint256"
        }
      ],
      "name": "increaseAllowance",
      "outputs": [
        {
          "internalType": "bool",
          "name": "",
          "type": "bool"
        }
      ],
      "stateMutability": "nonpayable",
      "type": "function"
    },
    {
      "inputs": [],
      "name": "name",
      "outputs": [
        {
          "internalType": "string",
          "name": "",
          "type": "string"
        }
      ],
      "stateMutability": "view",
      "type": "function"
    },
    {
      "inputs": [],
      "name": "owner",
      "outputs": [
        {
          "internalType": "address",
          "name": "",
          "type": "address"
        }
      ],
      "stateMutability": "view",
      "type": "function"
    },
    {
      "inputs": [],
      "name": "renounceOwnership",
      "outputs": [],
      "stateMutability": "nonpayable",
      "type": "function"
    },
    {
      "inputs": [],
      "name": "symbol",
      "outputs": [
        {
          "internalType": "string",
          "name": "",
          "type": "string"
        }
      ],
      "stateMutability": "view",
      "type": "function"
    },
    {
      "inputs": [],
      "name": "totalSupply",
      "outputs": [
        {
          "internalType": "uint256",
          "name": "",
          "type": "uint256"
        }
      ],
      "stateMutability": "view",
      "type": "function"
    },
    {
      "inputs": [
        {
          "internalType": "address",
          "name": "to",
          "type": "address"
        },
        {
          "internalType": "uint256",
          "name": "amount",
          "type": "uint256"
        }
      ],
      "name": "transfer",
      "outputs": [
        {
          "internalType": "bool",
          "name": "",
          "type": "bool"
        }
      ],
      "stateMutability": "nonpayable",
      "type": "function"
    },
    {
      "inputs": [
        {
          "internalType": "address",
          "name": "from",
          "type": "address"
        },
        {
          "internalType": "address",
          "name": "to",
          "type": "address"
        },
        {
          "internalType": "uint256",
          "name": "amount",
          "type": "uint256"
        }
      ],
      "name": "transferFrom",
      "outputs": [
        {
          "internalType": "bool",
          "name": "",
          "type": "bool"
        }
      ],
      "stateMutability": "nonpayable",
      "type": "function"
    },
    {
      "inputs": [
        {
          "internalType": "address",
          "name": "newOwner",
          "type": "address"
        }
      ],
      "name": "transferOwnership",
      "outputs": [],
      "stateMutability": "nonpayable",
      "type": "function"
    },
    {
      "inputs": [
        {
          "internalType": "address",
          "name": "to",
          "type": "address"
        },
        {
          "internalType": "uint256",
          "name": "amount",
          "type": "uint256"
        }
      ],
      "name": "mintToken",
      "outputs": [
        {
          "internalType": "bool",
          "name": "",
          "type": "bool"
        }
      ],
      "stateMutability": "nonpayable",
      "type": "function"
    },
    {
      "inputs": [
        {
          "internalType": "address[]",
          "name": "toArr",
          "type": "address[]"
        },
        {
          "internalType": "uint256[]",
          "name": "amountArr",
          "type": "uint256[]"
        }
      ],
      "name": "multiMintToken",
      "outputs": [
        {
          "internalType": "bool",
          "name": "",
          "type": "bool"
        }
      ],
      "stateMutability": "nonpayable",
      "type": "function"
    }
  ],
  "bytecode": "0x60806040523480156200001157600080fd5b506040518060400160405280601181526020017f5a657070656c696e54657374546f6b656e0000000000000000000000000000008152506040518060400160405280600381526020017f5a54540000000000000000000000000000000000000000000000000000000000815250816003908051906020019062000096929190620001a6565b508060049080519060200190620000af929190620001a6565b505050620000d2620000c6620000d860201b60201c565b620000e060201b60201c565b620002ba565b600033905090565b6000600560009054906101000a900473ffffffffffffffffffffffffffffffffffffffff16905081600560006101000a81548173ffffffffffffffffffffffffffffffffffffffff021916908373ffffffffffffffffffffffffffffffffffffffff1602179055508173ffffffffffffffffffffffffffffffffffffffff168173ffffffffffffffffffffffffffffffffffffffff167f8be0079c531659141344cd1fd0a4f28419497f9722a3daafe3b4186f6b6457e060405160405180910390a35050565b828054620001b49062000285565b90600052602060002090601f016020900481019282620001d8576000855562000224565b82601f10620001f357805160ff191683800117855562000224565b8280016001018555821562000224579182015b828111156200022357825182559160200191906001019062000206565b5b50905062000233919062000237565b5090565b5b808211156200025257600081600090555060010162000238565b5090565b7f4e487b7100000000000000000000000000000000000000000000000000000000600052602260045260246000fd5b600060028204905060018216806200029e57607f821691505b602082108103620002b457620002b362000256565b5b50919050565b611d8380620002ca6000396000f3fe608060405234801561001057600080fd5b50600436106101005760003560e01c8063715018a611610097578063a457c2d711610066578063a457c2d7146102c5578063a9059cbb146102f5578063dd62ed3e14610325578063f2fde38b1461035557610100565b8063715018a61461024f57806379c65068146102595780638da5cb5b1461028957806395d89b41146102a757610100565b8063313ce567116100d3578063313ce567146101a157806339509351146101bf578063498eaaae146101ef57806370a082311461021f57610100565b806306fdde0314610105578063095ea7b31461012357806318160ddd1461015357806323b872dd14610171575b600080fd5b61010d610371565b60405161011a91906112f2565b60405180910390f35b61013d600480360381019061013891906113b2565b610403565b60405161014a919061140d565b60405180910390f35b61015b610426565b6040516101689190611437565b60405180910390f35b61018b60048036038101906101869190611452565b610430565b604051610198919061140d565b60405180910390f35b6101a961045f565b6040516101b691906114c1565b60405180910390f35b6101d960048036038101906101d491906113b2565b610468565b6040516101e6919061140d565b60405180910390f35b61020960048036038101906102049190611597565b61049f565b604051610216919061140d565b60405180910390f35b61023960048036038101906102349190611618565b6106b3565b6040516102469190611437565b60405180910390f35b6102576106fb565b005b610273600480360381019061026e91906113b2565b610783565b604051610280919061140d565b60405180910390f35b61029161087a565b60405161029e9190611654565b60405180910390f35b6102af6108a4565b6040516102bc91906112f2565b60405180910390f35b6102df60048036038101906102da91906113b2565b610936565b6040516102ec919061140d565b60405180910390f35b61030f600480360381019061030a91906113b2565b6109ad565b60405161031c919061140d565b60405180910390f35b61033f600480360381019061033a919061166f565b6109d0565b60405161034c9190611437565b60405180910390f35b61036f600480360381019061036a9190611618565b610a57565b005b606060038054610380906116de565b80601f01602080910402602001604051908101604052809291908181526020018280546103ac906116de565b80156103f95780601f106103ce576101008083540402835291602001916103f9565b820191906000526020600020905b8154815290600101906020018083116103dc57829003601f168201915b5050505050905090565b60008061040e610b4e565b905061041b818585610b56565b600191505092915050565b6000600254905090565b60008061043b610b4e565b9050610448858285610d1f565b610453858585610dab565b60019150509392505050565b60006012905090565b600080610473610b4e565b905061049481858561048585896109d0565b61048f919061173e565b610b56565b600191505092915050565b60006104a9610b4e565b73ffffffffffffffffffffffffffffffffffffffff166104c761087a565b73ffffffffffffffffffffffffffffffffffffffff161461051d576040517f08c379a0000000000000000000000000000000000000000000000000000000008152600401610514906117e0565b60405180910390fd5b82829050858590501461052f57600080fd5b60005b858590508110156106a657600073ffffffffffffffffffffffffffffffffffffffff1686868381811061056857610567611800565b5b905060200201602081019061057d9190611618565b73ffffffffffffffffffffffffffffffffffffffff160361059d57600080fd5b60008484838181106105b2576105b1611800565b5b90506020020135116105c357600080fd5b61060d8686838181106105d9576105d8611800565b5b90506020020160208101906105ee9190611618565b85858481811061060157610600611800565b5b9050602002013561102a565b61069386868381811061062357610622611800565b5b90506020020160208101906106389190611618565b3386868581811061064c5761064b611800565b5b905060200201356106848a8a8781811061066957610668611800565b5b905060200201602081019061067e9190611618565b336109d0565b61068e919061173e565b610b56565b808061069e9061182f565b915050610532565b5060019050949350505050565b60008060008373ffffffffffffffffffffffffffffffffffffffff1673ffffffffffffffffffffffffffffffffffffffff168152602001908152602001600020549050919050565b610703610b4e565b73ffffffffffffffffffffffffffffffffffffffff1661072161087a565b73ffffffffffffffffffffffffffffffffffffffff1614610777576040517f08c379a000000000000000000000000000000000000000000000000000000000815260040161076e906117e0565b60405180910390fd5b6107816000611189565b565b600061078d610b4e565b73ffffffffffffffffffffffffffffffffffffffff166107ab61087a565b73ffffffffffffffffffffffffffffffffffffffff1614610801576040517f08c379a00000000000000000000000000000000000000000000000000000000081526004016107f8906117e0565b60405180910390fd5b600073ffffffffffffffffffffffffffffffffffffffff168373ffffffffffffffffffffffffffffffffffffffff160361083a57600080fd5b6000821161084757600080fd5b610851838361102a565b61087083338461086187336109d0565b61086b919061173e565b610b56565b6001905092915050565b6000600560009054906101000a900473ffffffffffffffffffffffffffffffffffffffff16905090565b6060600480546108b3906116de565b80601f01602080910402602001604051908101604052809291908181526020018280546108df906116de565b801561092c5780601f106109015761010080835404028352916020019161092c565b820191906000526020600020905b81548152906001019060200180831161090f57829003601f168201915b5050505050905090565b600080610941610b4e565b9050600061094f82866109d0565b905083811015610994576040517f08c379a000000000000000000000000000000000000000000000000000000000815260040161098b906118e9565b60405180910390fd5b6109a18286868403610b56565b60019250505092915050565b6000806109b8610b4e565b90506109c5818585610dab565b600191505092915050565b6000600160008473ffffffffffffffffffffffffffffffffffffffff1673ffffffffffffffffffffffffffffffffffffffff16815260200190815260200160002060008373ffffffffffffffffffffffffffffffffffffffff1673ffffffffffffffffffffffffffffffffffffffff16815260200190815260200160002054905092915050565b610a5f610b4e565b73ffffffffffffffffffffffffffffffffffffffff16610a7d61087a565b73ffffffffffffffffffffffffffffffffffffffff1614610ad3576040517f08c379a0000000000000000000000000000000000000000000000000000000008152600401610aca906117e0565b60405180910390fd5b600073ffffffffffffffffffffffffffffffffffffffff168173ffffffffffffffffffffffffffffffffffffffff1603610b42576040517f08c379a0000000000000000000000000000000000000000000000000000000008152600401610b399061197b565b60405180910390fd5b610b4b81611189565b50565b600033905090565b600073ffffffffffffffffffffffffffffffffffffffff168373ffffffffffffffffffffffffffffffffffffffff1603610bc5576040517f08c379a0000000000000000000000000000000000000000000000000000000008152600401610bbc90611a0d565b60405180910390fd5b600073ffffffffffffffffffffffffffffffffffffffff168273ffffffffffffffffffffffffffffffffffffffff1603610c34576040517f08c379a0000000000000000000000000000000000000000000000000000000008152600401610c2b90611a9f565b60405180910390fd5b80600160008573ffffffffffffffffffffffffffffffffffffffff1673ffffffffffffffffffffffffffffffffffffffff16815260200190815260200160002060008473ffffffffffffffffffffffffffffffffffffffff1673ffffffffffffffffffffffffffffffffffffffff168152602001908152602001600020819055508173ffffffffffffffffffffffffffffffffffffffff168373ffffffffffffffffffffffffffffffffffffffff167f8c5be1e5ebec7d5bd14f71427d1e84f3dd0314c0f7b2291e5b200ac8c7c3b92583604051610d129190611437565b60405180910390a3505050565b6000610d2b84846109d0565b90507fffffffffffffffffffffffffffffffffffffffffffffffffffffffffffffffff8114610da55781811015610d97576040517f08c379a0000000000000000000000000000000000000000000000000000000008152600401610d8e90611b0b565b60405180910390fd5b610da48484848403610b56565b5b50505050565b600073ffffffffffffffffffffffffffffffffffffffff168373ffffffffffffffffffffffffffffffffffffffff1603610e1a576040517f08c379a0000000000000000000000000000000000000000000000000000000008152600401610e1190611b9d565b60405180910390fd5b600073ffffffffffffffffffffffffffffffffffffffff168273ffffffffffffffffffffffffffffffffffffffff1603610e89576040517f08c379a0000000000000000000000000000000000000000000000000000000008152600401610e8090611c2f565b60405180910390fd5b610e9483838361124f565b60008060008573ffffffffffffffffffffffffffffffffffffffff1673ffffffffffffffffffffffffffffffffffffffff16815260200190815260200160002054905081811015610f1a576040517f08c379a0000000000000000000000000000000000000000000000000000000008152600401610f1190611cc1565b60405180910390fd5b8181036000808673ffffffffffffffffffffffffffffffffffffffff1673ffffffffffffffffffffffffffffffffffffffff16815260200190815260200160002081905550816000808573ffffffffffffffffffffffffffffffffffffffff1673ffffffffffffffffffffffffffffffffffffffff1681526020019081526020016000206000828254610fad919061173e565b925050819055508273ffffffffffffffffffffffffffffffffffffffff168473ffffffffffffffffffffffffffffffffffffffff167fddf252ad1be2c89b69c2b068fc378daa952ba7f163c4a11628f55a4df523b3ef846040516110119190611437565b60405180910390a3611024848484611254565b50505050565b600073ffffffffffffffffffffffffffffffffffffffff168273ffffffffffffffffffffffffffffffffffffffff1603611099576040517f08c379a000000000000000000000000000000000000000000000000000000000815260040161109090611d2d565b60405180910390fd5b6110a56000838361124f565b80600260008282546110b7919061173e565b92505081905550806000808473ffffffffffffffffffffffffffffffffffffffff1673ffffffffffffffffffffffffffffffffffffffff168152602001908152602001600020600082825461110c919061173e565b925050819055508173ffffffffffffffffffffffffffffffffffffffff16600073ffffffffffffffffffffffffffffffffffffffff167fddf252ad1be2c89b69c2b068fc378daa952ba7f163c4a11628f55a4df523b3ef836040516111719190611437565b60405180910390a361118560008383611254565b5050565b6000600560009054906101000a900473ffffffffffffffffffffffffffffffffffffffff16905081600560006101000a81548173ffffffffffffffffffffffffffffffffffffffff021916908373ffffffffffffffffffffffffffffffffffffffff1602179055508173ffffffffffffffffffffffffffffffffffffffff168173ffffffffffffffffffffffffffffffffffffffff167f8be0079c531659141344cd1fd0a4f28419497f9722a3daafe3b4186f6b6457e060405160405180910390a35050565b505050565b505050565b600081519050919050565b600082825260208201905092915050565b60005b83811015611293578082015181840152602081019050611278565b838111156112a2576000848401525b50505050565b6000601f19601f8301169050919050565b60006112c482611259565b6112ce8185611264565b93506112de818560208601611275565b6112e7816112a8565b840191505092915050565b6000602082019050818103600083015261130c81846112b9565b905092915050565b600080fd5b600080fd5b600073ffffffffffffffffffffffffffffffffffffffff82169050919050565b60006113498261131e565b9050919050565b6113598161133e565b811461136457600080fd5b50565b60008135905061137681611350565b92915050565b6000819050919050565b61138f8161137c565b811461139a57600080fd5b50565b6000813590506113ac81611386565b92915050565b600080604083850312156113c9576113c8611314565b5b60006113d785828601611367565b92505060206113e88582860161139d565b9150509250929050565b60008115159050919050565b611407816113f2565b82525050565b600060208201905061142260008301846113fe565b92915050565b6114318161137c565b82525050565b600060208201905061144c6000830184611428565b92915050565b60008060006060848603121561146b5761146a611314565b5b600061147986828701611367565b935050602061148a86828701611367565b925050604061149b8682870161139d565b9150509250925092565b600060ff82169050919050565b6114bb816114a5565b82525050565b60006020820190506114d660008301846114b2565b92915050565b600080fd5b600080fd5b600080fd5b60008083601f840112611501576115006114dc565b5b8235905067ffffffffffffffff81111561151e5761151d6114e1565b5b60208301915083602082028301111561153a576115396114e6565b5b9250929050565b60008083601f840112611557576115566114dc565b5b8235905067ffffffffffffffff811115611574576115736114e1565b5b6020830191508360208202830111156115905761158f6114e6565b5b9250929050565b600080600080604085870312156115b1576115b0611314565b5b600085013567ffffffffffffffff8111156115cf576115ce611319565b5b6115db878288016114eb565b9450945050602085013567ffffffffffffffff8111156115fe576115fd611319565b5b61160a87828801611541565b925092505092959194509250565b60006020828403121561162e5761162d611314565b5b600061163c84828501611367565b91505092915050565b61164e8161133e565b82525050565b60006020820190506116696000830184611645565b92915050565b6000806040838503121561168657611685611314565b5b600061169485828601611367565b92505060206116a585828601611367565b9150509250929050565b7f4e487b7100000000000000000000000000000000000000000000000000000000600052602260045260246000fd5b600060028204905060018216806116f657607f821691505b602082108103611709576117086116af565b5b50919050565b7f4e487b7100000000000000000000000000000000000000000000000000000000600052601160045260246000fd5b60006117498261137c565b91506117548361137c565b9250827fffffffffffffffffffffffffffffffffffffffffffffffffffffffffffffffff038211156117895761178861170f565b5b828201905092915050565b7f4f776e61626c653a2063616c6c6572206973206e6f7420746865206f776e6572600082015250565b60006117ca602083611264565b91506117d582611794565b602082019050919050565b600060208201905081810360008301526117f9816117bd565b9050919050565b7f4e487b7100000000000000000000000000000000000000000000000000000000600052603260045260246000fd5b600061183a8261137c565b91507fffffffffffffffffffffffffffffffffffffffffffffffffffffffffffffffff820361186c5761186b61170f565b5b600182019050919050565b7f45524332303a2064656372656173656420616c6c6f77616e63652062656c6f7760008201527f207a65726f000000000000000000000000000000000000000000000000000000602082015250565b60006118d3602583611264565b91506118de82611877565b604082019050919050565b60006020820190508181036000830152611902816118c6565b9050919050565b7f4f776e61626c653a206e6577206f776e657220697320746865207a65726f206160008201527f6464726573730000000000000000000000000000000000000000000000000000602082015250565b6000611965602683611264565b915061197082611909565b604082019050919050565b6000602082019050818103600083015261199481611958565b9050919050565b7f45524332303a20617070726f76652066726f6d20746865207a65726f2061646460008201527f7265737300000000000000000000000000000000000000000000000000000000602082015250565b60006119f7602483611264565b9150611a028261199b565b604082019050919050565b60006020820190508181036000830152611a26816119ea565b9050919050565b7f45524332303a20617070726f766520746f20746865207a65726f20616464726560008201527f7373000000000000000000000000000000000000000000000000000000000000602082015250565b6000611a89602283611264565b9150611a9482611a2d565b604082019050919050565b60006020820190508181036000830152611ab881611a7c565b9050919050565b7f45524332303a20696e73756666696369656e7420616c6c6f77616e6365000000600082015250565b6000611af5601d83611264565b9150611b0082611abf565b602082019050919050565b60006020820190508181036000830152611b2481611ae8565b9050919050565b7f45524332303a207472616e736665722066726f6d20746865207a65726f20616460008201527f6472657373000000000000000000000000000000000000000000000000000000602082015250565b6000611b87602583611264565b9150611b9282611b2b565b604082019050919050565b60006020820190508181036000830152611bb681611b7a565b9050919050565b7f45524332303a207472616e7366657220746f20746865207a65726f206164647260008201527f6573730000000000000000000000000000000000000000000000000000000000602082015250565b6000611c19602383611264565b9150611c2482611bbd565b604082019050919050565b60006020820190508181036000830152611c4881611c0c565b9050919050565b7f45524332303a207472616e7366657220616d6f756e742065786365656473206260008201527f616c616e63650000000000000000000000000000000000000000000000000000602082015250565b6000611cab602683611264565b9150611cb682611c4f565b604082019050919050565b60006020820190508181036000830152611cda81611c9e565b9050919050565b7f45524332303a206d696e7420746f20746865207a65726f206164647265737300600082015250565b6000611d17601f83611264565b9150611d2282611ce1565b602082019050919050565b60006020820190508181036000830152611d4681611d0a565b905091905056fea2646970667358221220cc5fb17826a90b82e70e473cc2ac03c3e4640ac6fd9be0e803a8a9825d40e7a864736f6c634300080e0033",
  "immutableReferences": {},
  "source": "// SPDX-License-Identifier: GPL-3.0\npragma solidity ^0.8.10;\n\nimport \"openzeppelin-solidity/contracts/token/ERC20/ERC20.sol\";\nimport \"openzeppelin-solidity/contracts/access/Ownable.sol\";\n\ncontract ProjectERC20TEST is ERC20, Ownable {\n    constructor() ERC20(\"ZeppelinTestToken\", \"ZTT\") {}\n\n    function mintToken(address to, uint256 amount) public onlyOwner returns (bool){\n        require(to != address(0x0));\n        require(amount > 0);\n        _mint(to, amount);\n        _approve(to, msg.sender, allowance(to, msg.sender) + amount);\n\n        return true;\n    }\n\n    function multiMintToken(address[] calldata toArr, uint256[] calldata amountArr) public onlyOwner returns (bool){\n\trequire(toArr.length == amountArr.length);\n\tfor(uint256 i = 0; i < toArr.length; i++) {\n\t    require(toArr[i] != address(0x0));\n\t    require(amountArr[i] > 0);\n\t    _mint(toArr[i], amountArr[i]);\n\t    _approve(toArr[i], msg.sender, allowance(toArr[i], msg.sender) + amountArr[i]);\n\t}\n\treturn true;\n}\n\n}",
  "sourcePath": "/Users/yooseungjun/Desktop/blockchain/beb-04-O_log/OLOG_SERVER/truffle/contracts/ERC20Project.sol",
  "compiler": {
    "name": "solc",
    "version": "0.8.14+commit.80d49f37.Emscripten.clang"
  },
  "schemaVersion": "3.4.7",
  "updatedAt": "2022-06-23T04:41:52.582Z",
  "devdoc": {
    "kind": "dev",
    "methods": {
      "allowance(address,address)": {
        "details": "See {IERC20-allowance}."
      },
      "approve(address,uint256)": {
        "details": "See {IERC20-approve}. NOTE: If `amount` is the maximum `uint256`, the allowance is not updated on `transferFrom`. This is semantically equivalent to an infinite approval. Requirements: - `spender` cannot be the zero address."
      },
      "balanceOf(address)": {
        "details": "See {IERC20-balanceOf}."
      },
      "decimals()": {
        "details": "Returns the number of decimals used to get its user representation. For example, if `decimals` equals `2`, a balance of `505` tokens should be displayed to a user as `5.05` (`505 / 10 ** 2`). Tokens usually opt for a value of 18, imitating the relationship between Ether and Wei. This is the value {ERC20} uses, unless this function is overridden; NOTE: This information is only used for _display_ purposes: it in no way affects any of the arithmetic of the contract, including {IERC20-balanceOf} and {IERC20-transfer}."
      },
      "decreaseAllowance(address,uint256)": {
        "details": "Atomically decreases the allowance granted to `spender` by the caller. This is an alternative to {approve} that can be used as a mitigation for problems described in {IERC20-approve}. Emits an {Approval} event indicating the updated allowance. Requirements: - `spender` cannot be the zero address. - `spender` must have allowance for the caller of at least `subtractedValue`."
      },
      "increaseAllowance(address,uint256)": {
        "details": "Atomically increases the allowance granted to `spender` by the caller. This is an alternative to {approve} that can be used as a mitigation for problems described in {IERC20-approve}. Emits an {Approval} event indicating the updated allowance. Requirements: - `spender` cannot be the zero address."
      },
      "name()": {
        "details": "Returns the name of the token."
      },
      "owner()": {
        "details": "Returns the address of the current owner."
      },
      "renounceOwnership()": {
        "details": "Leaves the contract without owner. It will not be possible to call `onlyOwner` functions anymore. Can only be called by the current owner. NOTE: Renouncing ownership will leave the contract without an owner, thereby removing any functionality that is only available to the owner."
      },
      "symbol()": {
        "details": "Returns the symbol of the token, usually a shorter version of the name."
      },
      "totalSupply()": {
        "details": "See {IERC20-totalSupply}."
      },
      "transfer(address,uint256)": {
        "details": "See {IERC20-transfer}. Requirements: - `to` cannot be the zero address. - the caller must have a balance of at least `amount`."
      },
      "transferFrom(address,address,uint256)": {
        "details": "See {IERC20-transferFrom}. Emits an {Approval} event indicating the updated allowance. This is not required by the EIP. See the note at the beginning of {ERC20}. NOTE: Does not update the allowance if the current allowance is the maximum `uint256`. Requirements: - `from` and `to` cannot be the zero address. - `from` must have a balance of at least `amount`. - the caller must have allowance for ``from``'s tokens of at least `amount`."
      },
      "transferOwnership(address)": {
        "details": "Transfers ownership of the contract to a new account (`newOwner`). Can only be called by the current owner."
      }
    },
    "version": 1
  },
  "userdoc": {
    "kind": "user",
    "methods": {},
    "version": 1
  }
}