{
  "contractName": "ProjectERC721",
  "abi": [
    {
      "inputs": [],
      "stateMutability": "nonpayable",
      "type": "constructor"
    },
    {
      "anonymous": false,
      "inputs": [
        {
          "indexed": true,
          "internalType": "address",
          "name": "owner",
          "type": "address"
        },
        {
          "indexed": true,
          "internalType": "address",
          "name": "approved",
          "type": "address"
        },
        {
          "indexed": true,
          "internalType": "uint256",
          "name": "tokenId",
          "type": "uint256"
        }
      ],
      "name": "Approval",
      "type": "event"
    },
    {
      "anonymous": false,
      "inputs": [
        {
          "indexed": true,
          "internalType": "address",
          "name": "owner",
          "type": "address"
        },
        {
          "indexed": true,
          "internalType": "address",
          "name": "operator",
          "type": "address"
        },
        {
          "indexed": false,
          "internalType": "bool",
          "name": "approved",
          "type": "bool"
        }
      ],
      "name": "ApprovalForAll",
      "type": "event"
    },
    {
      "anonymous": false,
      "inputs": [
        {
          "indexed": true,
          "internalType": "address",
          "name": "previousOwner",
          "type": "address"
        },
        {
          "indexed": true,
          "internalType": "address",
          "name": "newOwner",
          "type": "address"
        }
      ],
      "name": "OwnershipTransferred",
      "type": "event"
    },
    {
      "anonymous": false,
      "inputs": [
        {
          "indexed": true,
          "internalType": "address",
          "name": "from",
          "type": "address"
        },
        {
          "indexed": true,
          "internalType": "address",
          "name": "to",
          "type": "address"
        },
        {
          "indexed": true,
          "internalType": "uint256",
          "name": "tokenId",
          "type": "uint256"
        }
      ],
      "name": "Transfer",
      "type": "event"
    },
    {
      "inputs": [
        {
          "internalType": "address",
          "name": "to",
          "type": "address"
        },
        {
          "internalType": "uint256",
          "name": "tokenId",
          "type": "uint256"
        }
      ],
      "name": "approve",
      "outputs": [],
      "stateMutability": "nonpayable",
      "type": "function"
    },
    {
      "inputs": [
        {
          "internalType": "address",
          "name": "owner",
          "type": "address"
        }
      ],
      "name": "balanceOf",
      "outputs": [
        {
          "internalType": "uint256",
          "name": "",
          "type": "uint256"
        }
      ],
      "stateMutability": "view",
      "type": "function",
      "constant": true
    },
    {
      "inputs": [
        {
          "internalType": "uint256",
          "name": "tokenId",
          "type": "uint256"
        }
      ],
      "name": "getApproved",
      "outputs": [
        {
          "internalType": "address",
          "name": "",
          "type": "address"
        }
      ],
      "stateMutability": "view",
      "type": "function",
      "constant": true
    },
    {
      "inputs": [
        {
          "internalType": "address",
          "name": "owner",
          "type": "address"
        },
        {
          "internalType": "address",
          "name": "operator",
          "type": "address"
        }
      ],
      "name": "isApprovedForAll",
      "outputs": [
        {
          "internalType": "bool",
          "name": "",
          "type": "bool"
        }
      ],
      "stateMutability": "view",
      "type": "function",
      "constant": true
    },
    {
      "inputs": [],
      "name": "name",
      "outputs": [
        {
          "internalType": "string",
          "name": "",
          "type": "string"
        }
      ],
      "stateMutability": "view",
      "type": "function",
      "constant": true
    },
    {
      "inputs": [],
      "name": "owner",
      "outputs": [
        {
          "internalType": "address",
          "name": "",
          "type": "address"
        }
      ],
      "stateMutability": "view",
      "type": "function",
      "constant": true
    },
    {
      "inputs": [
        {
          "internalType": "uint256",
          "name": "tokenId",
          "type": "uint256"
        }
      ],
      "name": "ownerOf",
      "outputs": [
        {
          "internalType": "address",
          "name": "",
          "type": "address"
        }
      ],
      "stateMutability": "view",
      "type": "function",
      "constant": true
    },
    {
      "inputs": [],
      "name": "renounceOwnership",
      "outputs": [],
      "stateMutability": "nonpayable",
      "type": "function"
    },
    {
      "inputs": [
        {
          "internalType": "address",
          "name": "from",
          "type": "address"
        },
        {
          "internalType": "address",
          "name": "to",
          "type": "address"
        },
        {
          "internalType": "uint256",
          "name": "tokenId",
          "type": "uint256"
        }
      ],
      "name": "safeTransferFrom",
      "outputs": [],
      "stateMutability": "nonpayable",
      "type": "function"
    },
    {
      "inputs": [
        {
          "internalType": "address",
          "name": "from",
          "type": "address"
        },
        {
          "internalType": "address",
          "name": "to",
          "type": "address"
        },
        {
          "internalType": "uint256",
          "name": "tokenId",
          "type": "uint256"
        },
        {
          "internalType": "bytes",
          "name": "_data",
          "type": "bytes"
        }
      ],
      "name": "safeTransferFrom",
      "outputs": [],
      "stateMutability": "nonpayable",
      "type": "function"
    },
    {
      "inputs": [
        {
          "internalType": "address",
          "name": "operator",
          "type": "address"
        },
        {
          "internalType": "bool",
          "name": "approved",
          "type": "bool"
        }
      ],
      "name": "setApprovalForAll",
      "outputs": [],
      "stateMutability": "nonpayable",
      "type": "function"
    },
    {
      "inputs": [
        {
          "internalType": "bytes4",
          "name": "interfaceId",
          "type": "bytes4"
        }
      ],
      "name": "supportsInterface",
      "outputs": [
        {
          "internalType": "bool",
          "name": "",
          "type": "bool"
        }
      ],
      "stateMutability": "view",
      "type": "function",
      "constant": true
    },
    {
      "inputs": [],
      "name": "symbol",
      "outputs": [
        {
          "internalType": "string",
          "name": "",
          "type": "string"
        }
      ],
      "stateMutability": "view",
      "type": "function",
      "constant": true
    },
    {
      "inputs": [
        {
          "internalType": "uint256",
          "name": "tokenId",
          "type": "uint256"
        }
      ],
      "name": "tokenURI",
      "outputs": [
        {
          "internalType": "string",
          "name": "",
          "type": "string"
        }
      ],
      "stateMutability": "view",
      "type": "function",
      "constant": true
    },
    {
      "inputs": [
        {
          "internalType": "address",
          "name": "from",
          "type": "address"
        },
        {
          "internalType": "address",
          "name": "to",
          "type": "address"
        },
        {
          "internalType": "uint256",
          "name": "tokenId",
          "type": "uint256"
        }
      ],
      "name": "transferFrom",
      "outputs": [],
      "stateMutability": "nonpayable",
      "type": "function"
    },
    {
      "inputs": [
        {
          "internalType": "address",
          "name": "newOwner",
          "type": "address"
        }
      ],
      "name": "transferOwnership",
      "outputs": [],
      "stateMutability": "nonpayable",
      "type": "function"
    },
    {
      "inputs": [
        {
          "internalType": "address",
          "name": "recipient",
          "type": "address"
        },
        {
          "internalType": "string",
          "name": "tokenURI",
          "type": "string"
        }
      ],
      "name": "mintNFT",
      "outputs": [
        {
          "internalType": "uint256",
          "name": "",
          "type": "uint256"
        }
      ],
      "stateMutability": "nonpayable",
      "type": "function"
    },
    {
      "inputs": [
        {
          "internalType": "address",
          "name": "tokenAddress",
          "type": "address"
        }
      ],
      "name": "setToken",
      "outputs": [
        {
          "internalType": "bool",
          "name": "",
          "type": "bool"
        }
      ],
      "stateMutability": "nonpayable",
      "type": "function"
    }
  ],
  "bytecode": "0x60806040523480156200001157600080fd5b506040518060400160405280600681526020017f4d794e46547300000000000000000000000000000000000000000000000000008152506040518060400160405280600481526020017f4d4e465400000000000000000000000000000000000000000000000000000000815250816000908051906020019062000096929190620001b6565b508060019080519060200190620000af929190620001b6565b505050620000d2620000c6620000e860201b60201c565b620000f060201b60201c565b68056bc75e2d63100000600a81905550620002ca565b600033905090565b6000600760009054906101000a900473ffffffffffffffffffffffffffffffffffffffff16905081600760006101000a81548173ffffffffffffffffffffffffffffffffffffffff021916908373ffffffffffffffffffffffffffffffffffffffff1602179055508173ffffffffffffffffffffffffffffffffffffffff168173ffffffffffffffffffffffffffffffffffffffff167f8be0079c531659141344cd1fd0a4f28419497f9722a3daafe3b4186f6b6457e060405160405180910390a35050565b828054620001c49062000295565b90600052602060002090601f016020900481019282620001e8576000855562000234565b82601f106200020357805160ff191683800117855562000234565b8280016001018555821562000234579182015b828111156200023357825182559160200191906001019062000216565b5b50905062000243919062000247565b5090565b5b808211156200026257600081600090555060010162000248565b5090565b7f4e487b7100000000000000000000000000000000000000000000000000000000600052602260045260246000fd5b60006002820490506001821680620002ae57607f821691505b602082108103620002c457620002c362000266565b5b50919050565b61334a80620002da6000396000f3fe608060405234801561001057600080fd5b50600436106101165760003560e01c8063715018a6116100a2578063b88d4fde11610071578063b88d4fde146102df578063c87b56dd146102fb578063e985e9c51461032b578063eacabe141461035b578063f2fde38b1461038b57610116565b8063715018a61461027d5780638da5cb5b1461028757806395d89b41146102a5578063a22cb465146102c357610116565b8063144fa6d7116100e9578063144fa6d7146101b557806323b872dd146101e557806342842e0e146102015780636352211e1461021d57806370a082311461024d57610116565b806301ffc9a71461011b57806306fdde031461014b578063081812fc14610169578063095ea7b314610199575b600080fd5b61013560048036038101906101309190611ef5565b6103a7565b6040516101429190611f3d565b60405180910390f35b610153610489565b6040516101609190611ff1565b60405180910390f35b610183600480360381019061017e9190612049565b61051b565b60405161019091906120b7565b60405180910390f35b6101b360048036038101906101ae91906120fe565b6105a0565b005b6101cf60048036038101906101ca919061213e565b6106b7565b6040516101dc9190611f3d565b60405180910390f35b6101ff60048036038101906101fa919061216b565b6107b8565b005b61021b6004803603810190610216919061216b565b610818565b005b61023760048036038101906102329190612049565b610838565b60405161024491906120b7565b60405180910390f35b6102676004803603810190610262919061213e565b6108e9565b60405161027491906121cd565b60405180910390f35b6102856109a0565b005b61028f610a28565b60405161029c91906120b7565b60405180910390f35b6102ad610a52565b6040516102ba9190611ff1565b60405180910390f35b6102dd60048036038101906102d89190612214565b610ae4565b005b6102f960048036038101906102f49190612389565b610afa565b005b61031560048036038101906103109190612049565b610b5c565b6040516103229190611ff1565b60405180910390f35b6103456004803603810190610340919061240c565b610cad565b6040516103529190611f3d565b60405180910390f35b610375600480360381019061037091906124ed565b610d41565b60405161038291906121cd565b60405180910390f35b6103a560048036038101906103a0919061213e565b610f43565b005b60007f80ac58cd000000000000000000000000000000000000000000000000000000007bffffffffffffffffffffffffffffffffffffffffffffffffffffffff1916827bffffffffffffffffffffffffffffffffffffffffffffffffffffffff1916148061047257507f5b5e139f000000000000000000000000000000000000000000000000000000007bffffffffffffffffffffffffffffffffffffffffffffffffffffffff1916827bffffffffffffffffffffffffffffffffffffffffffffffffffffffff1916145b8061048257506104818261103a565b5b9050919050565b60606000805461049890612578565b80601f01602080910402602001604051908101604052809291908181526020018280546104c490612578565b80156105115780601f106104e657610100808354040283529160200191610511565b820191906000526020600020905b8154815290600101906020018083116104f457829003601f168201915b5050505050905090565b6000610526826110a4565b610565576040517f08c379a000000000000000000000000000000000000000000000000000000000815260040161055c9061261b565b60405180910390fd5b6004600083815260200190815260200160002060009054906101000a900473ffffffffffffffffffffffffffffffffffffffff169050919050565b60006105ab82610838565b90508073ffffffffffffffffffffffffffffffffffffffff168373ffffffffffffffffffffffffffffffffffffffff160361061b576040517f08c379a0000000000000000000000000000000000000000000000000000000008152600401610612906126ad565b60405180910390fd5b8073ffffffffffffffffffffffffffffffffffffffff1661063a611110565b73ffffffffffffffffffffffffffffffffffffffff161480610669575061066881610663611110565b610cad565b5b6106a8576040517f08c379a000000000000000000000000000000000000000000000000000000000815260040161069f9061273f565b60405180910390fd5b6106b28383611118565b505050565b60006106c1611110565b73ffffffffffffffffffffffffffffffffffffffff166106df610a28565b73ffffffffffffffffffffffffffffffffffffffff1614610735576040517f08c379a000000000000000000000000000000000000000000000000000000000815260040161072c906127ab565b60405180910390fd5b600073ffffffffffffffffffffffffffffffffffffffff168273ffffffffffffffffffffffffffffffffffffffff160361076e57600080fd5b81600960006101000a81548173ffffffffffffffffffffffffffffffffffffffff021916908373ffffffffffffffffffffffffffffffffffffffff16021790555060019050919050565b6107c96107c3611110565b826111d1565b610808576040517f08c379a00000000000000000000000000000000000000000000000000000000081526004016107ff9061283d565b60405180910390fd5b6108138383836112af565b505050565b61083383838360405180602001604052806000815250610afa565b505050565b6000806002600084815260200190815260200160002060009054906101000a900473ffffffffffffffffffffffffffffffffffffffff169050600073ffffffffffffffffffffffffffffffffffffffff168173ffffffffffffffffffffffffffffffffffffffff16036108e0576040517f08c379a00000000000000000000000000000000000000000000000000000000081526004016108d7906128cf565b60405180910390fd5b80915050919050565b60008073ffffffffffffffffffffffffffffffffffffffff168273ffffffffffffffffffffffffffffffffffffffff1603610959576040517f08c379a000000000000000000000000000000000000000000000000000000000815260040161095090612961565b60405180910390fd5b600360008373ffffffffffffffffffffffffffffffffffffffff1673ffffffffffffffffffffffffffffffffffffffff168152602001908152602001600020549050919050565b6109a8611110565b73ffffffffffffffffffffffffffffffffffffffff166109c6610a28565b73ffffffffffffffffffffffffffffffffffffffff1614610a1c576040517f08c379a0000000000000000000000000000000000000000000000000000000008152600401610a13906127ab565b60405180910390fd5b610a266000611515565b565b6000600760009054906101000a900473ffffffffffffffffffffffffffffffffffffffff16905090565b606060018054610a6190612578565b80601f0160208091040260200160405190810160405280929190818152602001828054610a8d90612578565b8015610ada5780601f10610aaf57610100808354040283529160200191610ada565b820191906000526020600020905b815481529060010190602001808311610abd57829003601f168201915b5050505050905090565b610af6610aef611110565b83836115db565b5050565b610b0b610b05611110565b836111d1565b610b4a576040517f08c379a0000000000000000000000000000000000000000000000000000000008152600401610b419061283d565b60405180910390fd5b610b5684848484611747565b50505050565b6060610b67826110a4565b610ba6576040517f08c379a0000000000000000000000000000000000000000000000000000000008152600401610b9d906129f3565b60405180910390fd5b6000600660008481526020019081526020016000208054610bc690612578565b80601f0160208091040260200160405190810160405280929190818152602001828054610bf290612578565b8015610c3f5780601f10610c1457610100808354040283529160200191610c3f565b820191906000526020600020905b815481529060010190602001808311610c2257829003601f168201915b505050505090506000610c506117a3565b90506000815103610c65578192505050610ca8565b600082511115610c9a578082604051602001610c82929190612a4f565b60405160208183030381529060405292505050610ca8565b610ca3846117ba565b925050505b919050565b6000600560008473ffffffffffffffffffffffffffffffffffffffff1673ffffffffffffffffffffffffffffffffffffffff16815260200190815260200160002060008373ffffffffffffffffffffffffffffffffffffffff1673ffffffffffffffffffffffffffffffffffffffff16815260200190815260200160002060009054906101000a900460ff16905092915050565b6000610d4b611110565b73ffffffffffffffffffffffffffffffffffffffff16610d69610a28565b73ffffffffffffffffffffffffffffffffffffffff1614610dbf576040517f08c379a0000000000000000000000000000000000000000000000000000000008152600401610db6906127ab565b60405180910390fd5b600a54600960009054906101000a900473ffffffffffffffffffffffffffffffffffffffff1673ffffffffffffffffffffffffffffffffffffffff166370a08231856040518263ffffffff1660e01b8152600401610e1d91906120b7565b602060405180830381865afa158015610e3a573d6000803e3d6000fd5b505050506040513d601f19601f82011682018060405250810190610e5e9190612a88565b11610e6857600080fd5b600960009054906101000a900473ffffffffffffffffffffffffffffffffffffffff1673ffffffffffffffffffffffffffffffffffffffff166323b872dd8433600a546040518463ffffffff1660e01b8152600401610ec993929190612ab5565b6020604051808303816000875af1158015610ee8573d6000803e3d6000fd5b505050506040513d601f19601f82011682018060405250810190610f0c9190612b01565b50610f176008611861565b6000610f236008611877565b9050610f2f8482611885565b610f398184611a5e565b8091505092915050565b610f4b611110565b73ffffffffffffffffffffffffffffffffffffffff16610f69610a28565b73ffffffffffffffffffffffffffffffffffffffff1614610fbf576040517f08c379a0000000000000000000000000000000000000000000000000000000008152600401610fb6906127ab565b60405180910390fd5b600073ffffffffffffffffffffffffffffffffffffffff168173ffffffffffffffffffffffffffffffffffffffff160361102e576040517f08c379a000000000000000000000000000000000000000000000000000000000815260040161102590612ba0565b60405180910390fd5b61103781611515565b50565b60007f01ffc9a7000000000000000000000000000000000000000000000000000000007bffffffffffffffffffffffffffffffffffffffffffffffffffffffff1916827bffffffffffffffffffffffffffffffffffffffffffffffffffffffff1916149050919050565b60008073ffffffffffffffffffffffffffffffffffffffff166002600084815260200190815260200160002060009054906101000a900473ffffffffffffffffffffffffffffffffffffffff1673ffffffffffffffffffffffffffffffffffffffff1614159050919050565b600033905090565b816004600083815260200190815260200160002060006101000a81548173ffffffffffffffffffffffffffffffffffffffff021916908373ffffffffffffffffffffffffffffffffffffffff160217905550808273ffffffffffffffffffffffffffffffffffffffff1661118b83610838565b73ffffffffffffffffffffffffffffffffffffffff167f8c5be1e5ebec7d5bd14f71427d1e84f3dd0314c0f7b2291e5b200ac8c7c3b92560405160405180910390a45050565b60006111dc826110a4565b61121b576040517f08c379a000000000000000000000000000000000000000000000000000000000815260040161121290612c32565b60405180910390fd5b600061122683610838565b90508073ffffffffffffffffffffffffffffffffffffffff168473ffffffffffffffffffffffffffffffffffffffff16148061126857506112678185610cad565b5b806112a657508373ffffffffffffffffffffffffffffffffffffffff1661128e8461051b565b73ffffffffffffffffffffffffffffffffffffffff16145b91505092915050565b8273ffffffffffffffffffffffffffffffffffffffff166112cf82610838565b73ffffffffffffffffffffffffffffffffffffffff1614611325576040517f08c379a000000000000000000000000000000000000000000000000000000000815260040161131c90612cc4565b60405180910390fd5b600073ffffffffffffffffffffffffffffffffffffffff168273ffffffffffffffffffffffffffffffffffffffff1603611394576040517f08c379a000000000000000000000000000000000000000000000000000000000815260040161138b90612d56565b60405180910390fd5b61139f838383611ad2565b6113aa600082611118565b6001600360008573ffffffffffffffffffffffffffffffffffffffff1673ffffffffffffffffffffffffffffffffffffffff16815260200190815260200160002060008282546113fa9190612da5565b925050819055506001600360008473ffffffffffffffffffffffffffffffffffffffff1673ffffffffffffffffffffffffffffffffffffffff16815260200190815260200160002060008282546114519190612dd9565b92505081905550816002600083815260200190815260200160002060006101000a81548173ffffffffffffffffffffffffffffffffffffffff021916908373ffffffffffffffffffffffffffffffffffffffff160217905550808273ffffffffffffffffffffffffffffffffffffffff168473ffffffffffffffffffffffffffffffffffffffff167fddf252ad1be2c89b69c2b068fc378daa952ba7f163c4a11628f55a4df523b3ef60405160405180910390a4611510838383611ad7565b505050565b6000600760009054906101000a900473ffffffffffffffffffffffffffffffffffffffff16905081600760006101000a81548173ffffffffffffffffffffffffffffffffffffffff021916908373ffffffffffffffffffffffffffffffffffffffff1602179055508173ffffffffffffffffffffffffffffffffffffffff168173ffffffffffffffffffffffffffffffffffffffff167f8be0079c531659141344cd1fd0a4f28419497f9722a3daafe3b4186f6b6457e060405160405180910390a35050565b8173ffffffffffffffffffffffffffffffffffffffff168373ffffffffffffffffffffffffffffffffffffffff1603611649576040517f08c379a000000000000000000000000000000000000000000000000000000000815260040161164090612e7b565b60405180910390fd5b80600560008573ffffffffffffffffffffffffffffffffffffffff1673ffffffffffffffffffffffffffffffffffffffff16815260200190815260200160002060008473ffffffffffffffffffffffffffffffffffffffff1673ffffffffffffffffffffffffffffffffffffffff16815260200190815260200160002060006101000a81548160ff0219169083151502179055508173ffffffffffffffffffffffffffffffffffffffff168373ffffffffffffffffffffffffffffffffffffffff167f17307eab39ab6107e8899845ad3d59bd9653f200f220920489ca2b5937696c318360405161173a9190611f3d565b60405180910390a3505050565b6117528484846112af565b61175e84848484611adc565b61179d576040517f08c379a000000000000000000000000000000000000000000000000000000000815260040161179490612f0d565b60405180910390fd5b50505050565b606060405180602001604052806000815250905090565b60606117c5826110a4565b611804576040517f08c379a00000000000000000000000000000000000000000000000000000000081526004016117fb90612f9f565b60405180910390fd5b600061180e6117a3565b9050600081511161182e5760405180602001604052806000815250611859565b8061183884611c63565b604051602001611849929190612a4f565b6040516020818303038152906040525b915050919050565b6001816000016000828254019250508190555050565b600081600001549050919050565b600073ffffffffffffffffffffffffffffffffffffffff168273ffffffffffffffffffffffffffffffffffffffff16036118f4576040517f08c379a00000000000000000000000000000000000000000000000000000000081526004016118eb9061300b565b60405180910390fd5b6118fd816110a4565b1561193d576040517f08c379a000000000000000000000000000000000000000000000000000000000815260040161193490613077565b60405180910390fd5b61194960008383611ad2565b6001600360008473ffffffffffffffffffffffffffffffffffffffff1673ffffffffffffffffffffffffffffffffffffffff16815260200190815260200160002060008282546119999190612dd9565b92505081905550816002600083815260200190815260200160002060006101000a81548173ffffffffffffffffffffffffffffffffffffffff021916908373ffffffffffffffffffffffffffffffffffffffff160217905550808273ffffffffffffffffffffffffffffffffffffffff16600073ffffffffffffffffffffffffffffffffffffffff167fddf252ad1be2c89b69c2b068fc378daa952ba7f163c4a11628f55a4df523b3ef60405160405180910390a4611a5a60008383611ad7565b5050565b611a67826110a4565b611aa6576040517f08c379a0000000000000000000000000000000000000000000000000000000008152600401611a9d90613109565b60405180910390fd5b80600660008481526020019081526020016000209080519060200190611acd929190611de6565b505050565b505050565b505050565b6000611afd8473ffffffffffffffffffffffffffffffffffffffff16611dc3565b15611c56578373ffffffffffffffffffffffffffffffffffffffff1663150b7a02611b26611110565b8786866040518563ffffffff1660e01b8152600401611b48949392919061317e565b6020604051808303816000875af1925050508015611b8457506040513d601f19601f82011682018060405250810190611b8191906131df565b60015b611c06573d8060008114611bb4576040519150601f19603f3d011682016040523d82523d6000602084013e611bb9565b606091505b506000815103611bfe576040517f08c379a0000000000000000000000000000000000000000000000000000000008152600401611bf590612f0d565b60405180910390fd5b805181602001fd5b63150b7a0260e01b7bffffffffffffffffffffffffffffffffffffffffffffffffffffffff1916817bffffffffffffffffffffffffffffffffffffffffffffffffffffffff191614915050611c5b565b600190505b949350505050565b606060008203611caa576040518060400160405280600181526020017f30000000000000000000000000000000000000000000000000000000000000008152509050611dbe565b600082905060005b60008214611cdc578080611cc59061320c565b915050600a82611cd59190613283565b9150611cb2565b60008167ffffffffffffffff811115611cf857611cf761225e565b5b6040519080825280601f01601f191660200182016040528015611d2a5781602001600182028036833780820191505090505b5090505b60008514611db757600182611d439190612da5565b9150600a85611d5291906132b4565b6030611d5e9190612dd9565b60f81b818381518110611d7457611d736132e5565b5b60200101907effffffffffffffffffffffffffffffffffffffffffffffffffffffffffffff1916908160001a905350600a85611db09190613283565b9450611d2e565b8093505050505b919050565b6000808273ffffffffffffffffffffffffffffffffffffffff163b119050919050565b828054611df290612578565b90600052602060002090601f016020900481019282611e145760008555611e5b565b82601f10611e2d57805160ff1916838001178555611e5b565b82800160010185558215611e5b579182015b82811115611e5a578251825591602001919060010190611e3f565b5b509050611e689190611e6c565b5090565b5b80821115611e85576000816000905550600101611e6d565b5090565b6000604051905090565b600080fd5b600080fd5b60007fffffffff0000000000000000000000000000000000000000000000000000000082169050919050565b611ed281611e9d565b8114611edd57600080fd5b50565b600081359050611eef81611ec9565b92915050565b600060208284031215611f0b57611f0a611e93565b5b6000611f1984828501611ee0565b91505092915050565b60008115159050919050565b611f3781611f22565b82525050565b6000602082019050611f526000830184611f2e565b92915050565b600081519050919050565b600082825260208201905092915050565b60005b83811015611f92578082015181840152602081019050611f77565b83811115611fa1576000848401525b50505050565b6000601f19601f8301169050919050565b6000611fc382611f58565b611fcd8185611f63565b9350611fdd818560208601611f74565b611fe681611fa7565b840191505092915050565b6000602082019050818103600083015261200b8184611fb8565b905092915050565b6000819050919050565b61202681612013565b811461203157600080fd5b50565b6000813590506120438161201d565b92915050565b60006020828403121561205f5761205e611e93565b5b600061206d84828501612034565b91505092915050565b600073ffffffffffffffffffffffffffffffffffffffff82169050919050565b60006120a182612076565b9050919050565b6120b181612096565b82525050565b60006020820190506120cc60008301846120a8565b92915050565b6120db81612096565b81146120e657600080fd5b50565b6000813590506120f8816120d2565b92915050565b6000806040838503121561211557612114611e93565b5b6000612123858286016120e9565b925050602061213485828601612034565b9150509250929050565b60006020828403121561215457612153611e93565b5b6000612162848285016120e9565b91505092915050565b60008060006060848603121561218457612183611e93565b5b6000612192868287016120e9565b93505060206121a3868287016120e9565b92505060406121b486828701612034565b9150509250925092565b6121c781612013565b82525050565b60006020820190506121e260008301846121be565b92915050565b6121f181611f22565b81146121fc57600080fd5b50565b60008135905061220e816121e8565b92915050565b6000806040838503121561222b5761222a611e93565b5b6000612239858286016120e9565b925050602061224a858286016121ff565b9150509250929050565b600080fd5b600080fd5b7f4e487b7100000000000000000000000000000000000000000000000000000000600052604160045260246000fd5b61229682611fa7565b810181811067ffffffffffffffff821117156122b5576122b461225e565b5b80604052505050565b60006122c8611e89565b90506122d4828261228d565b919050565b600067ffffffffffffffff8211156122f4576122f361225e565b5b6122fd82611fa7565b9050602081019050919050565b82818337600083830152505050565b600061232c612327846122d9565b6122be565b90508281526020810184848401111561234857612347612259565b5b61235384828561230a565b509392505050565b600082601f8301126123705761236f612254565b5b8135612380848260208601612319565b91505092915050565b600080600080608085870312156123a3576123a2611e93565b5b60006123b1878288016120e9565b94505060206123c2878288016120e9565b93505060406123d387828801612034565b925050606085013567ffffffffffffffff8111156123f4576123f3611e98565b5b6124008782880161235b565b91505092959194509250565b6000806040838503121561242357612422611e93565b5b6000612431858286016120e9565b9250506020612442858286016120e9565b9150509250929050565b600067ffffffffffffffff8211156124675761246661225e565b5b61247082611fa7565b9050602081019050919050565b600061249061248b8461244c565b6122be565b9050828152602081018484840111156124ac576124ab612259565b5b6124b784828561230a565b509392505050565b600082601f8301126124d4576124d3612254565b5b81356124e484826020860161247d565b91505092915050565b6000806040838503121561250457612503611e93565b5b6000612512858286016120e9565b925050602083013567ffffffffffffffff81111561253357612532611e98565b5b61253f858286016124bf565b9150509250929050565b7f4e487b7100000000000000000000000000000000000000000000000000000000600052602260045260246000fd5b6000600282049050600182168061259057607f821691505b6020821081036125a3576125a2612549565b5b50919050565b7f4552433732313a20617070726f76656420717565727920666f72206e6f6e657860008201527f697374656e7420746f6b656e0000000000000000000000000000000000000000602082015250565b6000612605602c83611f63565b9150612610826125a9565b604082019050919050565b60006020820190508181036000830152612634816125f8565b9050919050565b7f4552433732313a20617070726f76616c20746f2063757272656e74206f776e6560008201527f7200000000000000000000000000000000000000000000000000000000000000602082015250565b6000612697602183611f63565b91506126a28261263b565b604082019050919050565b600060208201905081810360008301526126c68161268a565b9050919050565b7f4552433732313a20617070726f76652063616c6c6572206973206e6f74206f7760008201527f6e6572206e6f7220617070726f76656420666f7220616c6c0000000000000000602082015250565b6000612729603883611f63565b9150612734826126cd565b604082019050919050565b600060208201905081810360008301526127588161271c565b9050919050565b7f4f776e61626c653a2063616c6c6572206973206e6f7420746865206f776e6572600082015250565b6000612795602083611f63565b91506127a08261275f565b602082019050919050565b600060208201905081810360008301526127c481612788565b9050919050565b7f4552433732313a207472616e736665722063616c6c6572206973206e6f74206f60008201527f776e6572206e6f7220617070726f766564000000000000000000000000000000602082015250565b6000612827603183611f63565b9150612832826127cb565b604082019050919050565b600060208201905081810360008301526128568161281a565b9050919050565b7f4552433732313a206f776e657220717565727920666f72206e6f6e657869737460008201527f656e7420746f6b656e0000000000000000000000000000000000000000000000602082015250565b60006128b9602983611f63565b91506128c48261285d565b604082019050919050565b600060208201905081810360008301526128e8816128ac565b9050919050565b7f4552433732313a2062616c616e636520717565727920666f7220746865207a6560008201527f726f206164647265737300000000000000000000000000000000000000000000602082015250565b600061294b602a83611f63565b9150612956826128ef565b604082019050919050565b6000602082019050818103600083015261297a8161293e565b9050919050565b7f45524337323155524953746f726167653a2055524920717565727920666f722060008201527f6e6f6e6578697374656e7420746f6b656e000000000000000000000000000000602082015250565b60006129dd603183611f63565b91506129e882612981565b604082019050919050565b60006020820190508181036000830152612a0c816129d0565b9050919050565b600081905092915050565b6000612a2982611f58565b612a338185612a13565b9350612a43818560208601611f74565b80840191505092915050565b6000612a5b8285612a1e565b9150612a678284612a1e565b91508190509392505050565b600081519050612a828161201d565b92915050565b600060208284031215612a9e57612a9d611e93565b5b6000612aac84828501612a73565b91505092915050565b6000606082019050612aca60008301866120a8565b612ad760208301856120a8565b612ae460408301846121be565b949350505050565b600081519050612afb816121e8565b92915050565b600060208284031215612b1757612b16611e93565b5b6000612b2584828501612aec565b91505092915050565b7f4f776e61626c653a206e6577206f776e657220697320746865207a65726f206160008201527f6464726573730000000000000000000000000000000000000000000000000000602082015250565b6000612b8a602683611f63565b9150612b9582612b2e565b604082019050919050565b60006020820190508181036000830152612bb981612b7d565b9050919050565b7f4552433732313a206f70657261746f7220717565727920666f72206e6f6e657860008201527f697374656e7420746f6b656e0000000000000000000000000000000000000000602082015250565b6000612c1c602c83611f63565b9150612c2782612bc0565b604082019050919050565b60006020820190508181036000830152612c4b81612c0f565b9050919050565b7f4552433732313a207472616e736665722066726f6d20696e636f72726563742060008201527f6f776e6572000000000000000000000000000000000000000000000000000000602082015250565b6000612cae602583611f63565b9150612cb982612c52565b604082019050919050565b60006020820190508181036000830152612cdd81612ca1565b9050919050565b7f4552433732313a207472616e7366657220746f20746865207a65726f2061646460008201527f7265737300000000000000000000000000000000000000000000000000000000602082015250565b6000612d40602483611f63565b9150612d4b82612ce4565b604082019050919050565b60006020820190508181036000830152612d6f81612d33565b9050919050565b7f4e487b7100000000000000000000000000000000000000000000000000000000600052601160045260246000fd5b6000612db082612013565b9150612dbb83612013565b925082821015612dce57612dcd612d76565b5b828203905092915050565b6000612de482612013565b9150612def83612013565b9250827fffffffffffffffffffffffffffffffffffffffffffffffffffffffffffffffff03821115612e2457612e23612d76565b5b828201905092915050565b7f4552433732313a20617070726f766520746f2063616c6c657200000000000000600082015250565b6000612e65601983611f63565b9150612e7082612e2f565b602082019050919050565b60006020820190508181036000830152612e9481612e58565b9050919050565b7f4552433732313a207472616e7366657220746f206e6f6e20455243373231526560008201527f63656976657220696d706c656d656e7465720000000000000000000000000000602082015250565b6000612ef7603283611f63565b9150612f0282612e9b565b604082019050919050565b60006020820190508181036000830152612f2681612eea565b9050919050565b7f4552433732314d657461646174613a2055524920717565727920666f72206e6f60008201527f6e6578697374656e7420746f6b656e0000000000000000000000000000000000602082015250565b6000612f89602f83611f63565b9150612f9482612f2d565b604082019050919050565b60006020820190508181036000830152612fb881612f7c565b9050919050565b7f4552433732313a206d696e7420746f20746865207a65726f2061646472657373600082015250565b6000612ff5602083611f63565b915061300082612fbf565b602082019050919050565b6000602082019050818103600083015261302481612fe8565b9050919050565b7f4552433732313a20746f6b656e20616c7265616479206d696e74656400000000600082015250565b6000613061601c83611f63565b915061306c8261302b565b602082019050919050565b6000602082019050818103600083015261309081613054565b9050919050565b7f45524337323155524953746f726167653a2055524920736574206f66206e6f6e60008201527f6578697374656e7420746f6b656e000000000000000000000000000000000000602082015250565b60006130f3602e83611f63565b91506130fe82613097565b604082019050919050565b60006020820190508181036000830152613122816130e6565b9050919050565b600081519050919050565b600082825260208201905092915050565b600061315082613129565b61315a8185613134565b935061316a818560208601611f74565b61317381611fa7565b840191505092915050565b600060808201905061319360008301876120a8565b6131a060208301866120a8565b6131ad60408301856121be565b81810360608301526131bf8184613145565b905095945050505050565b6000815190506131d981611ec9565b92915050565b6000602082840312156131f5576131f4611e93565b5b6000613203848285016131ca565b91505092915050565b600061321782612013565b91507fffffffffffffffffffffffffffffffffffffffffffffffffffffffffffffffff820361324957613248612d76565b5b600182019050919050565b7f4e487b7100000000000000000000000000000000000000000000000000000000600052601260045260246000fd5b600061328e82612013565b915061329983612013565b9250826132a9576132a8613254565b5b828204905092915050565b60006132bf82612013565b91506132ca83612013565b9250826132da576132d9613254565b5b828206905092915050565b7f4e487b7100000000000000000000000000000000000000000000000000000000600052603260045260246000fdfea2646970667358221220a6dd66c4bb88d7b9b377d9374aefef0b61697a676bd9baf3dcdd154dccc7905464736f6c634300080e0033",
  "immutableReferences": {},
  "source": "// SPDX-License-Identifier: MIT\npragma solidity ^0.8.10;\n\nimport \"openzeppelin-solidity/contracts/token/ERC721/ERC721.sol\";\nimport \"openzeppelin-solidity/contracts/utils/Counters.sol\";\nimport \"openzeppelin-solidity/contracts/access/Ownable.sol\";\nimport \"openzeppelin-solidity/contracts/token/ERC721/extensions/ERC721URIStorage.sol\";\nimport \"openzeppelin-solidity/contracts/token/ERC20/IERC20.sol\";\n\ncontract ProjectERC721 is ERC721URIStorage, Ownable {\n    using Counters for Counters.Counter;\n    Counters.Counter private _tokenIds;\n    IERC20 token;\n    uint256 nftPrice;\n\n    constructor() ERC721(\"MyNFTs\", \"MNFT\") {\n        nftPrice = 100e18;\n    }\n\n    function mintNFT(address recipient, string memory tokenURI) public onlyOwner returns (uint256) {\n        require(token.balanceOf(recipient) > nftPrice);\n\n        token.transferFrom(recipient, msg.sender, nftPrice);\n        \n        _tokenIds.increment();\n        uint256 newItemId = _tokenIds.current();\n        _mint(recipient, newItemId);\n        _setTokenURI(newItemId, tokenURI);\n\n        return newItemId;\n    }\n\n    function setToken (address tokenAddress) public onlyOwner returns (bool) {\n        require(tokenAddress != address(0x0));\n        token = IERC20(tokenAddress);\n        return true;\n    }\n}",
  "sourcePath": "/Users/yooseungjun/Desktop/blockchain/beb-04-O_log/OLOG_SERVER/truffle/contracts/ERC721Project.sol",
  "compiler": {
    "name": "solc",
    "version": "0.8.14+commit.80d49f37.Emscripten.clang"
  },
  "schemaVersion": "3.4.7",
  "updatedAt": "2022-06-23T04:41:55.774Z",
  "networkType": "ethereum",
  "devdoc": {
    "kind": "dev",
    "methods": {
      "approve(address,uint256)": {
        "details": "See {IERC721-approve}."
      },
      "balanceOf(address)": {
        "details": "See {IERC721-balanceOf}."
      },
      "getApproved(uint256)": {
        "details": "See {IERC721-getApproved}."
      },
      "isApprovedForAll(address,address)": {
        "details": "See {IERC721-isApprovedForAll}."
      },
      "name()": {
        "details": "See {IERC721Metadata-name}."
      },
      "owner()": {
        "details": "Returns the address of the current owner."
      },
      "ownerOf(uint256)": {
        "details": "See {IERC721-ownerOf}."
      },
      "renounceOwnership()": {
        "details": "Leaves the contract without owner. It will not be possible to call `onlyOwner` functions anymore. Can only be called by the current owner. NOTE: Renouncing ownership will leave the contract without an owner, thereby removing any functionality that is only available to the owner."
      },
      "safeTransferFrom(address,address,uint256)": {
        "details": "See {IERC721-safeTransferFrom}."
      },
      "safeTransferFrom(address,address,uint256,bytes)": {
        "details": "See {IERC721-safeTransferFrom}."
      },
      "setApprovalForAll(address,bool)": {
        "details": "See {IERC721-setApprovalForAll}."
      },
      "supportsInterface(bytes4)": {
        "details": "See {IERC165-supportsInterface}."
      },
      "symbol()": {
        "details": "See {IERC721Metadata-symbol}."
      },
      "tokenURI(uint256)": {
        "details": "See {IERC721Metadata-tokenURI}."
      },
      "transferFrom(address,address,uint256)": {
        "details": "See {IERC721-transferFrom}."
      },
      "transferOwnership(address)": {
        "details": "Transfers ownership of the contract to a new account (`newOwner`). Can only be called by the current owner."
      }
    },
    "version": 1
  },
  "userdoc": {
    "kind": "user",
    "methods": {},
    "version": 1
  }
}